{
	"function.sol": {
		"Function": {
			"abi": [
				{
					"inputs": [
						{
							"internalType": "uint256",
							"name": "",
							"type": "uint256"
						}
					],
					"name": "arr",
					"outputs": [
						{
							"internalType": "uint256",
							"name": "",
							"type": "uint256"
						}
					],
					"stateMutability": "view",
					"type": "function"
				},
				{
					"inputs": [
						{
							"internalType": "uint256[]",
							"name": "_arr",
							"type": "uint256[]"
						}
					],
					"name": "arrayInPut",
					"outputs": [],
					"stateMutability": "nonpayable",
					"type": "function"
				},
				{
					"inputs": [],
					"name": "arrayOutPut",
					"outputs": [
						{
							"internalType": "uint256[]",
							"name": "",
							"type": "uint256[]"
						}
					],
					"stateMutability": "view",
					"type": "function"
				},
				{
					"inputs": [],
					"name": "assinged",
					"outputs": [
						{
							"internalType": "uint256",
							"name": "x",
							"type": "uint256"
						},
						{
							"internalType": "bool",
							"name": "b",
							"type": "bool"
						},
						{
							"internalType": "uint256",
							"name": "y",
							"type": "uint256"
						}
					],
					"stateMutability": "pure",
					"type": "function"
				},
				{
					"inputs": [],
					"name": "destrucingAssignments",
					"outputs": [
						{
							"internalType": "uint256",
							"name": "",
							"type": "uint256"
						},
						{
							"internalType": "bool",
							"name": "",
							"type": "bool"
						},
						{
							"internalType": "uint256",
							"name": "",
							"type": "uint256"
						},
						{
							"internalType": "uint256",
							"name": "",
							"type": "uint256"
						},
						{
							"internalType": "uint256",
							"name": "",
							"type": "uint256"
						}
					],
					"stateMutability": "pure",
					"type": "function"
				},
				{
					"inputs": [],
					"name": "named",
					"outputs": [
						{
							"internalType": "uint256",
							"name": "x",
							"type": "uint256"
						},
						{
							"internalType": "bool",
							"name": "b",
							"type": "bool"
						},
						{
							"internalType": "uint256",
							"name": "y",
							"type": "uint256"
						}
					],
					"stateMutability": "pure",
					"type": "function"
				},
				{
					"inputs": [],
					"name": "returnMany",
					"outputs": [
						{
							"internalType": "uint256",
							"name": "",
							"type": "uint256"
						},
						{
							"internalType": "bool",
							"name": "",
							"type": "bool"
						},
						{
							"internalType": "uint256",
							"name": "",
							"type": "uint256"
						}
					],
					"stateMutability": "pure",
					"type": "function"
				}
			],
			"devdoc": {
				"kind": "dev",
				"methods": {},
				"version": 1
			},
			"evm": {
				"assembly": "    /* \"function.sol\":61:768  contract Function{... */\n  mstore(0x40, 0x80)\n  callvalue\n  dup1\n  iszero\n  tag_1\n  jumpi\n  0x00\n  dup1\n  revert\ntag_1:\n  pop\n  dataSize(sub_0)\n  dup1\n  dataOffset(sub_0)\n  0x00\n  codecopy\n  0x00\n  return\nstop\n\nsub_0: assembly {\n        /* \"function.sol\":61:768  contract Function{... */\n      mstore(0x40, 0x80)\n      callvalue\n      dup1\n      iszero\n      tag_1\n      jumpi\n      0x00\n      dup1\n      revert\n    tag_1:\n      pop\n      jumpi(tag_2, lt(calldatasize, 0x04))\n      shr(0xe0, calldataload(0x00))\n      dup1\n      0x71e5ee5f\n      gt\n      tag_10\n      jumpi\n      dup1\n      0x71e5ee5f\n      eq\n      tag_6\n      jumpi\n      dup1\n      0x86887544\n      eq\n      tag_7\n      jumpi\n      dup1\n      0xa01e446c\n      eq\n      tag_8\n      jumpi\n      dup1\n      0xb2ce40c0\n      eq\n      tag_9\n      jumpi\n      jump(tag_2)\n    tag_10:\n      dup1\n      0x200a020d\n      eq\n      tag_3\n      jumpi\n      dup1\n      0x45f907a8\n      eq\n      tag_4\n      jumpi\n      dup1\n      0x4e0a6f2a\n      eq\n      tag_5\n      jumpi\n    tag_2:\n      0x00\n      dup1\n      revert\n        /* \"function.sol\":284:378  function assinged()public pure returns (uint x,bool b,uint y){... */\n    tag_3:\n      tag_11\n      tag_12\n      jump\t// in\n    tag_11:\n      mload(0x40)\n      tag_13\n      swap4\n      swap3\n      swap2\n      swap1\n      tag_14\n      jump\t// in\n    tag_13:\n      mload(0x40)\n      dup1\n      swap2\n      sub\n      swap1\n      return\n        /* \"function.sol\":184:278  function named()public pure returns (uint x,bool b,uint y){... */\n    tag_4:\n      tag_15\n      tag_16\n      jump\t// in\n    tag_15:\n      mload(0x40)\n      tag_17\n      swap4\n      swap3\n      swap2\n      swap1\n      tag_14\n      jump\t// in\n    tag_17:\n      mload(0x40)\n      dup1\n      swap2\n      sub\n      swap1\n      return\n        /* \"function.sol\":384:583  function destrucingAssignments()public pure returns (uint ,bool,uint,uint,uint){... */\n    tag_5:\n      tag_18\n      tag_19\n      jump\t// in\n    tag_18:\n      mload(0x40)\n      tag_20\n      swap6\n      swap5\n      swap4\n      swap3\n      swap2\n      swap1\n      tag_21\n      jump\t// in\n    tag_20:\n      mload(0x40)\n      dup1\n      swap2\n      sub\n      swap1\n      return\n        /* \"function.sol\":642:659  uint[] public arr */\n    tag_6:\n      tag_22\n      0x04\n      dup1\n      calldatasize\n      sub\n      dup2\n      add\n      swap1\n      tag_23\n      swap2\n      swap1\n      tag_24\n      jump\t// in\n    tag_23:\n      tag_25\n      jump\t// in\n    tag_22:\n      mload(0x40)\n      tag_26\n      swap2\n      swap1\n      tag_27\n      jump\t// in\n    tag_26:\n      mload(0x40)\n      dup1\n      swap2\n      sub\n      swap1\n      return\n        /* \"function.sol\":85:178  function returnMany()public pure returns (uint,bool,uint){... */\n    tag_7:\n      tag_28\n      tag_29\n      jump\t// in\n    tag_28:\n      mload(0x40)\n      tag_30\n      swap4\n      swap3\n      swap2\n      swap1\n      tag_14\n      jump\t// in\n    tag_30:\n      mload(0x40)\n      dup1\n      swap2\n      sub\n      swap1\n      return\n        /* \"function.sol\":589:636  function arrayInPut(uint[] memory _arr)public{} */\n    tag_8:\n      tag_31\n      0x04\n      dup1\n      calldatasize\n      sub\n      dup2\n      add\n      swap1\n      tag_32\n      swap2\n      swap1\n      tag_33\n      jump\t// in\n    tag_32:\n      tag_34\n      jump\t// in\n    tag_31:\n      stop\n        /* \"function.sol\":666:755  function arrayOutPut()public view returns(uint[] memory){... */\n    tag_9:\n      tag_35\n      tag_36\n      jump\t// in\n    tag_35:\n      mload(0x40)\n      tag_37\n      swap2\n      swap1\n      tag_38\n      jump\t// in\n    tag_37:\n      mload(0x40)\n      dup1\n      swap2\n      sub\n      swap1\n      return\n        /* \"function.sol\":284:378  function assinged()public pure returns (uint x,bool b,uint y){... */\n    tag_12:\n        /* \"function.sol\":324:330  uint x */\n      0x00\n        /* \"function.sol\":331:337  bool b */\n      dup1\n        /* \"function.sol\":338:344  uint y */\n      0x00\n        /* \"function.sol\":358:359  1 */\n      0x01\n        /* \"function.sol\":356:359  x=1 */\n      swap3\n      pop\n        /* \"function.sol\":362:366  true */\n      0x01\n        /* \"function.sol\":360:366  b=true */\n      swap2\n      pop\n        /* \"function.sol\":369:370  2 */\n      0x02\n        /* \"function.sol\":367:370  y=2 */\n      swap1\n      pop\n        /* \"function.sol\":284:378  function assinged()public pure returns (uint x,bool b,uint y){... */\n      swap1\n      swap2\n      swap3\n      jump\t// out\n        /* \"function.sol\":184:278  function named()public pure returns (uint x,bool b,uint y){... */\n    tag_16:\n        /* \"function.sol\":221:227  uint x */\n      0x00\n        /* \"function.sol\":228:234  bool b */\n      dup1\n        /* \"function.sol\":235:241  uint y */\n      0x00\n        /* \"function.sol\":261:262  1 */\n      0x01\n        /* \"function.sol\":263:267  true */\n      dup1\n        /* \"function.sol\":268:269  2 */\n      0x02\n        /* \"function.sol\":253:270  return (1,true,2) */\n      swap3\n      pop\n      swap3\n      pop\n      swap3\n      pop\n        /* \"function.sol\":184:278  function named()public pure returns (uint x,bool b,uint y){... */\n      swap1\n      swap2\n      swap3\n      jump\t// out\n        /* \"function.sol\":384:583  function destrucingAssignments()public pure returns (uint ,bool,uint,uint,uint){... */\n    tag_19:\n        /* \"function.sol\":437:441  uint */\n      0x00\n        /* \"function.sol\":443:447  bool */\n      dup1\n        /* \"function.sol\":448:452  uint */\n      0x00\n        /* \"function.sol\":453:457  uint */\n      dup1\n        /* \"function.sol\":458:462  uint */\n      0x00\n        /* \"function.sol\":475:481  uint i */\n      dup1\n        /* \"function.sol\":482:488  bool b */\n      0x00\n        /* \"function.sol\":490:496  uint j */\n      dup1\n        /* \"function.sol\":498:510  returnMany() */\n      tag_42\n        /* \"function.sol\":498:508  returnMany */\n      tag_29\n        /* \"function.sol\":498:510  returnMany() */\n      jump\t// in\n    tag_42:\n        /* \"function.sol\":474:510  (uint i,bool b ,uint j)=returnMany() */\n      swap3\n      pop\n      swap3\n      pop\n      swap3\n      pop\n        /* \"function.sol\":522:528  uint x */\n      0x00\n        /* \"function.sol\":531:537  uint y */\n      dup1\n        /* \"function.sol\":540:541  4 */\n      0x04\n        /* \"function.sol\":542:543  5 */\n      0x05\n        /* \"function.sol\":544:545  6 */\n      0x06\n        /* \"function.sol\":521:546  (uint x, ,uint y)=(4,5,6) */\n      swap3\n      pop\n      pop\n      swap2\n      pop\n        /* \"function.sol\":565:566  i */\n      dup5\n        /* \"function.sol\":567:568  b */\n      dup5\n        /* \"function.sol\":569:570  j */\n      dup5\n        /* \"function.sol\":571:572  x */\n      dup5\n        /* \"function.sol\":573:574  y */\n      dup5\n        /* \"function.sol\":557:575  return (i,b,j,x,y) */\n      swap10\n      pop\n      swap10\n      pop\n      swap10\n      pop\n      swap10\n      pop\n      swap10\n      pop\n      pop\n      pop\n      pop\n      pop\n      pop\n        /* \"function.sol\":384:583  function destrucingAssignments()public pure returns (uint ,bool,uint,uint,uint){... */\n      swap1\n      swap2\n      swap3\n      swap4\n      swap5\n      jump\t// out\n        /* \"function.sol\":642:659  uint[] public arr */\n    tag_25:\n      0x00\n      dup2\n      dup2\n      sload\n      dup2\n      lt\n      tag_43\n      jumpi\n      0x00\n      dup1\n      revert\n    tag_43:\n      swap1\n      0x00\n      mstore\n      keccak256(0x00, 0x20)\n      add\n      0x00\n      swap2\n      pop\n      swap1\n      pop\n      sload\n      dup2\n      jump\t// out\n        /* \"function.sol\":85:178  function returnMany()public pure returns (uint,bool,uint){... */\n    tag_29:\n        /* \"function.sol\":127:131  uint */\n      0x00\n        /* \"function.sol\":132:136  bool */\n      dup1\n        /* \"function.sol\":137:141  uint */\n      0x00\n        /* \"function.sol\":161:162  1 */\n      0x01\n        /* \"function.sol\":163:167  true */\n      dup1\n        /* \"function.sol\":168:169  2 */\n      0x02\n        /* \"function.sol\":153:170  return (1,true,2) */\n      swap3\n      pop\n      swap3\n      pop\n      swap3\n      pop\n        /* \"function.sol\":85:178  function returnMany()public pure returns (uint,bool,uint){... */\n      swap1\n      swap2\n      swap3\n      jump\t// out\n        /* \"function.sol\":589:636  function arrayInPut(uint[] memory _arr)public{} */\n    tag_34:\n      pop\n      jump\t// out\n        /* \"function.sol\":666:755  function arrayOutPut()public view returns(uint[] memory){... */\n    tag_36:\n        /* \"function.sol\":708:721  uint[] memory */\n      0x60\n        /* \"function.sol\":744:747  arr */\n      0x00\n        /* \"function.sol\":737:747  return arr */\n      dup1\n      sload\n      dup1\n      0x20\n      mul\n      0x20\n      add\n      mload(0x40)\n      swap1\n      dup2\n      add\n      0x40\n      mstore\n      dup1\n      swap3\n      swap2\n      swap1\n      dup2\n      dup2\n      mstore\n      0x20\n      add\n      dup3\n      dup1\n      sload\n      dup1\n      iszero\n      tag_48\n      jumpi\n      0x20\n      mul\n      dup3\n      add\n      swap2\n      swap1\n      0x00\n      mstore\n      keccak256(0x00, 0x20)\n      swap1\n    tag_49:\n      dup2\n      sload\n      dup2\n      mstore\n      0x20\n      add\n      swap1\n      0x01\n      add\n      swap1\n      dup1\n      dup4\n      gt\n      tag_49\n      jumpi\n    tag_48:\n      pop\n      pop\n      pop\n      pop\n      pop\n      swap1\n      pop\n        /* \"function.sol\":666:755  function arrayOutPut()public view returns(uint[] memory){... */\n      swap1\n      jump\t// out\n        /* \"#utility.yul\":7:84   */\n    tag_50:\n        /* \"#utility.yul\":44:51   */\n      0x00\n        /* \"#utility.yul\":73:78   */\n      dup2\n        /* \"#utility.yul\":62:78   */\n      swap1\n      pop\n        /* \"#utility.yul\":7:84   */\n      swap2\n      swap1\n      pop\n      jump\t// out\n        /* \"#utility.yul\":90:208   */\n    tag_51:\n        /* \"#utility.yul\":177:201   */\n      tag_78\n        /* \"#utility.yul\":195:200   */\n      dup2\n        /* \"#utility.yul\":177:201   */\n      tag_50\n      jump\t// in\n    tag_78:\n        /* \"#utility.yul\":172:175   */\n      dup3\n        /* \"#utility.yul\":165:202   */\n      mstore\n        /* \"#utility.yul\":90:208   */\n      pop\n      pop\n      jump\t// out\n        /* \"#utility.yul\":214:304   */\n    tag_52:\n        /* \"#utility.yul\":248:255   */\n      0x00\n        /* \"#utility.yul\":291:296   */\n      dup2\n        /* \"#utility.yul\":284:297   */\n      iszero\n        /* \"#utility.yul\":277:298   */\n      iszero\n        /* \"#utility.yul\":266:298   */\n      swap1\n      pop\n        /* \"#utility.yul\":214:304   */\n      swap2\n      swap1\n      pop\n      jump\t// out\n        /* \"#utility.yul\":310:419   */\n    tag_53:\n        /* \"#utility.yul\":391:412   */\n      tag_81\n        /* \"#utility.yul\":406:411   */\n      dup2\n        /* \"#utility.yul\":391:412   */\n      tag_52\n      jump\t// in\n    tag_81:\n        /* \"#utility.yul\":386:389   */\n      dup3\n        /* \"#utility.yul\":379:413   */\n      mstore\n        /* \"#utility.yul\":310:419   */\n      pop\n      pop\n      jump\t// out\n        /* \"#utility.yul\":425:855   */\n    tag_14:\n        /* \"#utility.yul\":568:572   */\n      0x00\n        /* \"#utility.yul\":606:608   */\n      0x60\n        /* \"#utility.yul\":595:604   */\n      dup3\n        /* \"#utility.yul\":591:609   */\n      add\n        /* \"#utility.yul\":583:609   */\n      swap1\n      pop\n        /* \"#utility.yul\":619:690   */\n      tag_83\n        /* \"#utility.yul\":687:688   */\n      0x00\n        /* \"#utility.yul\":676:685   */\n      dup4\n        /* \"#utility.yul\":672:689   */\n      add\n        /* \"#utility.yul\":663:669   */\n      dup7\n        /* \"#utility.yul\":619:690   */\n      tag_51\n      jump\t// in\n    tag_83:\n        /* \"#utility.yul\":700:766   */\n      tag_84\n        /* \"#utility.yul\":762:764   */\n      0x20\n        /* \"#utility.yul\":751:760   */\n      dup4\n        /* \"#utility.yul\":747:765   */\n      add\n        /* \"#utility.yul\":738:744   */\n      dup6\n        /* \"#utility.yul\":700:766   */\n      tag_53\n      jump\t// in\n    tag_84:\n        /* \"#utility.yul\":776:848   */\n      tag_85\n        /* \"#utility.yul\":844:846   */\n      0x40\n        /* \"#utility.yul\":833:842   */\n      dup4\n        /* \"#utility.yul\":829:847   */\n      add\n        /* \"#utility.yul\":820:826   */\n      dup5\n        /* \"#utility.yul\":776:848   */\n      tag_51\n      jump\t// in\n    tag_85:\n        /* \"#utility.yul\":425:855   */\n      swap5\n      swap4\n      pop\n      pop\n      pop\n      pop\n      jump\t// out\n        /* \"#utility.yul\":861:1513   */\n    tag_21:\n        /* \"#utility.yul\":1060:1064   */\n      0x00\n        /* \"#utility.yul\":1098:1101   */\n      0xa0\n        /* \"#utility.yul\":1087:1096   */\n      dup3\n        /* \"#utility.yul\":1083:1102   */\n      add\n        /* \"#utility.yul\":1075:1102   */\n      swap1\n      pop\n        /* \"#utility.yul\":1112:1183   */\n      tag_87\n        /* \"#utility.yul\":1180:1181   */\n      0x00\n        /* \"#utility.yul\":1169:1178   */\n      dup4\n        /* \"#utility.yul\":1165:1182   */\n      add\n        /* \"#utility.yul\":1156:1162   */\n      dup9\n        /* \"#utility.yul\":1112:1183   */\n      tag_51\n      jump\t// in\n    tag_87:\n        /* \"#utility.yul\":1193:1259   */\n      tag_88\n        /* \"#utility.yul\":1255:1257   */\n      0x20\n        /* \"#utility.yul\":1244:1253   */\n      dup4\n        /* \"#utility.yul\":1240:1258   */\n      add\n        /* \"#utility.yul\":1231:1237   */\n      dup8\n        /* \"#utility.yul\":1193:1259   */\n      tag_53\n      jump\t// in\n    tag_88:\n        /* \"#utility.yul\":1269:1341   */\n      tag_89\n        /* \"#utility.yul\":1337:1339   */\n      0x40\n        /* \"#utility.yul\":1326:1335   */\n      dup4\n        /* \"#utility.yul\":1322:1340   */\n      add\n        /* \"#utility.yul\":1313:1319   */\n      dup7\n        /* \"#utility.yul\":1269:1341   */\n      tag_51\n      jump\t// in\n    tag_89:\n        /* \"#utility.yul\":1351:1423   */\n      tag_90\n        /* \"#utility.yul\":1419:1421   */\n      0x60\n        /* \"#utility.yul\":1408:1417   */\n      dup4\n        /* \"#utility.yul\":1404:1422   */\n      add\n        /* \"#utility.yul\":1395:1401   */\n      dup6\n        /* \"#utility.yul\":1351:1423   */\n      tag_51\n      jump\t// in\n    tag_90:\n        /* \"#utility.yul\":1433:1506   */\n      tag_91\n        /* \"#utility.yul\":1501:1504   */\n      0x80\n        /* \"#utility.yul\":1490:1499   */\n      dup4\n        /* \"#utility.yul\":1486:1505   */\n      add\n        /* \"#utility.yul\":1477:1483   */\n      dup5\n        /* \"#utility.yul\":1433:1506   */\n      tag_51\n      jump\t// in\n    tag_91:\n        /* \"#utility.yul\":861:1513   */\n      swap7\n      swap6\n      pop\n      pop\n      pop\n      pop\n      pop\n      pop\n      jump\t// out\n        /* \"#utility.yul\":1519:1594   */\n    tag_54:\n        /* \"#utility.yul\":1552:1558   */\n      0x00\n        /* \"#utility.yul\":1585:1587   */\n      0x40\n        /* \"#utility.yul\":1579:1588   */\n      mload\n        /* \"#utility.yul\":1569:1588   */\n      swap1\n      pop\n        /* \"#utility.yul\":1519:1594   */\n      swap1\n      jump\t// out\n        /* \"#utility.yul\":1600:1717   */\n    tag_55:\n        /* \"#utility.yul\":1709:1710   */\n      0x00\n        /* \"#utility.yul\":1706:1707   */\n      dup1\n        /* \"#utility.yul\":1699:1711   */\n      revert\n        /* \"#utility.yul\":1723:1840   */\n    tag_56:\n        /* \"#utility.yul\":1832:1833   */\n      0x00\n        /* \"#utility.yul\":1829:1830   */\n      dup1\n        /* \"#utility.yul\":1822:1834   */\n      revert\n        /* \"#utility.yul\":1846:1968   */\n    tag_57:\n        /* \"#utility.yul\":1919:1943   */\n      tag_96\n        /* \"#utility.yul\":1937:1942   */\n      dup2\n        /* \"#utility.yul\":1919:1943   */\n      tag_50\n      jump\t// in\n    tag_96:\n        /* \"#utility.yul\":1912:1917   */\n      dup2\n        /* \"#utility.yul\":1909:1944   */\n      eq\n        /* \"#utility.yul\":1899:1962   */\n      tag_97\n      jumpi\n        /* \"#utility.yul\":1958:1959   */\n      0x00\n        /* \"#utility.yul\":1955:1956   */\n      dup1\n        /* \"#utility.yul\":1948:1960   */\n      revert\n        /* \"#utility.yul\":1899:1962   */\n    tag_97:\n        /* \"#utility.yul\":1846:1968   */\n      pop\n      jump\t// out\n        /* \"#utility.yul\":1974:2113   */\n    tag_58:\n        /* \"#utility.yul\":2020:2025   */\n      0x00\n        /* \"#utility.yul\":2058:2064   */\n      dup2\n        /* \"#utility.yul\":2045:2065   */\n      calldataload\n        /* \"#utility.yul\":2036:2065   */\n      swap1\n      pop\n        /* \"#utility.yul\":2074:2107   */\n      tag_99\n        /* \"#utility.yul\":2101:2106   */\n      dup2\n        /* \"#utility.yul\":2074:2107   */\n      tag_57\n      jump\t// in\n    tag_99:\n        /* \"#utility.yul\":1974:2113   */\n      swap3\n      swap2\n      pop\n      pop\n      jump\t// out\n        /* \"#utility.yul\":2119:2448   */\n    tag_24:\n        /* \"#utility.yul\":2178:2184   */\n      0x00\n        /* \"#utility.yul\":2227:2229   */\n      0x20\n        /* \"#utility.yul\":2215:2224   */\n      dup3\n        /* \"#utility.yul\":2206:2213   */\n      dup5\n        /* \"#utility.yul\":2202:2225   */\n      sub\n        /* \"#utility.yul\":2198:2230   */\n      slt\n        /* \"#utility.yul\":2195:2314   */\n      iszero\n      tag_101\n      jumpi\n        /* \"#utility.yul\":2233:2312   */\n      tag_102\n      tag_55\n      jump\t// in\n    tag_102:\n        /* \"#utility.yul\":2195:2314   */\n    tag_101:\n        /* \"#utility.yul\":2353:2354   */\n      0x00\n        /* \"#utility.yul\":2378:2431   */\n      tag_103\n        /* \"#utility.yul\":2423:2430   */\n      dup5\n        /* \"#utility.yul\":2414:2420   */\n      dup3\n        /* \"#utility.yul\":2403:2412   */\n      dup6\n        /* \"#utility.yul\":2399:2421   */\n      add\n        /* \"#utility.yul\":2378:2431   */\n      tag_58\n      jump\t// in\n    tag_103:\n        /* \"#utility.yul\":2368:2431   */\n      swap2\n      pop\n        /* \"#utility.yul\":2324:2441   */\n      pop\n        /* \"#utility.yul\":2119:2448   */\n      swap3\n      swap2\n      pop\n      pop\n      jump\t// out\n        /* \"#utility.yul\":2454:2676   */\n    tag_27:\n        /* \"#utility.yul\":2547:2551   */\n      0x00\n        /* \"#utility.yul\":2585:2587   */\n      0x20\n        /* \"#utility.yul\":2574:2583   */\n      dup3\n        /* \"#utility.yul\":2570:2588   */\n      add\n        /* \"#utility.yul\":2562:2588   */\n      swap1\n      pop\n        /* \"#utility.yul\":2598:2669   */\n      tag_105\n        /* \"#utility.yul\":2666:2667   */\n      0x00\n        /* \"#utility.yul\":2655:2664   */\n      dup4\n        /* \"#utility.yul\":2651:2668   */\n      add\n        /* \"#utility.yul\":2642:2648   */\n      dup5\n        /* \"#utility.yul\":2598:2669   */\n      tag_51\n      jump\t// in\n    tag_105:\n        /* \"#utility.yul\":2454:2676   */\n      swap3\n      swap2\n      pop\n      pop\n      jump\t// out\n        /* \"#utility.yul\":2682:2799   */\n    tag_59:\n        /* \"#utility.yul\":2791:2792   */\n      0x00\n        /* \"#utility.yul\":2788:2789   */\n      dup1\n        /* \"#utility.yul\":2781:2793   */\n      revert\n        /* \"#utility.yul\":2805:2907   */\n    tag_60:\n        /* \"#utility.yul\":2846:2852   */\n      0x00\n        /* \"#utility.yul\":2897:2899   */\n      0x1f\n        /* \"#utility.yul\":2893:2900   */\n      not\n        /* \"#utility.yul\":2888:2890   */\n      0x1f\n        /* \"#utility.yul\":2881:2886   */\n      dup4\n        /* \"#utility.yul\":2877:2891   */\n      add\n        /* \"#utility.yul\":2873:2901   */\n      and\n        /* \"#utility.yul\":2863:2901   */\n      swap1\n      pop\n        /* \"#utility.yul\":2805:2907   */\n      swap2\n      swap1\n      pop\n      jump\t// out\n        /* \"#utility.yul\":2913:3093   */\n    tag_61:\n        /* \"#utility.yul\":2961:3038   */\n      0x4e487b7100000000000000000000000000000000000000000000000000000000\n        /* \"#utility.yul\":2958:2959   */\n      0x00\n        /* \"#utility.yul\":2951:3039   */\n      mstore\n        /* \"#utility.yul\":3058:3062   */\n      0x41\n        /* \"#utility.yul\":3055:3056   */\n      0x04\n        /* \"#utility.yul\":3048:3063   */\n      mstore\n        /* \"#utility.yul\":3082:3086   */\n      0x24\n        /* \"#utility.yul\":3079:3080   */\n      0x00\n        /* \"#utility.yul\":3072:3087   */\n      revert\n        /* \"#utility.yul\":3099:3380   */\n    tag_62:\n        /* \"#utility.yul\":3182:3209   */\n      tag_110\n        /* \"#utility.yul\":3204:3208   */\n      dup3\n        /* \"#utility.yul\":3182:3209   */\n      tag_60\n      jump\t// in\n    tag_110:\n        /* \"#utility.yul\":3174:3180   */\n      dup2\n        /* \"#utility.yul\":3170:3210   */\n      add\n        /* \"#utility.yul\":3312:3318   */\n      dup2\n        /* \"#utility.yul\":3300:3310   */\n      dup2\n        /* \"#utility.yul\":3297:3319   */\n      lt\n        /* \"#utility.yul\":3276:3294   */\n      0xffffffffffffffff\n        /* \"#utility.yul\":3264:3274   */\n      dup3\n        /* \"#utility.yul\":3261:3295   */\n      gt\n        /* \"#utility.yul\":3258:3320   */\n      or\n        /* \"#utility.yul\":3255:3343   */\n      iszero\n      tag_111\n      jumpi\n        /* \"#utility.yul\":3323:3341   */\n      tag_112\n      tag_61\n      jump\t// in\n    tag_112:\n        /* \"#utility.yul\":3255:3343   */\n    tag_111:\n        /* \"#utility.yul\":3363:3373   */\n      dup1\n        /* \"#utility.yul\":3359:3361   */\n      0x40\n        /* \"#utility.yul\":3352:3374   */\n      mstore\n        /* \"#utility.yul\":3142:3380   */\n      pop\n        /* \"#utility.yul\":3099:3380   */\n      pop\n      pop\n      jump\t// out\n        /* \"#utility.yul\":3386:3515   */\n    tag_63:\n        /* \"#utility.yul\":3420:3426   */\n      0x00\n        /* \"#utility.yul\":3447:3467   */\n      tag_114\n      tag_54\n      jump\t// in\n    tag_114:\n        /* \"#utility.yul\":3437:3467   */\n      swap1\n      pop\n        /* \"#utility.yul\":3476:3509   */\n      tag_115\n        /* \"#utility.yul\":3504:3508   */\n      dup3\n        /* \"#utility.yul\":3496:3502   */\n      dup3\n        /* \"#utility.yul\":3476:3509   */\n      tag_62\n      jump\t// in\n    tag_115:\n        /* \"#utility.yul\":3386:3515   */\n      swap2\n      swap1\n      pop\n      jump\t// out\n        /* \"#utility.yul\":3521:3832   */\n    tag_64:\n        /* \"#utility.yul\":3598:3602   */\n      0x00\n        /* \"#utility.yul\":3688:3706   */\n      0xffffffffffffffff\n        /* \"#utility.yul\":3680:3686   */\n      dup3\n        /* \"#utility.yul\":3677:3707   */\n      gt\n        /* \"#utility.yul\":3674:3730   */\n      iszero\n      tag_117\n      jumpi\n        /* \"#utility.yul\":3710:3728   */\n      tag_118\n      tag_61\n      jump\t// in\n    tag_118:\n        /* \"#utility.yul\":3674:3730   */\n    tag_117:\n        /* \"#utility.yul\":3760:3764   */\n      0x20\n        /* \"#utility.yul\":3752:3758   */\n      dup3\n        /* \"#utility.yul\":3748:3765   */\n      mul\n        /* \"#utility.yul\":3740:3765   */\n      swap1\n      pop\n        /* \"#utility.yul\":3820:3824   */\n      0x20\n        /* \"#utility.yul\":3814:3818   */\n      dup2\n        /* \"#utility.yul\":3810:3825   */\n      add\n        /* \"#utility.yul\":3802:3825   */\n      swap1\n      pop\n        /* \"#utility.yul\":3521:3832   */\n      swap2\n      swap1\n      pop\n      jump\t// out\n        /* \"#utility.yul\":3838:3955   */\n    tag_65:\n        /* \"#utility.yul\":3947:3948   */\n      0x00\n        /* \"#utility.yul\":3944:3945   */\n      dup1\n        /* \"#utility.yul\":3937:3949   */\n      revert\n        /* \"#utility.yul\":3978:4688   */\n    tag_66:\n        /* \"#utility.yul\":4074:4079   */\n      0x00\n        /* \"#utility.yul\":4099:4180   */\n      tag_121\n        /* \"#utility.yul\":4115:4179   */\n      tag_122\n        /* \"#utility.yul\":4172:4178   */\n      dup5\n        /* \"#utility.yul\":4115:4179   */\n      tag_64\n      jump\t// in\n    tag_122:\n        /* \"#utility.yul\":4099:4180   */\n      tag_63\n      jump\t// in\n    tag_121:\n        /* \"#utility.yul\":4090:4180   */\n      swap1\n      pop\n        /* \"#utility.yul\":4200:4205   */\n      dup1\n        /* \"#utility.yul\":4229:4235   */\n      dup4\n        /* \"#utility.yul\":4222:4227   */\n      dup3\n        /* \"#utility.yul\":4215:4236   */\n      mstore\n        /* \"#utility.yul\":4263:4267   */\n      0x20\n        /* \"#utility.yul\":4256:4261   */\n      dup3\n        /* \"#utility.yul\":4252:4268   */\n      add\n        /* \"#utility.yul\":4245:4268   */\n      swap1\n      pop\n        /* \"#utility.yul\":4316:4320   */\n      0x20\n        /* \"#utility.yul\":4308:4314   */\n      dup5\n        /* \"#utility.yul\":4304:4321   */\n      mul\n        /* \"#utility.yul\":4296:4302   */\n      dup4\n        /* \"#utility.yul\":4292:4322   */\n      add\n        /* \"#utility.yul\":4345:4348   */\n      dup6\n        /* \"#utility.yul\":4337:4343   */\n      dup2\n        /* \"#utility.yul\":4334:4349   */\n      gt\n        /* \"#utility.yul\":4331:4453   */\n      iszero\n      tag_123\n      jumpi\n        /* \"#utility.yul\":4364:4443   */\n      tag_124\n      tag_65\n      jump\t// in\n    tag_124:\n        /* \"#utility.yul\":4331:4453   */\n    tag_123:\n        /* \"#utility.yul\":4479:4485   */\n      dup4\n        /* \"#utility.yul\":4462:4682   */\n    tag_125:\n        /* \"#utility.yul\":4496:4502   */\n      dup2\n        /* \"#utility.yul\":4491:4494   */\n      dup2\n        /* \"#utility.yul\":4488:4503   */\n      lt\n        /* \"#utility.yul\":4462:4682   */\n      iszero\n      tag_127\n      jumpi\n        /* \"#utility.yul\":4571:4574   */\n      dup1\n        /* \"#utility.yul\":4600:4637   */\n      tag_128\n        /* \"#utility.yul\":4633:4636   */\n      dup9\n        /* \"#utility.yul\":4621:4631   */\n      dup3\n        /* \"#utility.yul\":4600:4637   */\n      tag_58\n      jump\t// in\n    tag_128:\n        /* \"#utility.yul\":4595:4598   */\n      dup5\n        /* \"#utility.yul\":4588:4638   */\n      mstore\n        /* \"#utility.yul\":4667:4671   */\n      0x20\n        /* \"#utility.yul\":4662:4665   */\n      dup5\n        /* \"#utility.yul\":4658:4672   */\n      add\n        /* \"#utility.yul\":4651:4672   */\n      swap4\n      pop\n        /* \"#utility.yul\":4538:4682   */\n      pop\n        /* \"#utility.yul\":4522:4526   */\n      0x20\n        /* \"#utility.yul\":4517:4520   */\n      dup2\n        /* \"#utility.yul\":4513:4527   */\n      add\n        /* \"#utility.yul\":4506:4527   */\n      swap1\n      pop\n        /* \"#utility.yul\":4462:4682   */\n      jump(tag_125)\n    tag_127:\n        /* \"#utility.yul\":4466:4487   */\n      pop\n        /* \"#utility.yul\":4080:4688   */\n      pop\n      pop\n        /* \"#utility.yul\":3978:4688   */\n      swap4\n      swap3\n      pop\n      pop\n      pop\n      jump\t// out\n        /* \"#utility.yul\":4711:5081   */\n    tag_67:\n        /* \"#utility.yul\":4782:4787   */\n      0x00\n        /* \"#utility.yul\":4831:4834   */\n      dup3\n        /* \"#utility.yul\":4824:4828   */\n      0x1f\n        /* \"#utility.yul\":4816:4822   */\n      dup4\n        /* \"#utility.yul\":4812:4829   */\n      add\n        /* \"#utility.yul\":4808:4835   */\n      slt\n        /* \"#utility.yul\":4798:4920   */\n      tag_130\n      jumpi\n        /* \"#utility.yul\":4839:4918   */\n      tag_131\n      tag_59\n      jump\t// in\n    tag_131:\n        /* \"#utility.yul\":4798:4920   */\n    tag_130:\n        /* \"#utility.yul\":4956:4962   */\n      dup2\n        /* \"#utility.yul\":4943:4963   */\n      calldataload\n        /* \"#utility.yul\":4981:5075   */\n      tag_132\n        /* \"#utility.yul\":5071:5074   */\n      dup5\n        /* \"#utility.yul\":5063:5069   */\n      dup3\n        /* \"#utility.yul\":5056:5060   */\n      0x20\n        /* \"#utility.yul\":5048:5054   */\n      dup7\n        /* \"#utility.yul\":5044:5061   */\n      add\n        /* \"#utility.yul\":4981:5075   */\n      tag_66\n      jump\t// in\n    tag_132:\n        /* \"#utility.yul\":4972:5075   */\n      swap2\n      pop\n        /* \"#utility.yul\":4788:5081   */\n      pop\n        /* \"#utility.yul\":4711:5081   */\n      swap3\n      swap2\n      pop\n      pop\n      jump\t// out\n        /* \"#utility.yul\":5087:5626   */\n    tag_33:\n        /* \"#utility.yul\":5171:5177   */\n      0x00\n        /* \"#utility.yul\":5220:5222   */\n      0x20\n        /* \"#utility.yul\":5208:5217   */\n      dup3\n        /* \"#utility.yul\":5199:5206   */\n      dup5\n        /* \"#utility.yul\":5195:5218   */\n      sub\n        /* \"#utility.yul\":5191:5223   */\n      slt\n        /* \"#utility.yul\":5188:5307   */\n      iszero\n      tag_134\n      jumpi\n        /* \"#utility.yul\":5226:5305   */\n      tag_135\n      tag_55\n      jump\t// in\n    tag_135:\n        /* \"#utility.yul\":5188:5307   */\n    tag_134:\n        /* \"#utility.yul\":5374:5375   */\n      0x00\n        /* \"#utility.yul\":5363:5372   */\n      dup3\n        /* \"#utility.yul\":5359:5376   */\n      add\n        /* \"#utility.yul\":5346:5377   */\n      calldataload\n        /* \"#utility.yul\":5404:5422   */\n      0xffffffffffffffff\n        /* \"#utility.yul\":5396:5402   */\n      dup2\n        /* \"#utility.yul\":5393:5423   */\n      gt\n        /* \"#utility.yul\":5390:5507   */\n      iszero\n      tag_136\n      jumpi\n        /* \"#utility.yul\":5426:5505   */\n      tag_137\n      tag_56\n      jump\t// in\n    tag_137:\n        /* \"#utility.yul\":5390:5507   */\n    tag_136:\n        /* \"#utility.yul\":5531:5609   */\n      tag_138\n        /* \"#utility.yul\":5601:5608   */\n      dup5\n        /* \"#utility.yul\":5592:5598   */\n      dup3\n        /* \"#utility.yul\":5581:5590   */\n      dup6\n        /* \"#utility.yul\":5577:5599   */\n      add\n        /* \"#utility.yul\":5531:5609   */\n      tag_67\n      jump\t// in\n    tag_138:\n        /* \"#utility.yul\":5521:5609   */\n      swap2\n      pop\n        /* \"#utility.yul\":5317:5619   */\n      pop\n        /* \"#utility.yul\":5087:5626   */\n      swap3\n      swap2\n      pop\n      pop\n      jump\t// out\n        /* \"#utility.yul\":5632:5746   */\n    tag_68:\n        /* \"#utility.yul\":5699:5705   */\n      0x00\n        /* \"#utility.yul\":5733:5738   */\n      dup2\n        /* \"#utility.yul\":5727:5739   */\n      mload\n        /* \"#utility.yul\":5717:5739   */\n      swap1\n      pop\n        /* \"#utility.yul\":5632:5746   */\n      swap2\n      swap1\n      pop\n      jump\t// out\n        /* \"#utility.yul\":5752:5936   */\n    tag_69:\n        /* \"#utility.yul\":5851:5862   */\n      0x00\n        /* \"#utility.yul\":5885:5891   */\n      dup3\n        /* \"#utility.yul\":5880:5883   */\n      dup3\n        /* \"#utility.yul\":5873:5892   */\n      mstore\n        /* \"#utility.yul\":5925:5929   */\n      0x20\n        /* \"#utility.yul\":5920:5923   */\n      dup3\n        /* \"#utility.yul\":5916:5930   */\n      add\n        /* \"#utility.yul\":5901:5930   */\n      swap1\n      pop\n        /* \"#utility.yul\":5752:5936   */\n      swap3\n      swap2\n      pop\n      pop\n      jump\t// out\n        /* \"#utility.yul\":5942:6074   */\n    tag_70:\n        /* \"#utility.yul\":6009:6013   */\n      0x00\n        /* \"#utility.yul\":6032:6035   */\n      dup2\n        /* \"#utility.yul\":6024:6035   */\n      swap1\n      pop\n        /* \"#utility.yul\":6062:6066   */\n      0x20\n        /* \"#utility.yul\":6057:6060   */\n      dup3\n        /* \"#utility.yul\":6053:6067   */\n      add\n        /* \"#utility.yul\":6045:6067   */\n      swap1\n      pop\n        /* \"#utility.yul\":5942:6074   */\n      swap2\n      swap1\n      pop\n      jump\t// out\n        /* \"#utility.yul\":6080:6188   */\n    tag_71:\n        /* \"#utility.yul\":6157:6181   */\n      tag_143\n        /* \"#utility.yul\":6175:6180   */\n      dup2\n        /* \"#utility.yul\":6157:6181   */\n      tag_50\n      jump\t// in\n    tag_143:\n        /* \"#utility.yul\":6152:6155   */\n      dup3\n        /* \"#utility.yul\":6145:6182   */\n      mstore\n        /* \"#utility.yul\":6080:6188   */\n      pop\n      pop\n      jump\t// out\n        /* \"#utility.yul\":6194:6373   */\n    tag_72:\n        /* \"#utility.yul\":6263:6273   */\n      0x00\n        /* \"#utility.yul\":6284:6330   */\n      tag_145\n        /* \"#utility.yul\":6326:6329   */\n      dup4\n        /* \"#utility.yul\":6318:6324   */\n      dup4\n        /* \"#utility.yul\":6284:6330   */\n      tag_71\n      jump\t// in\n    tag_145:\n        /* \"#utility.yul\":6362:6366   */\n      0x20\n        /* \"#utility.yul\":6357:6360   */\n      dup4\n        /* \"#utility.yul\":6353:6367   */\n      add\n        /* \"#utility.yul\":6339:6367   */\n      swap1\n      pop\n        /* \"#utility.yul\":6194:6373   */\n      swap3\n      swap2\n      pop\n      pop\n      jump\t// out\n        /* \"#utility.yul\":6379:6492   */\n    tag_73:\n        /* \"#utility.yul\":6449:6453   */\n      0x00\n        /* \"#utility.yul\":6481:6485   */\n      0x20\n        /* \"#utility.yul\":6476:6479   */\n      dup3\n        /* \"#utility.yul\":6472:6486   */\n      add\n        /* \"#utility.yul\":6464:6486   */\n      swap1\n      pop\n        /* \"#utility.yul\":6379:6492   */\n      swap2\n      swap1\n      pop\n      jump\t// out\n        /* \"#utility.yul\":6528:7260   */\n    tag_74:\n        /* \"#utility.yul\":6647:6650   */\n      0x00\n        /* \"#utility.yul\":6676:6730   */\n      tag_148\n        /* \"#utility.yul\":6724:6729   */\n      dup3\n        /* \"#utility.yul\":6676:6730   */\n      tag_68\n      jump\t// in\n    tag_148:\n        /* \"#utility.yul\":6746:6832   */\n      tag_149\n        /* \"#utility.yul\":6825:6831   */\n      dup2\n        /* \"#utility.yul\":6820:6823   */\n      dup6\n        /* \"#utility.yul\":6746:6832   */\n      tag_69\n      jump\t// in\n    tag_149:\n        /* \"#utility.yul\":6739:6832   */\n      swap4\n      pop\n        /* \"#utility.yul\":6856:6912   */\n      tag_150\n        /* \"#utility.yul\":6906:6911   */\n      dup4\n        /* \"#utility.yul\":6856:6912   */\n      tag_70\n      jump\t// in\n    tag_150:\n        /* \"#utility.yul\":6935:6942   */\n      dup1\n        /* \"#utility.yul\":6966:6967   */\n      0x00\n        /* \"#utility.yul\":6951:7235   */\n    tag_151:\n        /* \"#utility.yul\":6976:6982   */\n      dup4\n        /* \"#utility.yul\":6973:6974   */\n      dup2\n        /* \"#utility.yul\":6970:6983   */\n      lt\n        /* \"#utility.yul\":6951:7235   */\n      iszero\n      tag_153\n      jumpi\n        /* \"#utility.yul\":7052:7058   */\n      dup2\n        /* \"#utility.yul\":7046:7059   */\n      mload\n        /* \"#utility.yul\":7079:7142   */\n      tag_154\n        /* \"#utility.yul\":7138:7141   */\n      dup9\n        /* \"#utility.yul\":7123:7136   */\n      dup3\n        /* \"#utility.yul\":7079:7142   */\n      tag_72\n      jump\t// in\n    tag_154:\n        /* \"#utility.yul\":7072:7142   */\n      swap8\n      pop\n        /* \"#utility.yul\":7165:7225   */\n      tag_155\n        /* \"#utility.yul\":7218:7224   */\n      dup4\n        /* \"#utility.yul\":7165:7225   */\n      tag_73\n      jump\t// in\n    tag_155:\n        /* \"#utility.yul\":7155:7225   */\n      swap3\n      pop\n        /* \"#utility.yul\":7011:7235   */\n      pop\n        /* \"#utility.yul\":6998:6999   */\n      0x01\n        /* \"#utility.yul\":6995:6996   */\n      dup2\n        /* \"#utility.yul\":6991:7000   */\n      add\n        /* \"#utility.yul\":6986:7000   */\n      swap1\n      pop\n        /* \"#utility.yul\":6951:7235   */\n      jump(tag_151)\n    tag_153:\n        /* \"#utility.yul\":6955:6969   */\n      pop\n        /* \"#utility.yul\":7251:7254   */\n      dup6\n        /* \"#utility.yul\":7244:7254   */\n      swap4\n      pop\n        /* \"#utility.yul\":6652:7260   */\n      pop\n      pop\n      pop\n        /* \"#utility.yul\":6528:7260   */\n      swap3\n      swap2\n      pop\n      pop\n      jump\t// out\n        /* \"#utility.yul\":7266:7639   */\n    tag_38:\n        /* \"#utility.yul\":7409:7413   */\n      0x00\n        /* \"#utility.yul\":7447:7449   */\n      0x20\n        /* \"#utility.yul\":7436:7445   */\n      dup3\n        /* \"#utility.yul\":7432:7450   */\n      add\n        /* \"#utility.yul\":7424:7450   */\n      swap1\n      pop\n        /* \"#utility.yul\":7496:7505   */\n      dup2\n        /* \"#utility.yul\":7490:7494   */\n      dup2\n        /* \"#utility.yul\":7486:7506   */\n      sub\n        /* \"#utility.yul\":7482:7483   */\n      0x00\n        /* \"#utility.yul\":7471:7480   */\n      dup4\n        /* \"#utility.yul\":7467:7484   */\n      add\n        /* \"#utility.yul\":7460:7507   */\n      mstore\n        /* \"#utility.yul\":7524:7632   */\n      tag_157\n        /* \"#utility.yul\":7627:7631   */\n      dup2\n        /* \"#utility.yul\":7618:7624   */\n      dup5\n        /* \"#utility.yul\":7524:7632   */\n      tag_74\n      jump\t// in\n    tag_157:\n        /* \"#utility.yul\":7516:7632   */\n      swap1\n      pop\n        /* \"#utility.yul\":7266:7639   */\n      swap3\n      swap2\n      pop\n      pop\n      jump\t// out\n\n    auxdata: 0xa2646970667358221220aff051db81d26a1640c5fa386ca02381f7657a0b35e9c360848b968e0381a88964736f6c63430008160033\n}\n",
				"bytecode": {
					"linkReferences": {},
					"object": "608060405234801561000f575f80fd5b506106358061001d5f395ff3fe608060405234801561000f575f80fd5b506004361061007b575f3560e01c806371e5ee5f1161005957806371e5ee5f146100e15780638688754414610111578063a01e446c14610131578063b2ce40c01461014d5761007b565b8063200a020d1461007f57806345f907a81461009f5780634e0a6f2a146100bf575b5f80fd5b61008761016b565b6040516100969392919061028c565b60405180910390f35b6100a761017f565b6040516100b69392919061028c565b60405180910390f35b6100c7610192565b6040516100d89594939291906102c1565b60405180910390f35b6100fb60048036038101906100f6919061034d565b6101d0565b6040516101089190610378565b60405180910390f35b6101196101ef565b6040516101289392919061028c565b60405180910390f35b61014b600480360381019061014691906104e1565b610202565b005b610155610205565b60405161016291906105df565b60405180910390f35b5f805f600192506001915060029050909192565b5f805f6001806002925092509250909192565b5f805f805f805f806101a26101ef565b9250925092505f80600460056006925050915084848484849950995099509950995050505050509091929394565b5f81815481106101de575f80fd5b905f5260205f20015f915090505481565b5f805f6001806002925092509250909192565b50565b60605f80548060200260200160405190810160405280929190818152602001828054801561025057602002820191905f5260205f20905b81548152602001906001019080831161023c575b5050505050905090565b5f819050919050565b61026c8161025a565b82525050565b5f8115159050919050565b61028681610272565b82525050565b5f60608201905061029f5f830186610263565b6102ac602083018561027d565b6102b96040830184610263565b949350505050565b5f60a0820190506102d45f830188610263565b6102e1602083018761027d565b6102ee6040830186610263565b6102fb6060830185610263565b6103086080830184610263565b9695505050505050565b5f604051905090565b5f80fd5b5f80fd5b61032c8161025a565b8114610336575f80fd5b50565b5f8135905061034781610323565b92915050565b5f602082840312156103625761036161031b565b5b5f61036f84828501610339565b91505092915050565b5f60208201905061038b5f830184610263565b92915050565b5f80fd5b5f601f19601f8301169050919050565b7f4e487b71000000000000000000000000000000000000000000000000000000005f52604160045260245ffd5b6103db82610395565b810181811067ffffffffffffffff821117156103fa576103f96103a5565b5b80604052505050565b5f61040c610312565b905061041882826103d2565b919050565b5f67ffffffffffffffff821115610437576104366103a5565b5b602082029050602081019050919050565b5f80fd5b5f61045e6104598461041d565b610403565b9050808382526020820190506020840283018581111561048157610480610448565b5b835b818110156104aa57806104968882610339565b845260208401935050602081019050610483565b5050509392505050565b5f82601f8301126104c8576104c7610391565b5b81356104d884826020860161044c565b91505092915050565b5f602082840312156104f6576104f561031b565b5b5f82013567ffffffffffffffff8111156105135761051261031f565b5b61051f848285016104b4565b91505092915050565b5f81519050919050565b5f82825260208201905092915050565b5f819050602082019050919050565b61055a8161025a565b82525050565b5f61056b8383610551565b60208301905092915050565b5f602082019050919050565b5f61058d82610528565b6105978185610532565b93506105a283610542565b805f5b838110156105d25781516105b98882610560565b97506105c483610577565b9250506001810190506105a5565b5085935050505092915050565b5f6020820190508181035f8301526105f78184610583565b90509291505056fea2646970667358221220aff051db81d26a1640c5fa386ca02381f7657a0b35e9c360848b968e0381a88964736f6c63430008160033",
					"opcodes": "PUSH1 0x80 PUSH1 0x40 MSTORE CALLVALUE DUP1 ISZERO PUSH2 0xF JUMPI PUSH0 DUP1 REVERT JUMPDEST POP PUSH2 0x635 DUP1 PUSH2 0x1D PUSH0 CODECOPY PUSH0 RETURN INVALID PUSH1 0x80 PUSH1 0x40 MSTORE CALLVALUE DUP1 ISZERO PUSH2 0xF JUMPI PUSH0 DUP1 REVERT JUMPDEST POP PUSH1 0x4 CALLDATASIZE LT PUSH2 0x7B JUMPI PUSH0 CALLDATALOAD PUSH1 0xE0 SHR DUP1 PUSH4 0x71E5EE5F GT PUSH2 0x59 JUMPI DUP1 PUSH4 0x71E5EE5F EQ PUSH2 0xE1 JUMPI DUP1 PUSH4 0x86887544 EQ PUSH2 0x111 JUMPI DUP1 PUSH4 0xA01E446C EQ PUSH2 0x131 JUMPI DUP1 PUSH4 0xB2CE40C0 EQ PUSH2 0x14D JUMPI PUSH2 0x7B JUMP JUMPDEST DUP1 PUSH4 0x200A020D EQ PUSH2 0x7F JUMPI DUP1 PUSH4 0x45F907A8 EQ PUSH2 0x9F JUMPI DUP1 PUSH4 0x4E0A6F2A EQ PUSH2 0xBF JUMPI JUMPDEST PUSH0 DUP1 REVERT JUMPDEST PUSH2 0x87 PUSH2 0x16B JUMP JUMPDEST PUSH1 0x40 MLOAD PUSH2 0x96 SWAP4 SWAP3 SWAP2 SWAP1 PUSH2 0x28C JUMP JUMPDEST PUSH1 0x40 MLOAD DUP1 SWAP2 SUB SWAP1 RETURN JUMPDEST PUSH2 0xA7 PUSH2 0x17F JUMP JUMPDEST PUSH1 0x40 MLOAD PUSH2 0xB6 SWAP4 SWAP3 SWAP2 SWAP1 PUSH2 0x28C JUMP JUMPDEST PUSH1 0x40 MLOAD DUP1 SWAP2 SUB SWAP1 RETURN JUMPDEST PUSH2 0xC7 PUSH2 0x192 JUMP JUMPDEST PUSH1 0x40 MLOAD PUSH2 0xD8 SWAP6 SWAP5 SWAP4 SWAP3 SWAP2 SWAP1 PUSH2 0x2C1 JUMP JUMPDEST PUSH1 0x40 MLOAD DUP1 SWAP2 SUB SWAP1 RETURN JUMPDEST PUSH2 0xFB PUSH1 0x4 DUP1 CALLDATASIZE SUB DUP2 ADD SWAP1 PUSH2 0xF6 SWAP2 SWAP1 PUSH2 0x34D JUMP JUMPDEST PUSH2 0x1D0 JUMP JUMPDEST PUSH1 0x40 MLOAD PUSH2 0x108 SWAP2 SWAP1 PUSH2 0x378 JUMP JUMPDEST PUSH1 0x40 MLOAD DUP1 SWAP2 SUB SWAP1 RETURN JUMPDEST PUSH2 0x119 PUSH2 0x1EF JUMP JUMPDEST PUSH1 0x40 MLOAD PUSH2 0x128 SWAP4 SWAP3 SWAP2 SWAP1 PUSH2 0x28C JUMP JUMPDEST PUSH1 0x40 MLOAD DUP1 SWAP2 SUB SWAP1 RETURN JUMPDEST PUSH2 0x14B PUSH1 0x4 DUP1 CALLDATASIZE SUB DUP2 ADD SWAP1 PUSH2 0x146 SWAP2 SWAP1 PUSH2 0x4E1 JUMP JUMPDEST PUSH2 0x202 JUMP JUMPDEST STOP JUMPDEST PUSH2 0x155 PUSH2 0x205 JUMP JUMPDEST PUSH1 0x40 MLOAD PUSH2 0x162 SWAP2 SWAP1 PUSH2 0x5DF JUMP JUMPDEST PUSH1 0x40 MLOAD DUP1 SWAP2 SUB SWAP1 RETURN JUMPDEST PUSH0 DUP1 PUSH0 PUSH1 0x1 SWAP3 POP PUSH1 0x1 SWAP2 POP PUSH1 0x2 SWAP1 POP SWAP1 SWAP2 SWAP3 JUMP JUMPDEST PUSH0 DUP1 PUSH0 PUSH1 0x1 DUP1 PUSH1 0x2 SWAP3 POP SWAP3 POP SWAP3 POP SWAP1 SWAP2 SWAP3 JUMP JUMPDEST PUSH0 DUP1 PUSH0 DUP1 PUSH0 DUP1 PUSH0 DUP1 PUSH2 0x1A2 PUSH2 0x1EF JUMP JUMPDEST SWAP3 POP SWAP3 POP SWAP3 POP PUSH0 DUP1 PUSH1 0x4 PUSH1 0x5 PUSH1 0x6 SWAP3 POP POP SWAP2 POP DUP5 DUP5 DUP5 DUP5 DUP5 SWAP10 POP SWAP10 POP SWAP10 POP SWAP10 POP SWAP10 POP POP POP POP POP POP SWAP1 SWAP2 SWAP3 SWAP4 SWAP5 JUMP JUMPDEST PUSH0 DUP2 DUP2 SLOAD DUP2 LT PUSH2 0x1DE JUMPI PUSH0 DUP1 REVERT JUMPDEST SWAP1 PUSH0 MSTORE PUSH1 0x20 PUSH0 KECCAK256 ADD PUSH0 SWAP2 POP SWAP1 POP SLOAD DUP2 JUMP JUMPDEST PUSH0 DUP1 PUSH0 PUSH1 0x1 DUP1 PUSH1 0x2 SWAP3 POP SWAP3 POP SWAP3 POP SWAP1 SWAP2 SWAP3 JUMP JUMPDEST POP JUMP JUMPDEST PUSH1 0x60 PUSH0 DUP1 SLOAD DUP1 PUSH1 0x20 MUL PUSH1 0x20 ADD PUSH1 0x40 MLOAD SWAP1 DUP2 ADD PUSH1 0x40 MSTORE DUP1 SWAP3 SWAP2 SWAP1 DUP2 DUP2 MSTORE PUSH1 0x20 ADD DUP3 DUP1 SLOAD DUP1 ISZERO PUSH2 0x250 JUMPI PUSH1 0x20 MUL DUP3 ADD SWAP2 SWAP1 PUSH0 MSTORE PUSH1 0x20 PUSH0 KECCAK256 SWAP1 JUMPDEST DUP2 SLOAD DUP2 MSTORE PUSH1 0x20 ADD SWAP1 PUSH1 0x1 ADD SWAP1 DUP1 DUP4 GT PUSH2 0x23C JUMPI JUMPDEST POP POP POP POP POP SWAP1 POP SWAP1 JUMP JUMPDEST PUSH0 DUP2 SWAP1 POP SWAP2 SWAP1 POP JUMP JUMPDEST PUSH2 0x26C DUP2 PUSH2 0x25A JUMP JUMPDEST DUP3 MSTORE POP POP JUMP JUMPDEST PUSH0 DUP2 ISZERO ISZERO SWAP1 POP SWAP2 SWAP1 POP JUMP JUMPDEST PUSH2 0x286 DUP2 PUSH2 0x272 JUMP JUMPDEST DUP3 MSTORE POP POP JUMP JUMPDEST PUSH0 PUSH1 0x60 DUP3 ADD SWAP1 POP PUSH2 0x29F PUSH0 DUP4 ADD DUP7 PUSH2 0x263 JUMP JUMPDEST PUSH2 0x2AC PUSH1 0x20 DUP4 ADD DUP6 PUSH2 0x27D JUMP JUMPDEST PUSH2 0x2B9 PUSH1 0x40 DUP4 ADD DUP5 PUSH2 0x263 JUMP JUMPDEST SWAP5 SWAP4 POP POP POP POP JUMP JUMPDEST PUSH0 PUSH1 0xA0 DUP3 ADD SWAP1 POP PUSH2 0x2D4 PUSH0 DUP4 ADD DUP9 PUSH2 0x263 JUMP JUMPDEST PUSH2 0x2E1 PUSH1 0x20 DUP4 ADD DUP8 PUSH2 0x27D JUMP JUMPDEST PUSH2 0x2EE PUSH1 0x40 DUP4 ADD DUP7 PUSH2 0x263 JUMP JUMPDEST PUSH2 0x2FB PUSH1 0x60 DUP4 ADD DUP6 PUSH2 0x263 JUMP JUMPDEST PUSH2 0x308 PUSH1 0x80 DUP4 ADD DUP5 PUSH2 0x263 JUMP JUMPDEST SWAP7 SWAP6 POP POP POP POP POP POP JUMP JUMPDEST PUSH0 PUSH1 0x40 MLOAD SWAP1 POP SWAP1 JUMP JUMPDEST PUSH0 DUP1 REVERT JUMPDEST PUSH0 DUP1 REVERT JUMPDEST PUSH2 0x32C DUP2 PUSH2 0x25A JUMP JUMPDEST DUP2 EQ PUSH2 0x336 JUMPI PUSH0 DUP1 REVERT JUMPDEST POP JUMP JUMPDEST PUSH0 DUP2 CALLDATALOAD SWAP1 POP PUSH2 0x347 DUP2 PUSH2 0x323 JUMP JUMPDEST SWAP3 SWAP2 POP POP JUMP JUMPDEST PUSH0 PUSH1 0x20 DUP3 DUP5 SUB SLT ISZERO PUSH2 0x362 JUMPI PUSH2 0x361 PUSH2 0x31B JUMP JUMPDEST JUMPDEST PUSH0 PUSH2 0x36F DUP5 DUP3 DUP6 ADD PUSH2 0x339 JUMP JUMPDEST SWAP2 POP POP SWAP3 SWAP2 POP POP JUMP JUMPDEST PUSH0 PUSH1 0x20 DUP3 ADD SWAP1 POP PUSH2 0x38B PUSH0 DUP4 ADD DUP5 PUSH2 0x263 JUMP JUMPDEST SWAP3 SWAP2 POP POP JUMP JUMPDEST PUSH0 DUP1 REVERT JUMPDEST PUSH0 PUSH1 0x1F NOT PUSH1 0x1F DUP4 ADD AND SWAP1 POP SWAP2 SWAP1 POP JUMP JUMPDEST PUSH32 0x4E487B7100000000000000000000000000000000000000000000000000000000 PUSH0 MSTORE PUSH1 0x41 PUSH1 0x4 MSTORE PUSH1 0x24 PUSH0 REVERT JUMPDEST PUSH2 0x3DB DUP3 PUSH2 0x395 JUMP JUMPDEST DUP2 ADD DUP2 DUP2 LT PUSH8 0xFFFFFFFFFFFFFFFF DUP3 GT OR ISZERO PUSH2 0x3FA JUMPI PUSH2 0x3F9 PUSH2 0x3A5 JUMP JUMPDEST JUMPDEST DUP1 PUSH1 0x40 MSTORE POP POP POP JUMP JUMPDEST PUSH0 PUSH2 0x40C PUSH2 0x312 JUMP JUMPDEST SWAP1 POP PUSH2 0x418 DUP3 DUP3 PUSH2 0x3D2 JUMP JUMPDEST SWAP2 SWAP1 POP JUMP JUMPDEST PUSH0 PUSH8 0xFFFFFFFFFFFFFFFF DUP3 GT ISZERO PUSH2 0x437 JUMPI PUSH2 0x436 PUSH2 0x3A5 JUMP JUMPDEST JUMPDEST PUSH1 0x20 DUP3 MUL SWAP1 POP PUSH1 0x20 DUP2 ADD SWAP1 POP SWAP2 SWAP1 POP JUMP JUMPDEST PUSH0 DUP1 REVERT JUMPDEST PUSH0 PUSH2 0x45E PUSH2 0x459 DUP5 PUSH2 0x41D JUMP JUMPDEST PUSH2 0x403 JUMP JUMPDEST SWAP1 POP DUP1 DUP4 DUP3 MSTORE PUSH1 0x20 DUP3 ADD SWAP1 POP PUSH1 0x20 DUP5 MUL DUP4 ADD DUP6 DUP2 GT ISZERO PUSH2 0x481 JUMPI PUSH2 0x480 PUSH2 0x448 JUMP JUMPDEST JUMPDEST DUP4 JUMPDEST DUP2 DUP2 LT ISZERO PUSH2 0x4AA JUMPI DUP1 PUSH2 0x496 DUP9 DUP3 PUSH2 0x339 JUMP JUMPDEST DUP5 MSTORE PUSH1 0x20 DUP5 ADD SWAP4 POP POP PUSH1 0x20 DUP2 ADD SWAP1 POP PUSH2 0x483 JUMP JUMPDEST POP POP POP SWAP4 SWAP3 POP POP POP JUMP JUMPDEST PUSH0 DUP3 PUSH1 0x1F DUP4 ADD SLT PUSH2 0x4C8 JUMPI PUSH2 0x4C7 PUSH2 0x391 JUMP JUMPDEST JUMPDEST DUP2 CALLDATALOAD PUSH2 0x4D8 DUP5 DUP3 PUSH1 0x20 DUP7 ADD PUSH2 0x44C JUMP JUMPDEST SWAP2 POP POP SWAP3 SWAP2 POP POP JUMP JUMPDEST PUSH0 PUSH1 0x20 DUP3 DUP5 SUB SLT ISZERO PUSH2 0x4F6 JUMPI PUSH2 0x4F5 PUSH2 0x31B JUMP JUMPDEST JUMPDEST PUSH0 DUP3 ADD CALLDATALOAD PUSH8 0xFFFFFFFFFFFFFFFF DUP2 GT ISZERO PUSH2 0x513 JUMPI PUSH2 0x512 PUSH2 0x31F JUMP JUMPDEST JUMPDEST PUSH2 0x51F DUP5 DUP3 DUP6 ADD PUSH2 0x4B4 JUMP JUMPDEST SWAP2 POP POP SWAP3 SWAP2 POP POP JUMP JUMPDEST PUSH0 DUP2 MLOAD SWAP1 POP SWAP2 SWAP1 POP JUMP JUMPDEST PUSH0 DUP3 DUP3 MSTORE PUSH1 0x20 DUP3 ADD SWAP1 POP SWAP3 SWAP2 POP POP JUMP JUMPDEST PUSH0 DUP2 SWAP1 POP PUSH1 0x20 DUP3 ADD SWAP1 POP SWAP2 SWAP1 POP JUMP JUMPDEST PUSH2 0x55A DUP2 PUSH2 0x25A JUMP JUMPDEST DUP3 MSTORE POP POP JUMP JUMPDEST PUSH0 PUSH2 0x56B DUP4 DUP4 PUSH2 0x551 JUMP JUMPDEST PUSH1 0x20 DUP4 ADD SWAP1 POP SWAP3 SWAP2 POP POP JUMP JUMPDEST PUSH0 PUSH1 0x20 DUP3 ADD SWAP1 POP SWAP2 SWAP1 POP JUMP JUMPDEST PUSH0 PUSH2 0x58D DUP3 PUSH2 0x528 JUMP JUMPDEST PUSH2 0x597 DUP2 DUP6 PUSH2 0x532 JUMP JUMPDEST SWAP4 POP PUSH2 0x5A2 DUP4 PUSH2 0x542 JUMP JUMPDEST DUP1 PUSH0 JUMPDEST DUP4 DUP2 LT ISZERO PUSH2 0x5D2 JUMPI DUP2 MLOAD PUSH2 0x5B9 DUP9 DUP3 PUSH2 0x560 JUMP JUMPDEST SWAP8 POP PUSH2 0x5C4 DUP4 PUSH2 0x577 JUMP JUMPDEST SWAP3 POP POP PUSH1 0x1 DUP2 ADD SWAP1 POP PUSH2 0x5A5 JUMP JUMPDEST POP DUP6 SWAP4 POP POP POP POP SWAP3 SWAP2 POP POP JUMP JUMPDEST PUSH0 PUSH1 0x20 DUP3 ADD SWAP1 POP DUP2 DUP2 SUB PUSH0 DUP4 ADD MSTORE PUSH2 0x5F7 DUP2 DUP5 PUSH2 0x583 JUMP JUMPDEST SWAP1 POP SWAP3 SWAP2 POP POP JUMP INVALID LOG2 PUSH5 0x6970667358 0x22 SLT KECCAK256 0xAF CREATE MLOAD 0xDB DUP2 0xD2 PUSH11 0x1640C5FA386CA02381F765 PUSH27 0xB35E9C360848B968E0381A88964736F6C63430008160033000000 "
				},
				"gasEstimates": {
					"creation": {
						"codeDepositCost": "317800",
						"executionCost": "353",
						"totalCost": "318153"
					},
					"external": {
						"arr(uint256)": "infinite",
						"arrayInPut(uint256[])": "infinite",
						"arrayOutPut()": "infinite",
						"assinged()": "infinite",
						"destrucingAssignments()": "infinite",
						"named()": "infinite",
						"returnMany()": "infinite"
					}
				},
				"methodIdentifiers": {
					"arr(uint256)": "71e5ee5f",
					"arrayInPut(uint256[])": "a01e446c",
					"arrayOutPut()": "b2ce40c0",
					"assinged()": "200a020d",
					"destrucingAssignments()": "4e0a6f2a",
					"named()": "45f907a8",
					"returnMany()": "86887544"
				}
			},
			"storageLayout": {
				"storage": [
					{
						"astId": 102,
						"contract": "function.sol:Function",
						"label": "arr",
						"offset": 0,
						"slot": "0",
						"type": "t_array(t_uint256)dyn_storage"
					}
				],
				"types": {
					"t_array(t_uint256)dyn_storage": {
						"base": "t_uint256",
						"encoding": "dynamic_array",
						"label": "uint256[]",
						"numberOfBytes": "32"
					},
					"t_uint256": {
						"encoding": "inplace",
						"label": "uint256",
						"numberOfBytes": "32"
					}
				}
			},
			"userdoc": {
				"kind": "user",
				"methods": {},
				"version": 1
			}
		}
	}
}