{
	"auction/auction.sol": {
		"CreateAuction": {
			"abi": [
				{
					"inputs": [
						{
							"internalType": "uint256",
							"name": "",
							"type": "uint256"
						}
					],
					"name": "auctions",
					"outputs": [
						{
							"internalType": "contract Auction",
							"name": "",
							"type": "address"
						}
					],
					"stateMutability": "view",
					"type": "function"
				},
				{
					"inputs": [],
					"name": "createAuction",
					"outputs": [],
					"stateMutability": "nonpayable",
					"type": "function"
				}
			],
			"devdoc": {
				"kind": "dev",
				"methods": {},
				"version": 1
			},
			"evm": {
				"assembly": "    /* \"auction/auction.sol\":61:252  contract CreateAuction{... */\n  mstore(0x40, 0x80)\n  callvalue\n  dup1\n  iszero\n  tag_1\n  jumpi\n  0x00\n  dup1\n  revert\ntag_1:\n  pop\n  dataSize(sub_0)\n  dup1\n  dataOffset(sub_0)\n  0x00\n  codecopy\n  0x00\n  return\nstop\n\nsub_0: assembly {\n        /* \"auction/auction.sol\":61:252  contract CreateAuction{... */\n      mstore(0x40, 0x80)\n      callvalue\n      dup1\n      iszero\n      tag_1\n      jumpi\n      0x00\n      dup1\n      revert\n    tag_1:\n      pop\n      jumpi(tag_2, lt(calldatasize, 0x04))\n      shr(0xe0, calldataload(0x00))\n      dup1\n      0x571a26a0\n      eq\n      tag_3\n      jumpi\n      dup1\n      0xf5811447\n      eq\n      tag_4\n      jumpi\n    tag_2:\n      0x00\n      dup1\n      revert\n        /* \"auction/auction.sol\":90:115  Auction[] public auctions */\n    tag_3:\n      tag_5\n      0x04\n      dup1\n      calldatasize\n      sub\n      dup2\n      add\n      swap1\n      tag_6\n      swap2\n      swap1\n      tag_7\n      jump\t// in\n    tag_6:\n      tag_8\n      jump\t// in\n    tag_5:\n      mload(0x40)\n      tag_9\n      swap2\n      swap1\n      tag_10\n      jump\t// in\n    tag_9:\n      mload(0x40)\n      dup1\n      swap2\n      sub\n      swap1\n      return\n        /* \"auction/auction.sol\":122:249  function createAuction()public{... */\n    tag_4:\n      tag_11\n      tag_12\n      jump\t// in\n    tag_11:\n      stop\n        /* \"auction/auction.sol\":90:115  Auction[] public auctions */\n    tag_8:\n      0x00\n      dup2\n      dup2\n      sload\n      dup2\n      lt\n      tag_13\n      jumpi\n      0x00\n      dup1\n      revert\n    tag_13:\n      swap1\n      0x00\n      mstore\n      keccak256(0x00, 0x20)\n      add\n      0x00\n      swap2\n      pop\n      sload\n      swap1\n      0x0100\n      exp\n      swap1\n      div\n      0xffffffffffffffffffffffffffffffffffffffff\n      and\n      dup2\n      jump\t// out\n        /* \"auction/auction.sol\":122:249  function createAuction()public{... */\n    tag_12:\n        /* \"auction/auction.sol\":163:181  Auction newAuction */\n      0x00\n        /* \"auction/auction.sol\":194:204  msg.sender */\n      caller\n        /* \"auction/auction.sol\":182:205  new Auction(msg.sender) */\n      mload(0x40)\n      tag_16\n      swap1\n      tag_17\n      jump\t// in\n    tag_16:\n      tag_18\n      swap2\n      swap1\n      tag_19\n      jump\t// in\n    tag_18:\n      mload(0x40)\n      dup1\n      swap2\n      sub\n      swap1\n      0x00\n      create\n      dup1\n      iszero\n      dup1\n      iszero\n      tag_20\n      jumpi\n      returndatasize\n      0x00\n      dup1\n      returndatacopy\n      revert(0x00, returndatasize)\n    tag_20:\n      pop\n        /* \"auction/auction.sol\":163:205  Auction newAuction=new Auction(msg.sender) */\n      swap1\n      pop\n        /* \"auction/auction.sol\":216:224  auctions */\n      0x00\n        /* \"auction/auction.sol\":230:240  newAuction */\n      dup2\n        /* \"auction/auction.sol\":216:241  auctions.push(newAuction) */\n      swap1\n      dup1\n      0x01\n      dup2\n      sload\n      add\n      dup1\n      dup3\n      sstore\n      dup1\n      swap2\n      pop\n      pop\n      0x01\n      swap1\n      sub\n      swap1\n      0x00\n      mstore\n      keccak256(0x00, 0x20)\n      add\n      0x00\n      swap1\n      swap2\n      swap1\n      swap2\n      swap1\n      swap2\n      0x0100\n      exp\n      dup2\n      sload\n      dup2\n      0xffffffffffffffffffffffffffffffffffffffff\n      mul\n      not\n      and\n      swap1\n      dup4\n      0xffffffffffffffffffffffffffffffffffffffff\n      and\n      mul\n      or\n      swap1\n      sstore\n      pop\n        /* \"auction/auction.sol\":152:249  {... */\n      pop\n        /* \"auction/auction.sol\":122:249  function createAuction()public{... */\n      jump\t// out\n    tag_17:\n      dataSize(sub_0)\n      dup1\n      dataOffset(sub_0)\n      dup4\n      codecopy\n      add\n      swap1\n      jump\t// out\n        /* \"#utility.yul\":88:205   */\n    tag_23:\n        /* \"#utility.yul\":197:198   */\n      0x00\n        /* \"#utility.yul\":194:195   */\n      dup1\n        /* \"#utility.yul\":187:199   */\n      revert\n        /* \"#utility.yul\":334:411   */\n    tag_25:\n        /* \"#utility.yul\":371:378   */\n      0x00\n        /* \"#utility.yul\":400:405   */\n      dup2\n        /* \"#utility.yul\":389:405   */\n      swap1\n      pop\n        /* \"#utility.yul\":334:411   */\n      swap2\n      swap1\n      pop\n      jump\t// out\n        /* \"#utility.yul\":417:539   */\n    tag_26:\n        /* \"#utility.yul\":490:514   */\n      tag_42\n        /* \"#utility.yul\":508:513   */\n      dup2\n        /* \"#utility.yul\":490:514   */\n      tag_25\n      jump\t// in\n    tag_42:\n        /* \"#utility.yul\":483:488   */\n      dup2\n        /* \"#utility.yul\":480:515   */\n      eq\n        /* \"#utility.yul\":470:533   */\n      tag_43\n      jumpi\n        /* \"#utility.yul\":529:530   */\n      0x00\n        /* \"#utility.yul\":526:527   */\n      dup1\n        /* \"#utility.yul\":519:531   */\n      revert\n        /* \"#utility.yul\":470:533   */\n    tag_43:\n        /* \"#utility.yul\":417:539   */\n      pop\n      jump\t// out\n        /* \"#utility.yul\":545:684   */\n    tag_27:\n        /* \"#utility.yul\":591:596   */\n      0x00\n        /* \"#utility.yul\":629:635   */\n      dup2\n        /* \"#utility.yul\":616:636   */\n      calldataload\n        /* \"#utility.yul\":607:636   */\n      swap1\n      pop\n        /* \"#utility.yul\":645:678   */\n      tag_45\n        /* \"#utility.yul\":672:677   */\n      dup2\n        /* \"#utility.yul\":645:678   */\n      tag_26\n      jump\t// in\n    tag_45:\n        /* \"#utility.yul\":545:684   */\n      swap3\n      swap2\n      pop\n      pop\n      jump\t// out\n        /* \"#utility.yul\":690:1019   */\n    tag_7:\n        /* \"#utility.yul\":749:755   */\n      0x00\n        /* \"#utility.yul\":798:800   */\n      0x20\n        /* \"#utility.yul\":786:795   */\n      dup3\n        /* \"#utility.yul\":777:784   */\n      dup5\n        /* \"#utility.yul\":773:796   */\n      sub\n        /* \"#utility.yul\":769:801   */\n      slt\n        /* \"#utility.yul\":766:885   */\n      iszero\n      tag_47\n      jumpi\n        /* \"#utility.yul\":804:883   */\n      tag_48\n      tag_23\n      jump\t// in\n    tag_48:\n        /* \"#utility.yul\":766:885   */\n    tag_47:\n        /* \"#utility.yul\":924:925   */\n      0x00\n        /* \"#utility.yul\":949:1002   */\n      tag_49\n        /* \"#utility.yul\":994:1001   */\n      dup5\n        /* \"#utility.yul\":985:991   */\n      dup3\n        /* \"#utility.yul\":974:983   */\n      dup6\n        /* \"#utility.yul\":970:992   */\n      add\n        /* \"#utility.yul\":949:1002   */\n      tag_27\n      jump\t// in\n    tag_49:\n        /* \"#utility.yul\":939:1002   */\n      swap2\n      pop\n        /* \"#utility.yul\":895:1012   */\n      pop\n        /* \"#utility.yul\":690:1019   */\n      swap3\n      swap2\n      pop\n      pop\n      jump\t// out\n        /* \"#utility.yul\":1025:1151   */\n    tag_28:\n        /* \"#utility.yul\":1062:1069   */\n      0x00\n        /* \"#utility.yul\":1102:1144   */\n      0xffffffffffffffffffffffffffffffffffffffff\n        /* \"#utility.yul\":1095:1100   */\n      dup3\n        /* \"#utility.yul\":1091:1145   */\n      and\n        /* \"#utility.yul\":1080:1145   */\n      swap1\n      pop\n        /* \"#utility.yul\":1025:1151   */\n      swap2\n      swap1\n      pop\n      jump\t// out\n        /* \"#utility.yul\":1157:1217   */\n    tag_29:\n        /* \"#utility.yul\":1185:1188   */\n      0x00\n        /* \"#utility.yul\":1206:1211   */\n      dup2\n        /* \"#utility.yul\":1199:1211   */\n      swap1\n      pop\n        /* \"#utility.yul\":1157:1217   */\n      swap2\n      swap1\n      pop\n      jump\t// out\n        /* \"#utility.yul\":1223:1365   */\n    tag_30:\n        /* \"#utility.yul\":1273:1282   */\n      0x00\n        /* \"#utility.yul\":1306:1359   */\n      tag_53\n        /* \"#utility.yul\":1324:1358   */\n      tag_54\n        /* \"#utility.yul\":1333:1357   */\n      tag_55\n        /* \"#utility.yul\":1351:1356   */\n      dup5\n        /* \"#utility.yul\":1333:1357   */\n      tag_28\n      jump\t// in\n    tag_55:\n        /* \"#utility.yul\":1324:1358   */\n      tag_29\n      jump\t// in\n    tag_54:\n        /* \"#utility.yul\":1306:1359   */\n      tag_28\n      jump\t// in\n    tag_53:\n        /* \"#utility.yul\":1293:1359   */\n      swap1\n      pop\n        /* \"#utility.yul\":1223:1365   */\n      swap2\n      swap1\n      pop\n      jump\t// out\n        /* \"#utility.yul\":1371:1497   */\n    tag_31:\n        /* \"#utility.yul\":1421:1430   */\n      0x00\n        /* \"#utility.yul\":1454:1491   */\n      tag_57\n        /* \"#utility.yul\":1485:1490   */\n      dup3\n        /* \"#utility.yul\":1454:1491   */\n      tag_30\n      jump\t// in\n    tag_57:\n        /* \"#utility.yul\":1441:1491   */\n      swap1\n      pop\n        /* \"#utility.yul\":1371:1497   */\n      swap2\n      swap1\n      pop\n      jump\t// out\n        /* \"#utility.yul\":1503:1644   */\n    tag_32:\n        /* \"#utility.yul\":1568:1577   */\n      0x00\n        /* \"#utility.yul\":1601:1638   */\n      tag_59\n        /* \"#utility.yul\":1632:1637   */\n      dup3\n        /* \"#utility.yul\":1601:1638   */\n      tag_31\n      jump\t// in\n    tag_59:\n        /* \"#utility.yul\":1588:1638   */\n      swap1\n      pop\n        /* \"#utility.yul\":1503:1644   */\n      swap2\n      swap1\n      pop\n      jump\t// out\n        /* \"#utility.yul\":1650:1811   */\n    tag_33:\n        /* \"#utility.yul\":1752:1804   */\n      tag_61\n        /* \"#utility.yul\":1798:1803   */\n      dup2\n        /* \"#utility.yul\":1752:1804   */\n      tag_32\n      jump\t// in\n    tag_61:\n        /* \"#utility.yul\":1747:1750   */\n      dup3\n        /* \"#utility.yul\":1740:1805   */\n      mstore\n        /* \"#utility.yul\":1650:1811   */\n      pop\n      pop\n      jump\t// out\n        /* \"#utility.yul\":1817:2069   */\n    tag_10:\n        /* \"#utility.yul\":1925:1929   */\n      0x00\n        /* \"#utility.yul\":1963:1965   */\n      0x20\n        /* \"#utility.yul\":1952:1961   */\n      dup3\n        /* \"#utility.yul\":1948:1966   */\n      add\n        /* \"#utility.yul\":1940:1966   */\n      swap1\n      pop\n        /* \"#utility.yul\":1976:2062   */\n      tag_63\n        /* \"#utility.yul\":2059:2060   */\n      0x00\n        /* \"#utility.yul\":2048:2057   */\n      dup4\n        /* \"#utility.yul\":2044:2061   */\n      add\n        /* \"#utility.yul\":2035:2041   */\n      dup5\n        /* \"#utility.yul\":1976:2062   */\n      tag_33\n      jump\t// in\n    tag_63:\n        /* \"#utility.yul\":1817:2069   */\n      swap3\n      swap2\n      pop\n      pop\n      jump\t// out\n        /* \"#utility.yul\":2075:2171   */\n    tag_34:\n        /* \"#utility.yul\":2112:2119   */\n      0x00\n        /* \"#utility.yul\":2141:2165   */\n      tag_65\n        /* \"#utility.yul\":2159:2164   */\n      dup3\n        /* \"#utility.yul\":2141:2165   */\n      tag_28\n      jump\t// in\n    tag_65:\n        /* \"#utility.yul\":2130:2165   */\n      swap1\n      pop\n        /* \"#utility.yul\":2075:2171   */\n      swap2\n      swap1\n      pop\n      jump\t// out\n        /* \"#utility.yul\":2177:2295   */\n    tag_35:\n        /* \"#utility.yul\":2264:2288   */\n      tag_67\n        /* \"#utility.yul\":2282:2287   */\n      dup2\n        /* \"#utility.yul\":2264:2288   */\n      tag_34\n      jump\t// in\n    tag_67:\n        /* \"#utility.yul\":2259:2262   */\n      dup3\n        /* \"#utility.yul\":2252:2289   */\n      mstore\n        /* \"#utility.yul\":2177:2295   */\n      pop\n      pop\n      jump\t// out\n        /* \"#utility.yul\":2301:2523   */\n    tag_19:\n        /* \"#utility.yul\":2394:2398   */\n      0x00\n        /* \"#utility.yul\":2432:2434   */\n      0x20\n        /* \"#utility.yul\":2421:2430   */\n      dup3\n        /* \"#utility.yul\":2417:2435   */\n      add\n        /* \"#utility.yul\":2409:2435   */\n      swap1\n      pop\n        /* \"#utility.yul\":2445:2516   */\n      tag_69\n        /* \"#utility.yul\":2513:2514   */\n      0x00\n        /* \"#utility.yul\":2502:2511   */\n      dup4\n        /* \"#utility.yul\":2498:2515   */\n      add\n        /* \"#utility.yul\":2489:2495   */\n      dup5\n        /* \"#utility.yul\":2445:2516   */\n      tag_35\n      jump\t// in\n    tag_69:\n        /* \"#utility.yul\":2301:2523   */\n      swap3\n      swap2\n      pop\n      pop\n      jump\t// out\n    stop\n\n    sub_0: assembly {\n            /* \"auction/auction.sol\":254:3148  contract Auction{... */\n          mstore(0x40, 0x80)\n            /* \"auction/auction.sol\":623:918  constructor(address eoa){... */\n          callvalue\n          dup1\n          iszero\n          tag_1\n          jumpi\n          0x00\n          dup1\n          revert\n        tag_1:\n          pop\n          mload(0x40)\n          sub(codesize, bytecodeSize)\n          dup1\n          bytecodeSize\n          dup4\n          codecopy\n          dup2\n          dup2\n          add\n          0x40\n          mstore\n          dup2\n          add\n          swap1\n          tag_2\n          swap2\n          swap1\n          tag_3\n          jump\t// in\n        tag_2:\n            /* \"auction/auction.sol\":673:676  eoa */\n          dup1\n            /* \"auction/auction.sol\":658:663  owner */\n          0x00\n          dup1\n            /* \"auction/auction.sol\":658:677  owner=payable (eoa) */\n          0x0100\n          exp\n          dup2\n          sload\n          dup2\n          0xffffffffffffffffffffffffffffffffffffffff\n          mul\n          not\n          and\n          swap1\n          dup4\n          0xffffffffffffffffffffffffffffffffffffffff\n          and\n          mul\n          or\n          swap1\n          sstore\n          pop\n            /* \"auction/auction.sol\":688:697  ipHash=\"\" */\n          mload(0x40)\n          dup1\n          0x20\n          add\n          0x40\n          mstore\n          dup1\n          0x00\n          dup2\n          mstore\n          pop\n            /* \"auction/auction.sol\":688:694  ipHash */\n          0x03\n            /* \"auction/auction.sol\":688:697  ipHash=\"\" */\n          swap1\n          dup2\n          tag_6\n          swap2\n          swap1\n          tag_7\n          jump\t// in\n        tag_6:\n          pop\n            /* \"auction/auction.sol\":721:734  State.Started */\n          0x00\n            /* \"auction/auction.sol\":708:720  auctionstate */\n          0x04\n          0x00\n            /* \"auction/auction.sol\":708:734  auctionstate=State.Started */\n          0x0100\n          exp\n          dup2\n          sload\n          dup2\n          0xff\n          mul\n          not\n          and\n          swap1\n          dup4\n          0x03\n          dup2\n          gt\n          iszero\n          tag_8\n          jumpi\n          tag_9\n          tag_10\n          jump\t// in\n        tag_9:\n        tag_8:\n          mul\n          or\n          swap1\n          sstore\n          pop\n            /* \"auction/auction.sol\":756:768  block.number */\n          number\n            /* \"auction/auction.sol\":745:755  startBlock */\n          0x01\n            /* \"auction/auction.sol\":745:768  startBlock=block.number */\n          dup2\n          swap1\n          sstore\n          pop\n            /* \"auction/auction.sol\":838:839  3 */\n          0x03\n            /* \"auction/auction.sol\":827:837  startBlock */\n          sload(0x01)\n            /* \"auction/auction.sol\":827:839  startBlock+3 */\n          tag_11\n          swap2\n          swap1\n          tag_12\n          jump\t// in\n        tag_11:\n            /* \"auction/auction.sol\":818:826  endBlock */\n          0x02\n            /* \"auction/auction.sol\":818:839  endBlock=startBlock+3 */\n          dup2\n          swap1\n          sstore\n          pop\n            /* \"auction/auction.sol\":903:910  1 ether */\n          0x0de0b6b3a7640000\n            /* \"auction/auction.sol\":890:902  bidIncrement */\n          0x08\n            /* \"auction/auction.sol\":890:910  bidIncrement=1 ether */\n          dup2\n          swap1\n          sstore\n          pop\n            /* \"auction/auction.sol\":623:918  constructor(address eoa){... */\n          pop\n            /* \"auction/auction.sol\":254:3148  contract Auction{... */\n          jump(tag_13)\n            /* \"#utility.yul\":88:205   */\n        tag_15:\n            /* \"#utility.yul\":197:198   */\n          0x00\n            /* \"#utility.yul\":194:195   */\n          dup1\n            /* \"#utility.yul\":187:199   */\n          revert\n            /* \"#utility.yul\":334:460   */\n        tag_17:\n            /* \"#utility.yul\":371:378   */\n          0x00\n            /* \"#utility.yul\":411:453   */\n          0xffffffffffffffffffffffffffffffffffffffff\n            /* \"#utility.yul\":404:409   */\n          dup3\n            /* \"#utility.yul\":400:454   */\n          and\n            /* \"#utility.yul\":389:454   */\n          swap1\n          pop\n            /* \"#utility.yul\":334:460   */\n          swap2\n          swap1\n          pop\n          jump\t// out\n            /* \"#utility.yul\":466:562   */\n        tag_18:\n            /* \"#utility.yul\":503:510   */\n          0x00\n            /* \"#utility.yul\":532:556   */\n          tag_48\n            /* \"#utility.yul\":550:555   */\n          dup3\n            /* \"#utility.yul\":532:556   */\n          tag_17\n          jump\t// in\n        tag_48:\n            /* \"#utility.yul\":521:556   */\n          swap1\n          pop\n            /* \"#utility.yul\":466:562   */\n          swap2\n          swap1\n          pop\n          jump\t// out\n            /* \"#utility.yul\":568:690   */\n        tag_19:\n            /* \"#utility.yul\":641:665   */\n          tag_50\n            /* \"#utility.yul\":659:664   */\n          dup2\n            /* \"#utility.yul\":641:665   */\n          tag_18\n          jump\t// in\n        tag_50:\n            /* \"#utility.yul\":634:639   */\n          dup2\n            /* \"#utility.yul\":631:666   */\n          eq\n            /* \"#utility.yul\":621:684   */\n          tag_51\n          jumpi\n            /* \"#utility.yul\":680:681   */\n          0x00\n            /* \"#utility.yul\":677:678   */\n          dup1\n            /* \"#utility.yul\":670:682   */\n          revert\n            /* \"#utility.yul\":621:684   */\n        tag_51:\n            /* \"#utility.yul\":568:690   */\n          pop\n          jump\t// out\n            /* \"#utility.yul\":696:839   */\n        tag_20:\n            /* \"#utility.yul\":753:758   */\n          0x00\n            /* \"#utility.yul\":784:790   */\n          dup2\n            /* \"#utility.yul\":778:791   */\n          mload\n            /* \"#utility.yul\":769:791   */\n          swap1\n          pop\n            /* \"#utility.yul\":800:833   */\n          tag_53\n            /* \"#utility.yul\":827:832   */\n          dup2\n            /* \"#utility.yul\":800:833   */\n          tag_19\n          jump\t// in\n        tag_53:\n            /* \"#utility.yul\":696:839   */\n          swap3\n          swap2\n          pop\n          pop\n          jump\t// out\n            /* \"#utility.yul\":845:1196   */\n        tag_3:\n            /* \"#utility.yul\":915:921   */\n          0x00\n            /* \"#utility.yul\":964:966   */\n          0x20\n            /* \"#utility.yul\":952:961   */\n          dup3\n            /* \"#utility.yul\":943:950   */\n          dup5\n            /* \"#utility.yul\":939:962   */\n          sub\n            /* \"#utility.yul\":935:967   */\n          slt\n            /* \"#utility.yul\":932:1051   */\n          iszero\n          tag_55\n          jumpi\n            /* \"#utility.yul\":970:1049   */\n          tag_56\n          tag_15\n          jump\t// in\n        tag_56:\n            /* \"#utility.yul\":932:1051   */\n        tag_55:\n            /* \"#utility.yul\":1090:1091   */\n          0x00\n            /* \"#utility.yul\":1115:1179   */\n          tag_57\n            /* \"#utility.yul\":1171:1178   */\n          dup5\n            /* \"#utility.yul\":1162:1168   */\n          dup3\n            /* \"#utility.yul\":1151:1160   */\n          dup6\n            /* \"#utility.yul\":1147:1169   */\n          add\n            /* \"#utility.yul\":1115:1179   */\n          tag_20\n          jump\t// in\n        tag_57:\n            /* \"#utility.yul\":1105:1179   */\n          swap2\n          pop\n            /* \"#utility.yul\":1061:1189   */\n          pop\n            /* \"#utility.yul\":845:1196   */\n          swap3\n          swap2\n          pop\n          pop\n          jump\t// out\n            /* \"#utility.yul\":1202:1301   */\n        tag_21:\n            /* \"#utility.yul\":1254:1260   */\n          0x00\n            /* \"#utility.yul\":1288:1293   */\n          dup2\n            /* \"#utility.yul\":1282:1294   */\n          mload\n            /* \"#utility.yul\":1272:1294   */\n          swap1\n          pop\n            /* \"#utility.yul\":1202:1301   */\n          swap2\n          swap1\n          pop\n          jump\t// out\n            /* \"#utility.yul\":1307:1487   */\n        tag_22:\n            /* \"#utility.yul\":1355:1432   */\n          0x4e487b7100000000000000000000000000000000000000000000000000000000\n            /* \"#utility.yul\":1352:1353   */\n          0x00\n            /* \"#utility.yul\":1345:1433   */\n          mstore\n            /* \"#utility.yul\":1452:1456   */\n          0x41\n            /* \"#utility.yul\":1449:1450   */\n          0x04\n            /* \"#utility.yul\":1442:1457   */\n          mstore\n            /* \"#utility.yul\":1476:1480   */\n          0x24\n            /* \"#utility.yul\":1473:1474   */\n          0x00\n            /* \"#utility.yul\":1466:1481   */\n          revert\n            /* \"#utility.yul\":1493:1673   */\n        tag_23:\n            /* \"#utility.yul\":1541:1618   */\n          0x4e487b7100000000000000000000000000000000000000000000000000000000\n            /* \"#utility.yul\":1538:1539   */\n          0x00\n            /* \"#utility.yul\":1531:1619   */\n          mstore\n            /* \"#utility.yul\":1638:1642   */\n          0x22\n            /* \"#utility.yul\":1635:1636   */\n          0x04\n            /* \"#utility.yul\":1628:1643   */\n          mstore\n            /* \"#utility.yul\":1662:1666   */\n          0x24\n            /* \"#utility.yul\":1659:1660   */\n          0x00\n            /* \"#utility.yul\":1652:1667   */\n          revert\n            /* \"#utility.yul\":1679:1999   */\n        tag_24:\n            /* \"#utility.yul\":1723:1729   */\n          0x00\n            /* \"#utility.yul\":1760:1761   */\n          0x02\n            /* \"#utility.yul\":1754:1758   */\n          dup3\n            /* \"#utility.yul\":1750:1762   */\n          div\n            /* \"#utility.yul\":1740:1762   */\n          swap1\n          pop\n            /* \"#utility.yul\":1807:1808   */\n          0x01\n            /* \"#utility.yul\":1801:1805   */\n          dup3\n            /* \"#utility.yul\":1797:1809   */\n          and\n            /* \"#utility.yul\":1828:1846   */\n          dup1\n            /* \"#utility.yul\":1818:1899   */\n          tag_62\n          jumpi\n            /* \"#utility.yul\":1884:1888   */\n          0x7f\n            /* \"#utility.yul\":1876:1882   */\n          dup3\n            /* \"#utility.yul\":1872:1889   */\n          and\n            /* \"#utility.yul\":1862:1889   */\n          swap2\n          pop\n            /* \"#utility.yul\":1818:1899   */\n        tag_62:\n            /* \"#utility.yul\":1946:1948   */\n          0x20\n            /* \"#utility.yul\":1938:1944   */\n          dup3\n            /* \"#utility.yul\":1935:1949   */\n          lt\n            /* \"#utility.yul\":1915:1933   */\n          dup2\n            /* \"#utility.yul\":1912:1950   */\n          sub\n            /* \"#utility.yul\":1909:1993   */\n          tag_63\n          jumpi\n            /* \"#utility.yul\":1965:1983   */\n          tag_64\n          tag_23\n          jump\t// in\n        tag_64:\n            /* \"#utility.yul\":1909:1993   */\n        tag_63:\n            /* \"#utility.yul\":1730:1999   */\n          pop\n            /* \"#utility.yul\":1679:1999   */\n          swap2\n          swap1\n          pop\n          jump\t// out\n            /* \"#utility.yul\":2005:2146   */\n        tag_25:\n            /* \"#utility.yul\":2054:2058   */\n          0x00\n            /* \"#utility.yul\":2077:2080   */\n          dup2\n            /* \"#utility.yul\":2069:2080   */\n          swap1\n          pop\n            /* \"#utility.yul\":2100:2103   */\n          dup2\n            /* \"#utility.yul\":2097:2098   */\n          0x00\n            /* \"#utility.yul\":2090:2104   */\n          mstore\n            /* \"#utility.yul\":2134:2138   */\n          0x20\n            /* \"#utility.yul\":2131:2132   */\n          0x00\n            /* \"#utility.yul\":2121:2139   */\n          keccak256\n            /* \"#utility.yul\":2113:2139   */\n          swap1\n          pop\n            /* \"#utility.yul\":2005:2146   */\n          swap2\n          swap1\n          pop\n          jump\t// out\n            /* \"#utility.yul\":2152:2245   */\n        tag_26:\n            /* \"#utility.yul\":2189:2195   */\n          0x00\n            /* \"#utility.yul\":2236:2238   */\n          0x20\n            /* \"#utility.yul\":2231:2233   */\n          0x1f\n            /* \"#utility.yul\":2224:2229   */\n          dup4\n            /* \"#utility.yul\":2220:2234   */\n          add\n            /* \"#utility.yul\":2216:2239   */\n          div\n            /* \"#utility.yul\":2206:2239   */\n          swap1\n          pop\n            /* \"#utility.yul\":2152:2245   */\n          swap2\n          swap1\n          pop\n          jump\t// out\n            /* \"#utility.yul\":2251:2358   */\n        tag_27:\n            /* \"#utility.yul\":2295:2303   */\n          0x00\n            /* \"#utility.yul\":2345:2350   */\n          dup3\n            /* \"#utility.yul\":2339:2343   */\n          dup3\n            /* \"#utility.yul\":2335:2351   */\n          shl\n            /* \"#utility.yul\":2314:2351   */\n          swap1\n          pop\n            /* \"#utility.yul\":2251:2358   */\n          swap3\n          swap2\n          pop\n          pop\n          jump\t// out\n            /* \"#utility.yul\":2364:2757   */\n        tag_28:\n            /* \"#utility.yul\":2433:2439   */\n          0x00\n            /* \"#utility.yul\":2483:2484   */\n          0x08\n            /* \"#utility.yul\":2471:2481   */\n          dup4\n            /* \"#utility.yul\":2467:2485   */\n          mul\n            /* \"#utility.yul\":2506:2603   */\n          tag_69\n            /* \"#utility.yul\":2536:2602   */\n          0xffffffffffffffffffffffffffffffffffffffffffffffffffffffffffffffff\n            /* \"#utility.yul\":2525:2534   */\n          dup3\n            /* \"#utility.yul\":2506:2603   */\n          tag_27\n          jump\t// in\n        tag_69:\n            /* \"#utility.yul\":2624:2663   */\n          tag_70\n            /* \"#utility.yul\":2654:2662   */\n          dup7\n            /* \"#utility.yul\":2643:2652   */\n          dup4\n            /* \"#utility.yul\":2624:2663   */\n          tag_27\n          jump\t// in\n        tag_70:\n            /* \"#utility.yul\":2612:2663   */\n          swap6\n          pop\n            /* \"#utility.yul\":2696:2700   */\n          dup1\n            /* \"#utility.yul\":2692:2701   */\n          not\n            /* \"#utility.yul\":2685:2690   */\n          dup5\n            /* \"#utility.yul\":2681:2702   */\n          and\n            /* \"#utility.yul\":2672:2702   */\n          swap4\n          pop\n            /* \"#utility.yul\":2745:2749   */\n          dup1\n            /* \"#utility.yul\":2735:2743   */\n          dup7\n            /* \"#utility.yul\":2731:2750   */\n          and\n            /* \"#utility.yul\":2724:2729   */\n          dup5\n            /* \"#utility.yul\":2721:2751   */\n          or\n            /* \"#utility.yul\":2711:2751   */\n          swap3\n          pop\n            /* \"#utility.yul\":2440:2757   */\n          pop\n          pop\n            /* \"#utility.yul\":2364:2757   */\n          swap4\n          swap3\n          pop\n          pop\n          pop\n          jump\t// out\n            /* \"#utility.yul\":2763:2840   */\n        tag_29:\n            /* \"#utility.yul\":2800:2807   */\n          0x00\n            /* \"#utility.yul\":2829:2834   */\n          dup2\n            /* \"#utility.yul\":2818:2834   */\n          swap1\n          pop\n            /* \"#utility.yul\":2763:2840   */\n          swap2\n          swap1\n          pop\n          jump\t// out\n            /* \"#utility.yul\":2846:2906   */\n        tag_30:\n            /* \"#utility.yul\":2874:2877   */\n          0x00\n            /* \"#utility.yul\":2895:2900   */\n          dup2\n            /* \"#utility.yul\":2888:2900   */\n          swap1\n          pop\n            /* \"#utility.yul\":2846:2906   */\n          swap2\n          swap1\n          pop\n          jump\t// out\n            /* \"#utility.yul\":2912:3054   */\n        tag_31:\n            /* \"#utility.yul\":2962:2971   */\n          0x00\n            /* \"#utility.yul\":2995:3048   */\n          tag_74\n            /* \"#utility.yul\":3013:3047   */\n          tag_75\n            /* \"#utility.yul\":3022:3046   */\n          tag_76\n            /* \"#utility.yul\":3040:3045   */\n          dup5\n            /* \"#utility.yul\":3022:3046   */\n          tag_29\n          jump\t// in\n        tag_76:\n            /* \"#utility.yul\":3013:3047   */\n          tag_30\n          jump\t// in\n        tag_75:\n            /* \"#utility.yul\":2995:3048   */\n          tag_29\n          jump\t// in\n        tag_74:\n            /* \"#utility.yul\":2982:3048   */\n          swap1\n          pop\n            /* \"#utility.yul\":2912:3054   */\n          swap2\n          swap1\n          pop\n          jump\t// out\n            /* \"#utility.yul\":3060:3135   */\n        tag_32:\n            /* \"#utility.yul\":3103:3106   */\n          0x00\n            /* \"#utility.yul\":3124:3129   */\n          dup2\n            /* \"#utility.yul\":3117:3129   */\n          swap1\n          pop\n            /* \"#utility.yul\":3060:3135   */\n          swap2\n          swap1\n          pop\n          jump\t// out\n            /* \"#utility.yul\":3141:3410   */\n        tag_33:\n            /* \"#utility.yul\":3251:3290   */\n          tag_79\n            /* \"#utility.yul\":3282:3289   */\n          dup4\n            /* \"#utility.yul\":3251:3290   */\n          tag_31\n          jump\t// in\n        tag_79:\n            /* \"#utility.yul\":3312:3403   */\n          tag_80\n            /* \"#utility.yul\":3361:3402   */\n          tag_81\n            /* \"#utility.yul\":3385:3401   */\n          dup3\n            /* \"#utility.yul\":3361:3402   */\n          tag_32\n          jump\t// in\n        tag_81:\n            /* \"#utility.yul\":3353:3359   */\n          dup5\n            /* \"#utility.yul\":3346:3350   */\n          dup5\n            /* \"#utility.yul\":3340:3351   */\n          sload\n            /* \"#utility.yul\":3312:3403   */\n          tag_28\n          jump\t// in\n        tag_80:\n            /* \"#utility.yul\":3306:3310   */\n          dup3\n            /* \"#utility.yul\":3299:3404   */\n          sstore\n            /* \"#utility.yul\":3217:3410   */\n          pop\n            /* \"#utility.yul\":3141:3410   */\n          pop\n          pop\n          pop\n          jump\t// out\n            /* \"#utility.yul\":3416:3489   */\n        tag_34:\n            /* \"#utility.yul\":3461:3464   */\n          0x00\n            /* \"#utility.yul\":3416:3489   */\n          swap1\n          jump\t// out\n            /* \"#utility.yul\":3495:3684   */\n        tag_35:\n            /* \"#utility.yul\":3572:3604   */\n          tag_84\n          tag_34\n          jump\t// in\n        tag_84:\n            /* \"#utility.yul\":3613:3678   */\n          tag_85\n            /* \"#utility.yul\":3671:3677   */\n          dup2\n            /* \"#utility.yul\":3663:3669   */\n          dup5\n            /* \"#utility.yul\":3657:3661   */\n          dup5\n            /* \"#utility.yul\":3613:3678   */\n          tag_33\n          jump\t// in\n        tag_85:\n            /* \"#utility.yul\":3548:3684   */\n          pop\n            /* \"#utility.yul\":3495:3684   */\n          pop\n          pop\n          jump\t// out\n            /* \"#utility.yul\":3690:3876   */\n        tag_36:\n            /* \"#utility.yul\":3750:3870   */\n        tag_87:\n            /* \"#utility.yul\":3767:3770   */\n          dup2\n            /* \"#utility.yul\":3760:3765   */\n          dup2\n            /* \"#utility.yul\":3757:3771   */\n          lt\n            /* \"#utility.yul\":3750:3870   */\n          iszero\n          tag_89\n          jumpi\n            /* \"#utility.yul\":3821:3860   */\n          tag_90\n            /* \"#utility.yul\":3858:3859   */\n          0x00\n            /* \"#utility.yul\":3851:3856   */\n          dup3\n            /* \"#utility.yul\":3821:3860   */\n          tag_35\n          jump\t// in\n        tag_90:\n            /* \"#utility.yul\":3794:3795   */\n          0x01\n            /* \"#utility.yul\":3787:3792   */\n          dup2\n            /* \"#utility.yul\":3783:3796   */\n          add\n            /* \"#utility.yul\":3774:3796   */\n          swap1\n          pop\n            /* \"#utility.yul\":3750:3870   */\n          jump(tag_87)\n        tag_89:\n            /* \"#utility.yul\":3690:3876   */\n          pop\n          pop\n          jump\t// out\n            /* \"#utility.yul\":3882:4425   */\n        tag_37:\n            /* \"#utility.yul\":3983:3985   */\n          0x1f\n            /* \"#utility.yul\":3978:3981   */\n          dup3\n            /* \"#utility.yul\":3975:3986   */\n          gt\n            /* \"#utility.yul\":3972:4418   */\n          iszero\n          tag_92\n          jumpi\n            /* \"#utility.yul\":4017:4055   */\n          tag_93\n            /* \"#utility.yul\":4049:4054   */\n          dup2\n            /* \"#utility.yul\":4017:4055   */\n          tag_25\n          jump\t// in\n        tag_93:\n            /* \"#utility.yul\":4101:4130   */\n          tag_94\n            /* \"#utility.yul\":4119:4129   */\n          dup5\n            /* \"#utility.yul\":4101:4130   */\n          tag_26\n          jump\t// in\n        tag_94:\n            /* \"#utility.yul\":4091:4099   */\n          dup2\n            /* \"#utility.yul\":4087:4131   */\n          add\n            /* \"#utility.yul\":4284:4286   */\n          0x20\n            /* \"#utility.yul\":4272:4282   */\n          dup6\n            /* \"#utility.yul\":4269:4287   */\n          lt\n            /* \"#utility.yul\":4266:4315   */\n          iszero\n          tag_95\n          jumpi\n            /* \"#utility.yul\":4305:4313   */\n          dup2\n            /* \"#utility.yul\":4290:4313   */\n          swap1\n          pop\n            /* \"#utility.yul\":4266:4315   */\n        tag_95:\n            /* \"#utility.yul\":4328:4408   */\n          tag_96\n            /* \"#utility.yul\":4384:4406   */\n          tag_97\n            /* \"#utility.yul\":4402:4405   */\n          dup6\n            /* \"#utility.yul\":4384:4406   */\n          tag_26\n          jump\t// in\n        tag_97:\n            /* \"#utility.yul\":4374:4382   */\n          dup4\n            /* \"#utility.yul\":4370:4407   */\n          add\n            /* \"#utility.yul\":4357:4368   */\n          dup3\n            /* \"#utility.yul\":4328:4408   */\n          tag_36\n          jump\t// in\n        tag_96:\n            /* \"#utility.yul\":3987:4418   */\n          pop\n          pop\n            /* \"#utility.yul\":3972:4418   */\n        tag_92:\n            /* \"#utility.yul\":3882:4425   */\n          pop\n          pop\n          pop\n          jump\t// out\n            /* \"#utility.yul\":4431:4548   */\n        tag_38:\n            /* \"#utility.yul\":4485:4493   */\n          0x00\n            /* \"#utility.yul\":4535:4540   */\n          dup3\n            /* \"#utility.yul\":4529:4533   */\n          dup3\n            /* \"#utility.yul\":4525:4541   */\n          shr\n            /* \"#utility.yul\":4504:4541   */\n          swap1\n          pop\n            /* \"#utility.yul\":4431:4548   */\n          swap3\n          swap2\n          pop\n          pop\n          jump\t// out\n            /* \"#utility.yul\":4554:4723   */\n        tag_39:\n            /* \"#utility.yul\":4598:4604   */\n          0x00\n            /* \"#utility.yul\":4631:4682   */\n          tag_100\n            /* \"#utility.yul\":4679:4680   */\n          0x00\n            /* \"#utility.yul\":4675:4681   */\n          not\n            /* \"#utility.yul\":4667:4672   */\n          dup5\n            /* \"#utility.yul\":4664:4665   */\n          0x08\n            /* \"#utility.yul\":4660:4673   */\n          mul\n            /* \"#utility.yul\":4631:4682   */\n          tag_38\n          jump\t// in\n        tag_100:\n            /* \"#utility.yul\":4627:4683   */\n          not\n            /* \"#utility.yul\":4712:4716   */\n          dup1\n            /* \"#utility.yul\":4706:4710   */\n          dup4\n            /* \"#utility.yul\":4702:4717   */\n          and\n            /* \"#utility.yul\":4692:4717   */\n          swap2\n          pop\n            /* \"#utility.yul\":4605:4723   */\n          pop\n            /* \"#utility.yul\":4554:4723   */\n          swap3\n          swap2\n          pop\n          pop\n          jump\t// out\n            /* \"#utility.yul\":4728:5023   */\n        tag_40:\n            /* \"#utility.yul\":4804:4808   */\n          0x00\n            /* \"#utility.yul\":4950:4979   */\n          tag_102\n            /* \"#utility.yul\":4975:4978   */\n          dup4\n            /* \"#utility.yul\":4969:4973   */\n          dup4\n            /* \"#utility.yul\":4950:4979   */\n          tag_39\n          jump\t// in\n        tag_102:\n            /* \"#utility.yul\":4942:4979   */\n          swap2\n          pop\n            /* \"#utility.yul\":5012:5015   */\n          dup3\n            /* \"#utility.yul\":5009:5010   */\n          0x02\n            /* \"#utility.yul\":5005:5016   */\n          mul\n            /* \"#utility.yul\":4999:5003   */\n          dup3\n            /* \"#utility.yul\":4996:5017   */\n          or\n            /* \"#utility.yul\":4988:5017   */\n          swap1\n          pop\n            /* \"#utility.yul\":4728:5023   */\n          swap3\n          swap2\n          pop\n          pop\n          jump\t// out\n            /* \"#utility.yul\":5028:6423   */\n        tag_7:\n            /* \"#utility.yul\":5145:5182   */\n          tag_104\n            /* \"#utility.yul\":5178:5181   */\n          dup3\n            /* \"#utility.yul\":5145:5182   */\n          tag_21\n          jump\t// in\n        tag_104:\n            /* \"#utility.yul\":5247:5265   */\n          0xffffffffffffffff\n            /* \"#utility.yul\":5239:5245   */\n          dup2\n            /* \"#utility.yul\":5236:5266   */\n          gt\n            /* \"#utility.yul\":5233:5289   */\n          iszero\n          tag_105\n          jumpi\n            /* \"#utility.yul\":5269:5287   */\n          tag_106\n          tag_22\n          jump\t// in\n        tag_106:\n            /* \"#utility.yul\":5233:5289   */\n        tag_105:\n            /* \"#utility.yul\":5313:5351   */\n          tag_107\n            /* \"#utility.yul\":5345:5349   */\n          dup3\n            /* \"#utility.yul\":5339:5350   */\n          sload\n            /* \"#utility.yul\":5313:5351   */\n          tag_24\n          jump\t// in\n        tag_107:\n            /* \"#utility.yul\":5398:5465   */\n          tag_108\n            /* \"#utility.yul\":5458:5464   */\n          dup3\n            /* \"#utility.yul\":5450:5456   */\n          dup3\n            /* \"#utility.yul\":5444:5448   */\n          dup6\n            /* \"#utility.yul\":5398:5465   */\n          tag_37\n          jump\t// in\n        tag_108:\n            /* \"#utility.yul\":5492:5493   */\n          0x00\n            /* \"#utility.yul\":5516:5520   */\n          0x20\n            /* \"#utility.yul\":5503:5520   */\n          swap1\n          pop\n            /* \"#utility.yul\":5548:5550   */\n          0x1f\n            /* \"#utility.yul\":5540:5546   */\n          dup4\n            /* \"#utility.yul\":5537:5551   */\n          gt\n            /* \"#utility.yul\":5565:5566   */\n          0x01\n            /* \"#utility.yul\":5560:6178   */\n          dup2\n          eq\n          tag_110\n          jumpi\n            /* \"#utility.yul\":6222:6223   */\n          0x00\n            /* \"#utility.yul\":6239:6245   */\n          dup5\n            /* \"#utility.yul\":6236:6313   */\n          iszero\n          tag_111\n          jumpi\n            /* \"#utility.yul\":6288:6297   */\n          dup3\n            /* \"#utility.yul\":6283:6286   */\n          dup8\n            /* \"#utility.yul\":6279:6298   */\n          add\n            /* \"#utility.yul\":6273:6299   */\n          mload\n            /* \"#utility.yul\":6264:6299   */\n          swap1\n          pop\n            /* \"#utility.yul\":6236:6313   */\n        tag_111:\n            /* \"#utility.yul\":6339:6406   */\n          tag_112\n            /* \"#utility.yul\":6399:6405   */\n          dup6\n            /* \"#utility.yul\":6392:6397   */\n          dup3\n            /* \"#utility.yul\":6339:6406   */\n          tag_40\n          jump\t// in\n        tag_112:\n            /* \"#utility.yul\":6333:6337   */\n          dup7\n            /* \"#utility.yul\":6326:6407   */\n          sstore\n            /* \"#utility.yul\":6195:6417   */\n          pop\n            /* \"#utility.yul\":5530:6417   */\n          jump(tag_109)\n            /* \"#utility.yul\":5560:6178   */\n        tag_110:\n            /* \"#utility.yul\":5612:5616   */\n          0x1f\n            /* \"#utility.yul\":5608:5617   */\n          not\n            /* \"#utility.yul\":5600:5606   */\n          dup5\n            /* \"#utility.yul\":5596:5618   */\n          and\n            /* \"#utility.yul\":5646:5683   */\n          tag_113\n            /* \"#utility.yul\":5678:5682   */\n          dup7\n            /* \"#utility.yul\":5646:5683   */\n          tag_25\n          jump\t// in\n        tag_113:\n            /* \"#utility.yul\":5705:5706   */\n          0x00\n            /* \"#utility.yul\":5719:5927   */\n        tag_114:\n            /* \"#utility.yul\":5733:5740   */\n          dup3\n            /* \"#utility.yul\":5730:5731   */\n          dup2\n            /* \"#utility.yul\":5727:5741   */\n          lt\n            /* \"#utility.yul\":5719:5927   */\n          iszero\n          tag_116\n          jumpi\n            /* \"#utility.yul\":5812:5821   */\n          dup5\n            /* \"#utility.yul\":5807:5810   */\n          dup10\n            /* \"#utility.yul\":5803:5822   */\n          add\n            /* \"#utility.yul\":5797:5823   */\n          mload\n            /* \"#utility.yul\":5789:5795   */\n          dup3\n            /* \"#utility.yul\":5782:5824   */\n          sstore\n            /* \"#utility.yul\":5863:5864   */\n          0x01\n            /* \"#utility.yul\":5855:5861   */\n          dup3\n            /* \"#utility.yul\":5851:5865   */\n          add\n            /* \"#utility.yul\":5841:5865   */\n          swap2\n          pop\n            /* \"#utility.yul\":5910:5912   */\n          0x20\n            /* \"#utility.yul\":5899:5908   */\n          dup6\n            /* \"#utility.yul\":5895:5913   */\n          add\n            /* \"#utility.yul\":5882:5913   */\n          swap5\n          pop\n            /* \"#utility.yul\":5756:5760   */\n          0x20\n            /* \"#utility.yul\":5753:5754   */\n          dup2\n            /* \"#utility.yul\":5749:5761   */\n          add\n            /* \"#utility.yul\":5744:5761   */\n          swap1\n          pop\n            /* \"#utility.yul\":5719:5927   */\n          jump(tag_114)\n        tag_116:\n            /* \"#utility.yul\":5955:5961   */\n          dup7\n            /* \"#utility.yul\":5946:5953   */\n          dup4\n            /* \"#utility.yul\":5943:5962   */\n          lt\n            /* \"#utility.yul\":5940:6119   */\n          iszero\n          tag_117\n          jumpi\n            /* \"#utility.yul\":6013:6022   */\n          dup5\n            /* \"#utility.yul\":6008:6011   */\n          dup10\n            /* \"#utility.yul\":6004:6023   */\n          add\n            /* \"#utility.yul\":5998:6024   */\n          mload\n            /* \"#utility.yul\":6056:6104   */\n          tag_118\n            /* \"#utility.yul\":6098:6102   */\n          0x1f\n            /* \"#utility.yul\":6090:6096   */\n          dup10\n            /* \"#utility.yul\":6086:6103   */\n          and\n            /* \"#utility.yul\":6075:6084   */\n          dup3\n            /* \"#utility.yul\":6056:6104   */\n          tag_39\n          jump\t// in\n        tag_118:\n            /* \"#utility.yul\":6048:6054   */\n          dup4\n            /* \"#utility.yul\":6041:6105   */\n          sstore\n            /* \"#utility.yul\":5963:6119   */\n          pop\n            /* \"#utility.yul\":5940:6119   */\n        tag_117:\n            /* \"#utility.yul\":6165:6166   */\n          0x01\n            /* \"#utility.yul\":6161:6162   */\n          0x02\n            /* \"#utility.yul\":6153:6159   */\n          dup9\n            /* \"#utility.yul\":6149:6163   */\n          mul\n            /* \"#utility.yul\":6145:6167   */\n          add\n            /* \"#utility.yul\":6139:6143   */\n          dup9\n            /* \"#utility.yul\":6132:6168   */\n          sstore\n            /* \"#utility.yul\":5567:6178   */\n          pop\n          pop\n          pop\n            /* \"#utility.yul\":5530:6417   */\n        tag_109:\n          pop\n            /* \"#utility.yul\":5120:6423   */\n          pop\n          pop\n          pop\n            /* \"#utility.yul\":5028:6423   */\n          pop\n          pop\n          jump\t// out\n            /* \"#utility.yul\":6429:6609   */\n        tag_10:\n            /* \"#utility.yul\":6477:6554   */\n          0x4e487b7100000000000000000000000000000000000000000000000000000000\n            /* \"#utility.yul\":6474:6475   */\n          0x00\n            /* \"#utility.yul\":6467:6555   */\n          mstore\n            /* \"#utility.yul\":6574:6578   */\n          0x21\n            /* \"#utility.yul\":6571:6572   */\n          0x04\n            /* \"#utility.yul\":6564:6579   */\n          mstore\n            /* \"#utility.yul\":6598:6602   */\n          0x24\n            /* \"#utility.yul\":6595:6596   */\n          0x00\n            /* \"#utility.yul\":6588:6603   */\n          revert\n            /* \"#utility.yul\":6615:6795   */\n        tag_41:\n            /* \"#utility.yul\":6663:6740   */\n          0x4e487b7100000000000000000000000000000000000000000000000000000000\n            /* \"#utility.yul\":6660:6661   */\n          0x00\n            /* \"#utility.yul\":6653:6741   */\n          mstore\n            /* \"#utility.yul\":6760:6764   */\n          0x11\n            /* \"#utility.yul\":6757:6758   */\n          0x04\n            /* \"#utility.yul\":6750:6765   */\n          mstore\n            /* \"#utility.yul\":6784:6788   */\n          0x24\n            /* \"#utility.yul\":6781:6782   */\n          0x00\n            /* \"#utility.yul\":6774:6789   */\n          revert\n            /* \"#utility.yul\":6801:6992   */\n        tag_12:\n            /* \"#utility.yul\":6841:6844   */\n          0x00\n            /* \"#utility.yul\":6860:6880   */\n          tag_122\n            /* \"#utility.yul\":6878:6879   */\n          dup3\n            /* \"#utility.yul\":6860:6880   */\n          tag_29\n          jump\t// in\n        tag_122:\n            /* \"#utility.yul\":6855:6880   */\n          swap2\n          pop\n            /* \"#utility.yul\":6894:6914   */\n          tag_123\n            /* \"#utility.yul\":6912:6913   */\n          dup4\n            /* \"#utility.yul\":6894:6914   */\n          tag_29\n          jump\t// in\n        tag_123:\n            /* \"#utility.yul\":6889:6914   */\n          swap3\n          pop\n            /* \"#utility.yul\":6937:6938   */\n          dup3\n            /* \"#utility.yul\":6934:6935   */\n          dup3\n            /* \"#utility.yul\":6930:6939   */\n          add\n            /* \"#utility.yul\":6923:6939   */\n          swap1\n          pop\n            /* \"#utility.yul\":6958:6961   */\n          dup1\n            /* \"#utility.yul\":6955:6956   */\n          dup3\n            /* \"#utility.yul\":6952:6962   */\n          gt\n            /* \"#utility.yul\":6949:6985   */\n          iszero\n          tag_124\n          jumpi\n            /* \"#utility.yul\":6965:6983   */\n          tag_125\n          tag_41\n          jump\t// in\n        tag_125:\n            /* \"#utility.yul\":6949:6985   */\n        tag_124:\n            /* \"#utility.yul\":6801:6992   */\n          swap3\n          swap2\n          pop\n          pop\n          jump\t// out\n            /* \"auction/auction.sol\":254:3148  contract Auction{... */\n        tag_13:\n          dataSize(sub_0)\n          dup1\n          dataOffset(sub_0)\n          0x00\n          codecopy\n          0x00\n          return\n        stop\n\n        sub_0: assembly {\n                /* \"auction/auction.sol\":254:3148  contract Auction{... */\n              mstore(0x40, 0x80)\n              jumpi(tag_1, lt(calldatasize, 0x04))\n              shr(0xe0, calldataload(0x00))\n              dup1\n              0x8da5cb5b\n              gt\n              tag_13\n              jumpi\n              dup1\n              0x8da5cb5b\n              eq\n              tag_7\n              jumpi\n              dup1\n              0x91f90157\n              eq\n              tag_8\n              jumpi\n              dup1\n              0xbd15cb44\n              eq\n              tag_9\n              jumpi\n              dup1\n              0xde31c95b\n              eq\n              tag_10\n              jumpi\n              dup1\n              0xf5b56c56\n              eq\n              tag_11\n              jumpi\n              dup1\n              0xf77282ab\n              eq\n              tag_12\n              jumpi\n              jump(tag_1)\n            tag_13:\n              dup1\n              0x083c6323\n              eq\n              tag_2\n              jumpi\n              dup1\n              0x1669be96\n              eq\n              tag_3\n              jumpi\n              dup1\n              0x48cd4cb1\n              eq\n              tag_4\n              jumpi\n              dup1\n              0x507cd3cb\n              eq\n              tag_5\n              jumpi\n              dup1\n              0x62ea82db\n              eq\n              tag_6\n              jumpi\n            tag_1:\n              0x00\n              dup1\n              revert\n                /* \"auction/auction.sol\":342:362  uint public endBlock */\n            tag_2:\n              callvalue\n              dup1\n              iszero\n              tag_14\n              jumpi\n              0x00\n              dup1\n              revert\n            tag_14:\n              pop\n              tag_15\n              tag_16\n              jump\t// in\n            tag_15:\n              mload(0x40)\n              tag_17\n              swap2\n              swap1\n              tag_18\n              jump\t// in\n            tag_17:\n              mload(0x40)\n              dup1\n              swap2\n              sub\n              swap1\n              return\n                /* \"auction/auction.sol\":1579:2241  function pricBid()public payable notOwner afterStart beforeEnd{... */\n            tag_3:\n              tag_19\n              tag_20\n              jump\t// in\n            tag_19:\n              stop\n                /* \"auction/auction.sol\":313:335  uint public startBlock */\n            tag_4:\n              callvalue\n              dup1\n              iszero\n              tag_21\n              jumpi\n              0x00\n              dup1\n              revert\n            tag_21:\n              pop\n              tag_22\n              tag_23\n              jump\t// in\n            tag_22:\n              mload(0x40)\n              tag_24\n              swap2\n              swap1\n              tag_18\n              jump\t// in\n            tag_24:\n              mload(0x40)\n              dup1\n              swap2\n              sub\n              swap1\n              return\n                /* \"auction/auction.sol\":443:468  State public auctionstate */\n            tag_5:\n              callvalue\n              dup1\n              iszero\n              tag_25\n              jumpi\n              0x00\n              dup1\n              revert\n            tag_25:\n              pop\n              tag_26\n              tag_27\n              jump\t// in\n            tag_26:\n              mload(0x40)\n              tag_28\n              swap2\n              swap1\n              tag_29\n              jump\t// in\n            tag_28:\n              mload(0x40)\n              dup1\n              swap2\n              sub\n              swap1\n              return\n                /* \"auction/auction.sol\":556:590  mapping (address=>uint)public bids */\n            tag_6:\n              callvalue\n              dup1\n              iszero\n              tag_30\n              jumpi\n              0x00\n              dup1\n              revert\n            tag_30:\n              pop\n              tag_31\n              0x04\n              dup1\n              calldatasize\n              sub\n              dup2\n              add\n              swap1\n              tag_32\n              swap2\n              swap1\n              tag_33\n              jump\t// in\n            tag_32:\n              tag_34\n              jump\t// in\n            tag_31:\n              mload(0x40)\n              tag_35\n              swap2\n              swap1\n              tag_18\n              jump\t// in\n            tag_35:\n              mload(0x40)\n              dup1\n              swap2\n              sub\n              swap1\n              return\n                /* \"auction/auction.sol\":277:306  address payable  public owner */\n            tag_7:\n              callvalue\n              dup1\n              iszero\n              tag_36\n              jumpi\n              0x00\n              dup1\n              revert\n            tag_36:\n              pop\n              tag_37\n              tag_38\n              jump\t// in\n            tag_37:\n              mload(0x40)\n              tag_39\n              swap2\n              swap1\n              tag_40\n              jump\t// in\n            tag_39:\n              mload(0x40)\n              dup1\n              swap2\n              sub\n              swap1\n              return\n                /* \"auction/auction.sol\":513:549  address payable public highestBidder */\n            tag_8:\n              callvalue\n              dup1\n              iszero\n              tag_41\n              jumpi\n              0x00\n              dup1\n              revert\n            tag_41:\n              pop\n              tag_42\n              tag_43\n              jump\t// in\n            tag_42:\n              mload(0x40)\n              tag_44\n              swap2\n              swap1\n              tag_40\n              jump\t// in\n            tag_44:\n              mload(0x40)\n              dup1\n              swap2\n              sub\n              swap1\n              return\n                /* \"auction/auction.sol\":369:389  string public ipHash */\n            tag_9:\n              callvalue\n              dup1\n              iszero\n              tag_45\n              jumpi\n              0x00\n              dup1\n              revert\n            tag_45:\n              pop\n              tag_46\n              tag_47\n              jump\t// in\n            tag_46:\n              mload(0x40)\n              tag_48\n              swap2\n              swap1\n              tag_49\n              jump\t// in\n            tag_48:\n              mload(0x40)\n              dup1\n              swap2\n              sub\n              swap1\n              return\n                /* \"auction/auction.sol\":1324:1409  function cancelAution()public onlyOwner{... */\n            tag_10:\n              callvalue\n              dup1\n              iszero\n              tag_50\n              jumpi\n              0x00\n              dup1\n              revert\n            tag_50:\n              pop\n              tag_51\n              tag_52\n              jump\t// in\n            tag_51:\n              stop\n                /* \"auction/auction.sol\":477:506  uint public highestBindingBid */\n            tag_11:\n              callvalue\n              dup1\n              iszero\n              tag_53\n              jumpi\n              0x00\n              dup1\n              revert\n            tag_53:\n              pop\n              tag_54\n              tag_55\n              jump\t// in\n            tag_54:\n              mload(0x40)\n              tag_56\n              swap2\n              swap1\n              tag_18\n              jump\t// in\n            tag_56:\n              mload(0x40)\n              dup1\n              swap2\n              sub\n              swap1\n              return\n                /* \"auction/auction.sol\":2249:3145  function finalizeAuction()public{... */\n            tag_12:\n              callvalue\n              dup1\n              iszero\n              tag_57\n              jumpi\n              0x00\n              dup1\n              revert\n            tag_57:\n              pop\n              tag_58\n              tag_59\n              jump\t// in\n            tag_58:\n              stop\n                /* \"auction/auction.sol\":342:362  uint public endBlock */\n            tag_16:\n              sload(0x02)\n              dup2\n              jump\t// out\n                /* \"auction/auction.sol\":1579:2241  function pricBid()public payable notOwner afterStart beforeEnd{... */\n            tag_20:\n                /* \"auction/auction.sol\":1087:1092  owner */\n              0x00\n              dup1\n              sload\n              swap1\n              0x0100\n              exp\n              swap1\n              div\n              0xffffffffffffffffffffffffffffffffffffffff\n              and\n                /* \"auction/auction.sol\":1075:1092  msg.sender!=owner */\n              0xffffffffffffffffffffffffffffffffffffffff\n              and\n                /* \"auction/auction.sol\":1075:1085  msg.sender */\n              caller\n                /* \"auction/auction.sol\":1075:1092  msg.sender!=owner */\n              0xffffffffffffffffffffffffffffffffffffffff\n              and\n              sub\n                /* \"auction/auction.sol\":1067:1120  require(msg.sender!=owner,\"owner is not authorition\") */\n              tag_61\n              jumpi\n              mload(0x40)\n              0x08c379a000000000000000000000000000000000000000000000000000000000\n              dup2\n              mstore\n              0x04\n              add\n              tag_62\n              swap1\n              tag_63\n              jump\t// in\n            tag_62:\n              mload(0x40)\n              dup1\n              swap2\n              sub\n              swap1\n              revert\n            tag_61:\n                /* \"auction/auction.sol\":1200:1210  startBlock */\n              sload(0x01)\n                /* \"auction/auction.sol\":1186:1198  block.number */\n              number\n                /* \"auction/auction.sol\":1186:1210  block.number>=startBlock */\n              lt\n              iszero\n                /* \"auction/auction.sol\":1178:1211  require(block.number>=startBlock) */\n              tag_65\n              jumpi\n              0x00\n              dup1\n              revert\n            tag_65:\n                /* \"auction/auction.sol\":1289:1297  endBlock */\n              sload(0x02)\n                /* \"auction/auction.sol\":1276:1288  block.number */\n              number\n                /* \"auction/auction.sol\":1276:1297  block.number<endBlock */\n              lt\n                /* \"auction/auction.sol\":1268:1298  require(block.number<endBlock) */\n              tag_67\n              jumpi\n              0x00\n              dup1\n              revert\n            tag_67:\n                /* \"auction/auction.sol\":1674:1686  State.Runing */\n              0x01\n                /* \"auction/auction.sol\":1660:1686  auctionstate==State.Runing */\n              0x03\n              dup2\n              gt\n              iszero\n              tag_69\n              jumpi\n              tag_70\n              tag_71\n              jump\t// in\n            tag_70:\n            tag_69:\n                /* \"auction/auction.sol\":1660:1672  auctionstate */\n              0x04\n              0x00\n              swap1\n              sload\n              swap1\n              0x0100\n              exp\n              swap1\n              div\n              0xff\n              and\n                /* \"auction/auction.sol\":1660:1686  auctionstate==State.Runing */\n              0x03\n              dup2\n              gt\n              iszero\n              tag_72\n              jumpi\n              tag_73\n              tag_71\n              jump\t// in\n            tag_73:\n            tag_72:\n              eq\n                /* \"auction/auction.sol\":1652:1709  require(auctionstate==State.Runing,\"state is not runing\") */\n              tag_74\n              jumpi\n              mload(0x40)\n              0x08c379a000000000000000000000000000000000000000000000000000000000\n              dup2\n              mstore\n              0x04\n              add\n              tag_75\n              swap1\n              tag_76\n              jump\t// in\n            tag_75:\n              mload(0x40)\n              dup1\n              swap2\n              sub\n              swap1\n              revert\n            tag_74:\n                /* \"auction/auction.sol\":1739:1742  100 */\n              0x64\n                /* \"auction/auction.sol\":1728:1737  msg.value */\n              callvalue\n                /* \"auction/auction.sol\":1728:1742  msg.value>=100 */\n              lt\n              iszero\n                /* \"auction/auction.sol\":1720:1775  require(msg.value>=100,\"your money not bigger 100 wei\") */\n              tag_77\n              jumpi\n              mload(0x40)\n              0x08c379a000000000000000000000000000000000000000000000000000000000\n              dup2\n              mstore\n              0x04\n              add\n              tag_78\n              swap1\n              tag_79\n              jump\t// in\n            tag_78:\n              mload(0x40)\n              dup1\n              swap2\n              sub\n              swap1\n              revert\n            tag_77:\n                /* \"auction/auction.sol\":1786:1801  uint currentBid */\n              0x00\n                /* \"auction/auction.sol\":1819:1828  msg.value */\n              callvalue\n                /* \"auction/auction.sol\":1802:1806  bids */\n              0x07\n                /* \"auction/auction.sol\":1802:1818  bids[msg.sender] */\n              0x00\n                /* \"auction/auction.sol\":1807:1817  msg.sender */\n              caller\n                /* \"auction/auction.sol\":1802:1818  bids[msg.sender] */\n              0xffffffffffffffffffffffffffffffffffffffff\n              and\n              0xffffffffffffffffffffffffffffffffffffffff\n              and\n              dup2\n              mstore\n              0x20\n              add\n              swap1\n              dup2\n              mstore\n              0x20\n              add\n              0x00\n              keccak256\n              sload\n                /* \"auction/auction.sol\":1802:1828  bids[msg.sender]+msg.value */\n              tag_80\n              swap2\n              swap1\n              tag_81\n              jump\t// in\n            tag_80:\n                /* \"auction/auction.sol\":1786:1828  uint currentBid=bids[msg.sender]+msg.value */\n              swap1\n              pop\n                /* \"auction/auction.sol\":1858:1875  highestBindingBid */\n              sload(0x05)\n                /* \"auction/auction.sol\":1847:1857  currentBid */\n              dup2\n                /* \"auction/auction.sol\":1847:1875  currentBid>highestBindingBid */\n              gt\n                /* \"auction/auction.sol\":1839:1910  require(currentBid>highestBindingBid,\"your money not bigger max price\") */\n              tag_82\n              jumpi\n              mload(0x40)\n              0x08c379a000000000000000000000000000000000000000000000000000000000\n              dup2\n              mstore\n              0x04\n              add\n              tag_83\n              swap1\n              tag_84\n              jump\t// in\n            tag_83:\n              mload(0x40)\n              dup1\n              swap2\n              sub\n              swap1\n              revert\n            tag_82:\n                /* \"auction/auction.sol\":1938:1948  currentBid */\n              dup1\n                /* \"auction/auction.sol\":1921:1925  bids */\n              0x07\n                /* \"auction/auction.sol\":1921:1937  bids[msg.sender] */\n              0x00\n                /* \"auction/auction.sol\":1926:1936  msg.sender */\n              caller\n                /* \"auction/auction.sol\":1921:1937  bids[msg.sender] */\n              0xffffffffffffffffffffffffffffffffffffffff\n              and\n              0xffffffffffffffffffffffffffffffffffffffff\n              and\n              dup2\n              mstore\n              0x20\n              add\n              swap1\n              dup2\n              mstore\n              0x20\n              add\n              0x00\n              keccak256\n                /* \"auction/auction.sol\":1921:1948  bids[msg.sender]=currentBid */\n              dup2\n              swap1\n              sstore\n              pop\n                /* \"auction/auction.sol\":1975:1979  bids */\n              0x07\n                /* \"auction/auction.sol\":1975:1994  bids[highestBidder] */\n              0x00\n                /* \"auction/auction.sol\":1980:1993  highestBidder */\n              0x06\n              0x00\n              swap1\n              sload\n              swap1\n              0x0100\n              exp\n              swap1\n              div\n              0xffffffffffffffffffffffffffffffffffffffff\n              and\n                /* \"auction/auction.sol\":1975:1994  bids[highestBidder] */\n              0xffffffffffffffffffffffffffffffffffffffff\n              and\n              0xffffffffffffffffffffffffffffffffffffffff\n              and\n              dup2\n              mstore\n              0x20\n              add\n              swap1\n              dup2\n              mstore\n              0x20\n              add\n              0x00\n              keccak256\n              sload\n                /* \"auction/auction.sol\":1963:1973  currentBid */\n              dup2\n                /* \"auction/auction.sol\":1963:1994  currentBid<=bids[highestBidder] */\n              gt\n                /* \"auction/auction.sol\":1959:2234  if (currentBid<=bids[highestBidder]){... */\n              tag_85\n              jumpi\n                /* \"auction/auction.sol\":2028:2076  min(currentBid+bidIncrement,bids[highestBidder]) */\n              tag_86\n                /* \"auction/auction.sol\":2043:2055  bidIncrement */\n              sload(0x08)\n                /* \"auction/auction.sol\":2032:2042  currentBid */\n              dup3\n                /* \"auction/auction.sol\":2032:2055  currentBid+bidIncrement */\n              tag_87\n              swap2\n              swap1\n              tag_81\n              jump\t// in\n            tag_87:\n                /* \"auction/auction.sol\":2056:2060  bids */\n              0x07\n                /* \"auction/auction.sol\":2056:2075  bids[highestBidder] */\n              0x00\n                /* \"auction/auction.sol\":2061:2074  highestBidder */\n              0x06\n              0x00\n              swap1\n              sload\n              swap1\n              0x0100\n              exp\n              swap1\n              div\n              0xffffffffffffffffffffffffffffffffffffffff\n              and\n                /* \"auction/auction.sol\":2056:2075  bids[highestBidder] */\n              0xffffffffffffffffffffffffffffffffffffffff\n              and\n              0xffffffffffffffffffffffffffffffffffffffff\n              and\n              dup2\n              mstore\n              0x20\n              add\n              swap1\n              dup2\n              mstore\n              0x20\n              add\n              0x00\n              keccak256\n              sload\n                /* \"auction/auction.sol\":2028:2031  min */\n              tag_88\n                /* \"auction/auction.sol\":2028:2076  min(currentBid+bidIncrement,bids[highestBidder]) */\n              jump\t// in\n            tag_86:\n                /* \"auction/auction.sol\":2010:2027  highestBindingBid */\n              0x05\n                /* \"auction/auction.sol\":2010:2076  highestBindingBid=min(currentBid+bidIncrement,bids[highestBidder]) */\n              dup2\n              swap1\n              sstore\n              pop\n                /* \"auction/auction.sol\":1959:2234  if (currentBid<=bids[highestBidder]){... */\n              jump(tag_89)\n            tag_85:\n                /* \"auction/auction.sol\":2126:2174  min(currentBid,bids[highestBidder]+bidIncrement) */\n              tag_90\n                /* \"auction/auction.sol\":2130:2140  currentBid */\n              dup2\n                /* \"auction/auction.sol\":2161:2173  bidIncrement */\n              sload(0x08)\n                /* \"auction/auction.sol\":2141:2145  bids */\n              0x07\n                /* \"auction/auction.sol\":2141:2160  bids[highestBidder] */\n              0x00\n                /* \"auction/auction.sol\":2146:2159  highestBidder */\n              0x06\n              0x00\n              swap1\n              sload\n              swap1\n              0x0100\n              exp\n              swap1\n              div\n              0xffffffffffffffffffffffffffffffffffffffff\n              and\n                /* \"auction/auction.sol\":2141:2160  bids[highestBidder] */\n              0xffffffffffffffffffffffffffffffffffffffff\n              and\n              0xffffffffffffffffffffffffffffffffffffffff\n              and\n              dup2\n              mstore\n              0x20\n              add\n              swap1\n              dup2\n              mstore\n              0x20\n              add\n              0x00\n              keccak256\n              sload\n                /* \"auction/auction.sol\":2141:2173  bids[highestBidder]+bidIncrement */\n              tag_91\n              swap2\n              swap1\n              tag_81\n              jump\t// in\n            tag_91:\n                /* \"auction/auction.sol\":2126:2129  min */\n              tag_88\n                /* \"auction/auction.sol\":2126:2174  min(currentBid,bids[highestBidder]+bidIncrement) */\n              jump\t// in\n            tag_90:\n                /* \"auction/auction.sol\":2108:2125  highestBindingBid */\n              0x05\n                /* \"auction/auction.sol\":2108:2174  highestBindingBid=min(currentBid,bids[highestBidder]+bidIncrement) */\n              dup2\n              swap1\n              sstore\n              pop\n                /* \"auction/auction.sol\":2211:2221  msg.sender */\n              caller\n                /* \"auction/auction.sol\":2189:2202  highestBidder */\n              0x06\n              0x00\n                /* \"auction/auction.sol\":2189:2222  highestBidder=payable(msg.sender) */\n              0x0100\n              exp\n              dup2\n              sload\n              dup2\n              0xffffffffffffffffffffffffffffffffffffffff\n              mul\n              not\n              and\n              swap1\n              dup4\n              0xffffffffffffffffffffffffffffffffffffffff\n              and\n              mul\n              or\n              swap1\n              sstore\n              pop\n                /* \"auction/auction.sol\":1959:2234  if (currentBid<=bids[highestBidder]){... */\n            tag_89:\n                /* \"auction/auction.sol\":1641:2241  {... */\n              pop\n                /* \"auction/auction.sol\":1579:2241  function pricBid()public payable notOwner afterStart beforeEnd{... */\n              jump\t// out\n                /* \"auction/auction.sol\":313:335  uint public startBlock */\n            tag_23:\n              sload(0x01)\n              dup2\n              jump\t// out\n                /* \"auction/auction.sol\":443:468  State public auctionstate */\n            tag_27:\n              0x04\n              0x00\n              swap1\n              sload\n              swap1\n              0x0100\n              exp\n              swap1\n              div\n              0xff\n              and\n              dup2\n              jump\t// out\n                /* \"auction/auction.sol\":556:590  mapping (address=>uint)public bids */\n            tag_34:\n              mstore(0x20, 0x07)\n              dup1\n              0x00\n              mstore\n              keccak256(0x00, 0x40)\n              0x00\n              swap2\n              pop\n              swap1\n              pop\n              sload\n              dup2\n              jump\t// out\n                /* \"auction/auction.sol\":277:306  address payable  public owner */\n            tag_38:\n              0x00\n              dup1\n              sload\n              swap1\n              0x0100\n              exp\n              swap1\n              div\n              0xffffffffffffffffffffffffffffffffffffffff\n              and\n              dup2\n              jump\t// out\n                /* \"auction/auction.sol\":513:549  address payable public highestBidder */\n            tag_43:\n              0x06\n              0x00\n              swap1\n              sload\n              swap1\n              0x0100\n              exp\n              swap1\n              div\n              0xffffffffffffffffffffffffffffffffffffffff\n              and\n              dup2\n              jump\t// out\n                /* \"auction/auction.sol\":369:389  string public ipHash */\n            tag_47:\n              0x03\n              dup1\n              sload\n              tag_92\n              swap1\n              tag_93\n              jump\t// in\n            tag_92:\n              dup1\n              0x1f\n              add\n              0x20\n              dup1\n              swap2\n              div\n              mul\n              0x20\n              add\n              mload(0x40)\n              swap1\n              dup2\n              add\n              0x40\n              mstore\n              dup1\n              swap3\n              swap2\n              swap1\n              dup2\n              dup2\n              mstore\n              0x20\n              add\n              dup3\n              dup1\n              sload\n              tag_94\n              swap1\n              tag_93\n              jump\t// in\n            tag_94:\n              dup1\n              iszero\n              tag_95\n              jumpi\n              dup1\n              0x1f\n              lt\n              tag_96\n              jumpi\n              0x0100\n              dup1\n              dup4\n              sload\n              div\n              mul\n              dup4\n              mstore\n              swap2\n              0x20\n              add\n              swap2\n              jump(tag_95)\n            tag_96:\n              dup3\n              add\n              swap2\n              swap1\n              0x00\n              mstore\n              keccak256(0x00, 0x20)\n              swap1\n            tag_97:\n              dup2\n              sload\n              dup2\n              mstore\n              swap1\n              0x01\n              add\n              swap1\n              0x20\n              add\n              dup1\n              dup4\n              gt\n              tag_97\n              jumpi\n              dup3\n              swap1\n              sub\n              0x1f\n              and\n              dup3\n              add\n              swap2\n            tag_95:\n              pop\n              pop\n              pop\n              pop\n              pop\n              dup2\n              jump\t// out\n                /* \"auction/auction.sol\":1324:1409  function cancelAution()public onlyOwner{... */\n            tag_52:\n                /* \"auction/auction.sol\":975:980  owner */\n              0x00\n              dup1\n              sload\n              swap1\n              0x0100\n              exp\n              swap1\n              div\n              0xffffffffffffffffffffffffffffffffffffffff\n              and\n                /* \"auction/auction.sol\":963:980  msg.sender==owner */\n              0xffffffffffffffffffffffffffffffffffffffff\n              and\n                /* \"auction/auction.sol\":963:973  msg.sender */\n              caller\n                /* \"auction/auction.sol\":963:980  msg.sender==owner */\n              0xffffffffffffffffffffffffffffffffffffffff\n              and\n              eq\n                /* \"auction/auction.sol\":955:1011  require(msg.sender==owner,\"only owner have authorition\") */\n              tag_99\n              jumpi\n              mload(0x40)\n              0x08c379a000000000000000000000000000000000000000000000000000000000\n              dup2\n              mstore\n              0x04\n              add\n              tag_100\n              swap1\n              tag_101\n              jump\t// in\n            tag_100:\n              mload(0x40)\n              dup1\n              swap2\n              sub\n              swap1\n              revert\n            tag_99:\n                /* \"auction/auction.sol\":1387:1401  State.Canceled */\n              0x03\n                /* \"auction/auction.sol\":1374:1386  auctionstate */\n              0x04\n              0x00\n                /* \"auction/auction.sol\":1374:1401  auctionstate=State.Canceled */\n              0x0100\n              exp\n              dup2\n              sload\n              dup2\n              0xff\n              mul\n              not\n              and\n              swap1\n              dup4\n              0x03\n              dup2\n              gt\n              iszero\n              tag_103\n              jumpi\n              tag_104\n              tag_71\n              jump\t// in\n            tag_104:\n            tag_103:\n              mul\n              or\n              swap1\n              sstore\n              pop\n                /* \"auction/auction.sol\":1324:1409  function cancelAution()public onlyOwner{... */\n              jump\t// out\n                /* \"auction/auction.sol\":477:506  uint public highestBindingBid */\n            tag_55:\n              sload(0x05)\n              dup2\n              jump\t// out\n                /* \"auction/auction.sol\":2249:3145  function finalizeAuction()public{... */\n            tag_59:\n                /* \"auction/auction.sol\":2314:2328  State.Canceled */\n              0x03\n                /* \"auction/auction.sol\":2300:2328  auctionstate==State.Canceled */\n              dup1\n              dup2\n              gt\n              iszero\n              tag_106\n              jumpi\n              tag_107\n              tag_71\n              jump\t// in\n            tag_107:\n            tag_106:\n                /* \"auction/auction.sol\":2300:2312  auctionstate */\n              0x04\n              0x00\n              swap1\n              sload\n              swap1\n              0x0100\n              exp\n              swap1\n              div\n              0xff\n              and\n                /* \"auction/auction.sol\":2300:2328  auctionstate==State.Canceled */\n              0x03\n              dup2\n              gt\n              iszero\n              tag_108\n              jumpi\n              tag_109\n              tag_71\n              jump\t// in\n            tag_109:\n            tag_108:\n              eq\n                /* \"auction/auction.sol\":2300:2352  auctionstate==State.Canceled||block.number==endBlock */\n              dup1\n              tag_110\n              jumpi\n              pop\n                /* \"auction/auction.sol\":2344:2352  endBlock */\n              sload(0x02)\n                /* \"auction/auction.sol\":2330:2342  block.number */\n              number\n                /* \"auction/auction.sol\":2330:2352  block.number==endBlock */\n              eq\n                /* \"auction/auction.sol\":2300:2352  auctionstate==State.Canceled||block.number==endBlock */\n            tag_110:\n                /* \"auction/auction.sol\":2292:2353  require(auctionstate==State.Canceled||block.number==endBlock) */\n              tag_111\n              jumpi\n              0x00\n              dup1\n              revert\n            tag_111:\n                /* \"auction/auction.sol\":2384:2389  owner */\n              0x00\n              dup1\n              sload\n              swap1\n              0x0100\n              exp\n              swap1\n              div\n              0xffffffffffffffffffffffffffffffffffffffff\n              and\n                /* \"auction/auction.sol\":2372:2389  msg.sender==owner */\n              0xffffffffffffffffffffffffffffffffffffffff\n              and\n                /* \"auction/auction.sol\":2372:2382  msg.sender */\n              caller\n                /* \"auction/auction.sol\":2372:2389  msg.sender==owner */\n              0xffffffffffffffffffffffffffffffffffffffff\n              and\n              eq\n                /* \"auction/auction.sol\":2372:2409  msg.sender==owner||bids[msg.sender]>0 */\n              dup1\n              tag_112\n              jumpi\n              pop\n                /* \"auction/auction.sol\":2408:2409  0 */\n              0x00\n                /* \"auction/auction.sol\":2391:2395  bids */\n              0x07\n                /* \"auction/auction.sol\":2391:2407  bids[msg.sender] */\n              0x00\n                /* \"auction/auction.sol\":2396:2406  msg.sender */\n              caller\n                /* \"auction/auction.sol\":2391:2407  bids[msg.sender] */\n              0xffffffffffffffffffffffffffffffffffffffff\n              and\n              0xffffffffffffffffffffffffffffffffffffffff\n              and\n              dup2\n              mstore\n              0x20\n              add\n              swap1\n              dup2\n              mstore\n              0x20\n              add\n              0x00\n              keccak256\n              sload\n                /* \"auction/auction.sol\":2391:2409  bids[msg.sender]>0 */\n              gt\n                /* \"auction/auction.sol\":2372:2409  msg.sender==owner||bids[msg.sender]>0 */\n            tag_112:\n                /* \"auction/auction.sol\":2364:2410  require(msg.sender==owner||bids[msg.sender]>0) */\n              tag_113\n              jumpi\n              0x00\n              dup1\n              revert\n            tag_113:\n                /* \"auction/auction.sol\":2421:2446  address payable recipient */\n              0x00\n                /* \"auction/auction.sol\":2457:2467  uint value */\n              dup1\n                /* \"auction/auction.sol\":2498:2512  State.Canceled */\n              0x03\n                /* \"auction/auction.sol\":2484:2512  auctionstate==State.Canceled */\n              dup1\n              dup2\n              gt\n              iszero\n              tag_114\n              jumpi\n              tag_115\n              tag_71\n              jump\t// in\n            tag_115:\n            tag_114:\n                /* \"auction/auction.sol\":2484:2496  auctionstate */\n              0x04\n              0x00\n              swap1\n              sload\n              swap1\n              0x0100\n              exp\n              swap1\n              div\n              0xff\n              and\n                /* \"auction/auction.sol\":2484:2512  auctionstate==State.Canceled */\n              0x03\n              dup2\n              gt\n              iszero\n              tag_116\n              jumpi\n              tag_117\n              tag_71\n              jump\t// in\n            tag_117:\n            tag_116:\n              sub\n                /* \"auction/auction.sol\":2480:3074  if (auctionstate==State.Canceled){... */\n              tag_118\n              jumpi\n                /* \"auction/auction.sol\":2546:2556  msg.sender */\n              caller\n                /* \"auction/auction.sol\":2528:2557  recipient=payable(msg.sender) */\n              swap2\n              pop\n                /* \"auction/auction.sol\":2578:2582  bids */\n              0x07\n                /* \"auction/auction.sol\":2578:2594  bids[msg.sender] */\n              0x00\n                /* \"auction/auction.sol\":2583:2593  msg.sender */\n              caller\n                /* \"auction/auction.sol\":2578:2594  bids[msg.sender] */\n              0xffffffffffffffffffffffffffffffffffffffff\n              and\n              0xffffffffffffffffffffffffffffffffffffffff\n              and\n              dup2\n              mstore\n              0x20\n              add\n              swap1\n              dup2\n              mstore\n              0x20\n              add\n              0x00\n              keccak256\n              sload\n                /* \"auction/auction.sol\":2572:2594  value=bids[msg.sender] */\n              swap1\n              pop\n                /* \"auction/auction.sol\":2480:3074  if (auctionstate==State.Canceled){... */\n              jump(tag_119)\n            tag_118:\n                /* \"auction/auction.sol\":2642:2647  owner */\n              0x00\n              dup1\n              sload\n              swap1\n              0x0100\n              exp\n              swap1\n              div\n              0xffffffffffffffffffffffffffffffffffffffff\n              and\n                /* \"auction/auction.sol\":2630:2647  msg.sender==owner */\n              0xffffffffffffffffffffffffffffffffffffffff\n              and\n                /* \"auction/auction.sol\":2630:2640  msg.sender */\n              caller\n                /* \"auction/auction.sol\":2630:2647  msg.sender==owner */\n              0xffffffffffffffffffffffffffffffffffffffff\n              and\n              sub\n                /* \"auction/auction.sol\":2626:3063  if (msg.sender==owner){... */\n              tag_120\n              jumpi\n                /* \"auction/auction.sol\":2677:2682  owner */\n              0x00\n              dup1\n              sload\n              swap1\n              0x0100\n              exp\n              swap1\n              div\n              0xffffffffffffffffffffffffffffffffffffffff\n              and\n                /* \"auction/auction.sol\":2667:2682  recipient=owner */\n              swap2\n              pop\n                /* \"auction/auction.sol\":2707:2724  highestBindingBid */\n              sload(0x05)\n                /* \"auction/auction.sol\":2701:2724  value=highestBindingBid */\n              swap1\n              pop\n                /* \"auction/auction.sol\":2626:3063  if (msg.sender==owner){... */\n              jump(tag_121)\n            tag_120:\n                /* \"auction/auction.sol\":2780:2793  highestBidder */\n              0x06\n              0x00\n              swap1\n              sload\n              swap1\n              0x0100\n              exp\n              swap1\n              div\n              0xffffffffffffffffffffffffffffffffffffffff\n              and\n                /* \"auction/auction.sol\":2768:2793  msg.sender==highestBidder */\n              0xffffffffffffffffffffffffffffffffffffffff\n              and\n                /* \"auction/auction.sol\":2768:2778  msg.sender */\n              caller\n                /* \"auction/auction.sol\":2768:2793  msg.sender==highestBidder */\n              0xffffffffffffffffffffffffffffffffffffffff\n              and\n              sub\n                /* \"auction/auction.sol\":2764:3048  if (msg.sender==highestBidder){... */\n              tag_122\n              jumpi\n                /* \"auction/auction.sol\":2827:2840  highestBidder */\n              0x06\n              0x00\n              swap1\n              sload\n              swap1\n              0x0100\n              exp\n              swap1\n              div\n              0xffffffffffffffffffffffffffffffffffffffff\n              and\n                /* \"auction/auction.sol\":2817:2840  recipient=highestBidder */\n              swap2\n              pop\n                /* \"auction/auction.sol\":2889:2906  highestBindingBid */\n              sload(0x05)\n                /* \"auction/auction.sol\":2869:2873  bids */\n              0x07\n                /* \"auction/auction.sol\":2869:2888  bids[highestBidder] */\n              0x00\n                /* \"auction/auction.sol\":2874:2887  highestBidder */\n              0x06\n              0x00\n              swap1\n              sload\n              swap1\n              0x0100\n              exp\n              swap1\n              div\n              0xffffffffffffffffffffffffffffffffffffffff\n              and\n                /* \"auction/auction.sol\":2869:2888  bids[highestBidder] */\n              0xffffffffffffffffffffffffffffffffffffffff\n              and\n              0xffffffffffffffffffffffffffffffffffffffff\n              and\n              dup2\n              mstore\n              0x20\n              add\n              swap1\n              dup2\n              mstore\n              0x20\n              add\n              0x00\n              keccak256\n              sload\n                /* \"auction/auction.sol\":2869:2906  bids[highestBidder]-highestBindingBid */\n              tag_123\n              swap2\n              swap1\n              tag_124\n              jump\t// in\n            tag_123:\n                /* \"auction/auction.sol\":2863:2906  value=bids[highestBidder]-highestBindingBid */\n              swap1\n              pop\n                /* \"auction/auction.sol\":2764:3048  if (msg.sender==highestBidder){... */\n              jump(tag_125)\n            tag_122:\n                /* \"auction/auction.sol\":2972:2982  msg.sender */\n              caller\n                /* \"auction/auction.sol\":2954:2983  recipient=payable(msg.sender) */\n              swap2\n              pop\n                /* \"auction/auction.sol\":3012:3016  bids */\n              0x07\n                /* \"auction/auction.sol\":3012:3028  bids[msg.sender] */\n              0x00\n                /* \"auction/auction.sol\":3017:3027  msg.sender */\n              caller\n                /* \"auction/auction.sol\":3012:3028  bids[msg.sender] */\n              0xffffffffffffffffffffffffffffffffffffffff\n              and\n              0xffffffffffffffffffffffffffffffffffffffff\n              and\n              dup2\n              mstore\n              0x20\n              add\n              swap1\n              dup2\n              mstore\n              0x20\n              add\n              0x00\n              keccak256\n              sload\n                /* \"auction/auction.sol\":3006:3028  value=bids[msg.sender] */\n              swap1\n              pop\n                /* \"auction/auction.sol\":2764:3048  if (msg.sender==highestBidder){... */\n            tag_125:\n                /* \"auction/auction.sol\":2626:3063  if (msg.sender==owner){... */\n            tag_121:\n                /* \"auction/auction.sol\":2480:3074  if (auctionstate==State.Canceled){... */\n            tag_119:\n                /* \"auction/auction.sol\":3100:3101  0 */\n              0x00\n                /* \"auction/auction.sol\":3084:3088  bids */\n              0x07\n                /* \"auction/auction.sol\":3084:3099  bids[recipient] */\n              0x00\n                /* \"auction/auction.sol\":3089:3098  recipient */\n              dup5\n                /* \"auction/auction.sol\":3084:3099  bids[recipient] */\n              0xffffffffffffffffffffffffffffffffffffffff\n              and\n              0xffffffffffffffffffffffffffffffffffffffff\n              and\n              dup2\n              mstore\n              0x20\n              add\n              swap1\n              dup2\n              mstore\n              0x20\n              add\n              0x00\n              keccak256\n                /* \"auction/auction.sol\":3084:3101  bids[recipient]=0 */\n              dup2\n              swap1\n              sstore\n              pop\n                /* \"auction/auction.sol\":3112:3121  recipient */\n              dup2\n                /* \"auction/auction.sol\":3112:3130  recipient.transfer */\n              0xffffffffffffffffffffffffffffffffffffffff\n              and\n                /* \"auction/auction.sol\":3112:3137  recipient.transfer(value) */\n              0x08fc\n                /* \"auction/auction.sol\":3131:3136  value */\n              dup3\n                /* \"auction/auction.sol\":3112:3137  recipient.transfer(value) */\n              swap1\n              dup2\n              iszero\n              mul\n              swap1\n              mload(0x40)\n              0x00\n              mload(0x40)\n              dup1\n              dup4\n              sub\n              dup2\n              dup6\n              dup9\n              dup9\n              call\n              swap4\n              pop\n              pop\n              pop\n              pop\n              iszero\n              dup1\n              iszero\n              tag_127\n              jumpi\n              returndatasize\n              0x00\n              dup1\n              returndatacopy\n              revert(0x00, returndatasize)\n            tag_127:\n              pop\n                /* \"auction/auction.sol\":2281:3145  {... */\n              pop\n              pop\n                /* \"auction/auction.sol\":2249:3145  function finalizeAuction()public{... */\n              jump\t// out\n                /* \"auction/auction.sol\":1415:1571  function min(uint a,uint b)pure internal  returns(uint){... */\n            tag_88:\n                /* \"auction/auction.sol\":1465:1469  uint */\n              0x00\n                /* \"auction/auction.sol\":1487:1488  b */\n              dup2\n                /* \"auction/auction.sol\":1485:1486  a */\n              dup4\n                /* \"auction/auction.sol\":1485:1488  a>b */\n              gt\n                /* \"auction/auction.sol\":1481:1564  if (a>b){... */\n              iszero\n              tag_129\n              jumpi\n                /* \"auction/auction.sol\":1511:1512  b */\n              dup2\n                /* \"auction/auction.sol\":1504:1512  return b */\n              swap1\n              pop\n              jump(tag_128)\n                /* \"auction/auction.sol\":1481:1564  if (a>b){... */\n            tag_129:\n                /* \"auction/auction.sol\":1551:1552  a */\n              dup3\n                /* \"auction/auction.sol\":1544:1552  return a */\n              swap1\n              pop\n                /* \"auction/auction.sol\":1415:1571  function min(uint a,uint b)pure internal  returns(uint){... */\n            tag_128:\n              swap3\n              swap2\n              pop\n              pop\n              jump\t// out\n                /* \"#utility.yul\":7:84   */\n            tag_131:\n                /* \"#utility.yul\":44:51   */\n              0x00\n                /* \"#utility.yul\":73:78   */\n              dup2\n                /* \"#utility.yul\":62:78   */\n              swap1\n              pop\n                /* \"#utility.yul\":7:84   */\n              swap2\n              swap1\n              pop\n              jump\t// out\n                /* \"#utility.yul\":90:208   */\n            tag_132:\n                /* \"#utility.yul\":177:201   */\n              tag_166\n                /* \"#utility.yul\":195:200   */\n              dup2\n                /* \"#utility.yul\":177:201   */\n              tag_131\n              jump\t// in\n            tag_166:\n                /* \"#utility.yul\":172:175   */\n              dup3\n                /* \"#utility.yul\":165:202   */\n              mstore\n                /* \"#utility.yul\":90:208   */\n              pop\n              pop\n              jump\t// out\n                /* \"#utility.yul\":214:436   */\n            tag_18:\n                /* \"#utility.yul\":307:311   */\n              0x00\n                /* \"#utility.yul\":345:347   */\n              0x20\n                /* \"#utility.yul\":334:343   */\n              dup3\n                /* \"#utility.yul\":330:348   */\n              add\n                /* \"#utility.yul\":322:348   */\n              swap1\n              pop\n                /* \"#utility.yul\":358:429   */\n              tag_168\n                /* \"#utility.yul\":426:427   */\n              0x00\n                /* \"#utility.yul\":415:424   */\n              dup4\n                /* \"#utility.yul\":411:428   */\n              add\n                /* \"#utility.yul\":402:408   */\n              dup5\n                /* \"#utility.yul\":358:429   */\n              tag_132\n              jump\t// in\n            tag_168:\n                /* \"#utility.yul\":214:436   */\n              swap3\n              swap2\n              pop\n              pop\n              jump\t// out\n                /* \"#utility.yul\":442:622   */\n            tag_71:\n                /* \"#utility.yul\":490:567   */\n              0x4e487b7100000000000000000000000000000000000000000000000000000000\n                /* \"#utility.yul\":487:488   */\n              0x00\n                /* \"#utility.yul\":480:568   */\n              mstore\n                /* \"#utility.yul\":587:591   */\n              0x21\n                /* \"#utility.yul\":584:585   */\n              0x04\n                /* \"#utility.yul\":577:592   */\n              mstore\n                /* \"#utility.yul\":611:615   */\n              0x24\n                /* \"#utility.yul\":608:609   */\n              0x00\n                /* \"#utility.yul\":601:616   */\n              revert\n                /* \"#utility.yul\":628:741   */\n            tag_133:\n                /* \"#utility.yul\":709:710   */\n              0x04\n                /* \"#utility.yul\":702:707   */\n              dup2\n                /* \"#utility.yul\":699:711   */\n              lt\n                /* \"#utility.yul\":689:735   */\n              tag_171\n              jumpi\n                /* \"#utility.yul\":715:733   */\n              tag_172\n              tag_71\n              jump\t// in\n            tag_172:\n                /* \"#utility.yul\":689:735   */\n            tag_171:\n                /* \"#utility.yul\":628:741   */\n              pop\n              jump\t// out\n                /* \"#utility.yul\":747:874   */\n            tag_134:\n                /* \"#utility.yul\":792:799   */\n              0x00\n                /* \"#utility.yul\":821:826   */\n              dup2\n                /* \"#utility.yul\":810:826   */\n              swap1\n              pop\n                /* \"#utility.yul\":827:868   */\n              tag_174\n                /* \"#utility.yul\":862:867   */\n              dup3\n                /* \"#utility.yul\":827:868   */\n              tag_133\n              jump\t// in\n            tag_174:\n                /* \"#utility.yul\":747:874   */\n              swap2\n              swap1\n              pop\n              jump\t// out\n                /* \"#utility.yul\":880:1007   */\n            tag_135:\n                /* \"#utility.yul\":936:945   */\n              0x00\n                /* \"#utility.yul\":969:1001   */\n              tag_176\n                /* \"#utility.yul\":995:1000   */\n              dup3\n                /* \"#utility.yul\":969:1001   */\n              tag_134\n              jump\t// in\n            tag_176:\n                /* \"#utility.yul\":956:1001   */\n              swap1\n              pop\n                /* \"#utility.yul\":880:1007   */\n              swap2\n              swap1\n              pop\n              jump\t// out\n                /* \"#utility.yul\":1013:1156   */\n            tag_136:\n                /* \"#utility.yul\":1106:1149   */\n              tag_178\n                /* \"#utility.yul\":1143:1148   */\n              dup2\n                /* \"#utility.yul\":1106:1149   */\n              tag_135\n              jump\t// in\n            tag_178:\n                /* \"#utility.yul\":1101:1104   */\n              dup3\n                /* \"#utility.yul\":1094:1150   */\n              mstore\n                /* \"#utility.yul\":1013:1156   */\n              pop\n              pop\n              jump\t// out\n                /* \"#utility.yul\":1162:1396   */\n            tag_29:\n                /* \"#utility.yul\":1261:1265   */\n              0x00\n                /* \"#utility.yul\":1299:1301   */\n              0x20\n                /* \"#utility.yul\":1288:1297   */\n              dup3\n                /* \"#utility.yul\":1284:1302   */\n              add\n                /* \"#utility.yul\":1276:1302   */\n              swap1\n              pop\n                /* \"#utility.yul\":1312:1389   */\n              tag_180\n                /* \"#utility.yul\":1386:1387   */\n              0x00\n                /* \"#utility.yul\":1375:1384   */\n              dup4\n                /* \"#utility.yul\":1371:1388   */\n              add\n                /* \"#utility.yul\":1362:1368   */\n              dup5\n                /* \"#utility.yul\":1312:1389   */\n              tag_136\n              jump\t// in\n            tag_180:\n                /* \"#utility.yul\":1162:1396   */\n              swap3\n              swap2\n              pop\n              pop\n              jump\t// out\n                /* \"#utility.yul\":1483:1600   */\n            tag_138:\n                /* \"#utility.yul\":1592:1593   */\n              0x00\n                /* \"#utility.yul\":1589:1590   */\n              dup1\n                /* \"#utility.yul\":1582:1594   */\n              revert\n                /* \"#utility.yul\":1729:1855   */\n            tag_140:\n                /* \"#utility.yul\":1766:1773   */\n              0x00\n                /* \"#utility.yul\":1806:1848   */\n              0xffffffffffffffffffffffffffffffffffffffff\n                /* \"#utility.yul\":1799:1804   */\n              dup3\n                /* \"#utility.yul\":1795:1849   */\n              and\n                /* \"#utility.yul\":1784:1849   */\n              swap1\n              pop\n                /* \"#utility.yul\":1729:1855   */\n              swap2\n              swap1\n              pop\n              jump\t// out\n                /* \"#utility.yul\":1861:1957   */\n            tag_141:\n                /* \"#utility.yul\":1898:1905   */\n              0x00\n                /* \"#utility.yul\":1927:1951   */\n              tag_186\n                /* \"#utility.yul\":1945:1950   */\n              dup3\n                /* \"#utility.yul\":1927:1951   */\n              tag_140\n              jump\t// in\n            tag_186:\n                /* \"#utility.yul\":1916:1951   */\n              swap1\n              pop\n                /* \"#utility.yul\":1861:1957   */\n              swap2\n              swap1\n              pop\n              jump\t// out\n                /* \"#utility.yul\":1963:2085   */\n            tag_142:\n                /* \"#utility.yul\":2036:2060   */\n              tag_188\n                /* \"#utility.yul\":2054:2059   */\n              dup2\n                /* \"#utility.yul\":2036:2060   */\n              tag_141\n              jump\t// in\n            tag_188:\n                /* \"#utility.yul\":2029:2034   */\n              dup2\n                /* \"#utility.yul\":2026:2061   */\n              eq\n                /* \"#utility.yul\":2016:2079   */\n              tag_189\n              jumpi\n                /* \"#utility.yul\":2075:2076   */\n              0x00\n                /* \"#utility.yul\":2072:2073   */\n              dup1\n                /* \"#utility.yul\":2065:2077   */\n              revert\n                /* \"#utility.yul\":2016:2079   */\n            tag_189:\n                /* \"#utility.yul\":1963:2085   */\n              pop\n              jump\t// out\n                /* \"#utility.yul\":2091:2230   */\n            tag_143:\n                /* \"#utility.yul\":2137:2142   */\n              0x00\n                /* \"#utility.yul\":2175:2181   */\n              dup2\n                /* \"#utility.yul\":2162:2182   */\n              calldataload\n                /* \"#utility.yul\":2153:2182   */\n              swap1\n              pop\n                /* \"#utility.yul\":2191:2224   */\n              tag_191\n                /* \"#utility.yul\":2218:2223   */\n              dup2\n                /* \"#utility.yul\":2191:2224   */\n              tag_142\n              jump\t// in\n            tag_191:\n                /* \"#utility.yul\":2091:2230   */\n              swap3\n              swap2\n              pop\n              pop\n              jump\t// out\n                /* \"#utility.yul\":2236:2565   */\n            tag_33:\n                /* \"#utility.yul\":2295:2301   */\n              0x00\n                /* \"#utility.yul\":2344:2346   */\n              0x20\n                /* \"#utility.yul\":2332:2341   */\n              dup3\n                /* \"#utility.yul\":2323:2330   */\n              dup5\n                /* \"#utility.yul\":2319:2342   */\n              sub\n                /* \"#utility.yul\":2315:2347   */\n              slt\n                /* \"#utility.yul\":2312:2431   */\n              iszero\n              tag_193\n              jumpi\n                /* \"#utility.yul\":2350:2429   */\n              tag_194\n              tag_138\n              jump\t// in\n            tag_194:\n                /* \"#utility.yul\":2312:2431   */\n            tag_193:\n                /* \"#utility.yul\":2470:2471   */\n              0x00\n                /* \"#utility.yul\":2495:2548   */\n              tag_195\n                /* \"#utility.yul\":2540:2547   */\n              dup5\n                /* \"#utility.yul\":2531:2537   */\n              dup3\n                /* \"#utility.yul\":2520:2529   */\n              dup6\n                /* \"#utility.yul\":2516:2538   */\n              add\n                /* \"#utility.yul\":2495:2548   */\n              tag_143\n              jump\t// in\n            tag_195:\n                /* \"#utility.yul\":2485:2548   */\n              swap2\n              pop\n                /* \"#utility.yul\":2441:2558   */\n              pop\n                /* \"#utility.yul\":2236:2565   */\n              swap3\n              swap2\n              pop\n              pop\n              jump\t// out\n                /* \"#utility.yul\":2571:2675   */\n            tag_144:\n                /* \"#utility.yul\":2616:2623   */\n              0x00\n                /* \"#utility.yul\":2645:2669   */\n              tag_197\n                /* \"#utility.yul\":2663:2668   */\n              dup3\n                /* \"#utility.yul\":2645:2669   */\n              tag_140\n              jump\t// in\n            tag_197:\n                /* \"#utility.yul\":2634:2669   */\n              swap1\n              pop\n                /* \"#utility.yul\":2571:2675   */\n              swap2\n              swap1\n              pop\n              jump\t// out\n                /* \"#utility.yul\":2681:2823   */\n            tag_145:\n                /* \"#utility.yul\":2784:2816   */\n              tag_199\n                /* \"#utility.yul\":2810:2815   */\n              dup2\n                /* \"#utility.yul\":2784:2816   */\n              tag_144\n              jump\t// in\n            tag_199:\n                /* \"#utility.yul\":2779:2782   */\n              dup3\n                /* \"#utility.yul\":2772:2817   */\n              mstore\n                /* \"#utility.yul\":2681:2823   */\n              pop\n              pop\n              jump\t// out\n                /* \"#utility.yul\":2829:3083   */\n            tag_40:\n                /* \"#utility.yul\":2938:2942   */\n              0x00\n                /* \"#utility.yul\":2976:2978   */\n              0x20\n                /* \"#utility.yul\":2965:2974   */\n              dup3\n                /* \"#utility.yul\":2961:2979   */\n              add\n                /* \"#utility.yul\":2953:2979   */\n              swap1\n              pop\n                /* \"#utility.yul\":2989:3076   */\n              tag_201\n                /* \"#utility.yul\":3073:3074   */\n              0x00\n                /* \"#utility.yul\":3062:3071   */\n              dup4\n                /* \"#utility.yul\":3058:3075   */\n              add\n                /* \"#utility.yul\":3049:3055   */\n              dup5\n                /* \"#utility.yul\":2989:3076   */\n              tag_145\n              jump\t// in\n            tag_201:\n                /* \"#utility.yul\":2829:3083   */\n              swap3\n              swap2\n              pop\n              pop\n              jump\t// out\n                /* \"#utility.yul\":3089:3188   */\n            tag_146:\n                /* \"#utility.yul\":3141:3147   */\n              0x00\n                /* \"#utility.yul\":3175:3180   */\n              dup2\n                /* \"#utility.yul\":3169:3181   */\n              mload\n                /* \"#utility.yul\":3159:3181   */\n              swap1\n              pop\n                /* \"#utility.yul\":3089:3188   */\n              swap2\n              swap1\n              pop\n              jump\t// out\n                /* \"#utility.yul\":3194:3363   */\n            tag_147:\n                /* \"#utility.yul\":3278:3289   */\n              0x00\n                /* \"#utility.yul\":3312:3318   */\n              dup3\n                /* \"#utility.yul\":3307:3310   */\n              dup3\n                /* \"#utility.yul\":3300:3319   */\n              mstore\n                /* \"#utility.yul\":3352:3356   */\n              0x20\n                /* \"#utility.yul\":3347:3350   */\n              dup3\n                /* \"#utility.yul\":3343:3357   */\n              add\n                /* \"#utility.yul\":3328:3357   */\n              swap1\n              pop\n                /* \"#utility.yul\":3194:3363   */\n              swap3\n              swap2\n              pop\n              pop\n              jump\t// out\n                /* \"#utility.yul\":3369:3615   */\n            tag_148:\n                /* \"#utility.yul\":3450:3451   */\n              0x00\n                /* \"#utility.yul\":3460:3573   */\n            tag_205:\n                /* \"#utility.yul\":3474:3480   */\n              dup4\n                /* \"#utility.yul\":3471:3472   */\n              dup2\n                /* \"#utility.yul\":3468:3481   */\n              lt\n                /* \"#utility.yul\":3460:3573   */\n              iszero\n              tag_207\n              jumpi\n                /* \"#utility.yul\":3559:3560   */\n              dup1\n                /* \"#utility.yul\":3554:3557   */\n              dup3\n                /* \"#utility.yul\":3550:3561   */\n              add\n                /* \"#utility.yul\":3544:3562   */\n              mload\n                /* \"#utility.yul\":3540:3541   */\n              dup2\n                /* \"#utility.yul\":3535:3538   */\n              dup5\n                /* \"#utility.yul\":3531:3542   */\n              add\n                /* \"#utility.yul\":3524:3563   */\n              mstore\n                /* \"#utility.yul\":3496:3498   */\n              0x20\n                /* \"#utility.yul\":3493:3494   */\n              dup2\n                /* \"#utility.yul\":3489:3499   */\n              add\n                /* \"#utility.yul\":3484:3499   */\n              swap1\n              pop\n                /* \"#utility.yul\":3460:3573   */\n              jump(tag_205)\n            tag_207:\n                /* \"#utility.yul\":3607:3608   */\n              0x00\n                /* \"#utility.yul\":3598:3604   */\n              dup5\n                /* \"#utility.yul\":3593:3596   */\n              dup5\n                /* \"#utility.yul\":3589:3605   */\n              add\n                /* \"#utility.yul\":3582:3609   */\n              mstore\n                /* \"#utility.yul\":3431:3615   */\n              pop\n                /* \"#utility.yul\":3369:3615   */\n              pop\n              pop\n              pop\n              jump\t// out\n                /* \"#utility.yul\":3621:3723   */\n            tag_149:\n                /* \"#utility.yul\":3662:3668   */\n              0x00\n                /* \"#utility.yul\":3713:3715   */\n              0x1f\n                /* \"#utility.yul\":3709:3716   */\n              not\n                /* \"#utility.yul\":3704:3706   */\n              0x1f\n                /* \"#utility.yul\":3697:3702   */\n              dup4\n                /* \"#utility.yul\":3693:3707   */\n              add\n                /* \"#utility.yul\":3689:3717   */\n              and\n                /* \"#utility.yul\":3679:3717   */\n              swap1\n              pop\n                /* \"#utility.yul\":3621:3723   */\n              swap2\n              swap1\n              pop\n              jump\t// out\n                /* \"#utility.yul\":3729:4106   */\n            tag_150:\n                /* \"#utility.yul\":3817:3820   */\n              0x00\n                /* \"#utility.yul\":3845:3884   */\n              tag_210\n                /* \"#utility.yul\":3878:3883   */\n              dup3\n                /* \"#utility.yul\":3845:3884   */\n              tag_146\n              jump\t// in\n            tag_210:\n                /* \"#utility.yul\":3900:3971   */\n              tag_211\n                /* \"#utility.yul\":3964:3970   */\n              dup2\n                /* \"#utility.yul\":3959:3962   */\n              dup6\n                /* \"#utility.yul\":3900:3971   */\n              tag_147\n              jump\t// in\n            tag_211:\n                /* \"#utility.yul\":3893:3971   */\n              swap4\n              pop\n                /* \"#utility.yul\":3980:4045   */\n              tag_212\n                /* \"#utility.yul\":4038:4044   */\n              dup2\n                /* \"#utility.yul\":4033:4036   */\n              dup6\n                /* \"#utility.yul\":4026:4030   */\n              0x20\n                /* \"#utility.yul\":4019:4024   */\n              dup7\n                /* \"#utility.yul\":4015:4031   */\n              add\n                /* \"#utility.yul\":3980:4045   */\n              tag_148\n              jump\t// in\n            tag_212:\n                /* \"#utility.yul\":4070:4099   */\n              tag_213\n                /* \"#utility.yul\":4092:4098   */\n              dup2\n                /* \"#utility.yul\":4070:4099   */\n              tag_149\n              jump\t// in\n            tag_213:\n                /* \"#utility.yul\":4065:4068   */\n              dup5\n                /* \"#utility.yul\":4061:4100   */\n              add\n                /* \"#utility.yul\":4054:4100   */\n              swap2\n              pop\n                /* \"#utility.yul\":3821:4106   */\n              pop\n                /* \"#utility.yul\":3729:4106   */\n              swap3\n              swap2\n              pop\n              pop\n              jump\t// out\n                /* \"#utility.yul\":4112:4425   */\n            tag_49:\n                /* \"#utility.yul\":4225:4229   */\n              0x00\n                /* \"#utility.yul\":4263:4265   */\n              0x20\n                /* \"#utility.yul\":4252:4261   */\n              dup3\n                /* \"#utility.yul\":4248:4266   */\n              add\n                /* \"#utility.yul\":4240:4266   */\n              swap1\n              pop\n                /* \"#utility.yul\":4312:4321   */\n              dup2\n                /* \"#utility.yul\":4306:4310   */\n              dup2\n                /* \"#utility.yul\":4302:4322   */\n              sub\n                /* \"#utility.yul\":4298:4299   */\n              0x00\n                /* \"#utility.yul\":4287:4296   */\n              dup4\n                /* \"#utility.yul\":4283:4300   */\n              add\n                /* \"#utility.yul\":4276:4323   */\n              mstore\n                /* \"#utility.yul\":4340:4418   */\n              tag_215\n                /* \"#utility.yul\":4413:4417   */\n              dup2\n                /* \"#utility.yul\":4404:4410   */\n              dup5\n                /* \"#utility.yul\":4340:4418   */\n              tag_150\n              jump\t// in\n            tag_215:\n                /* \"#utility.yul\":4332:4418   */\n              swap1\n              pop\n                /* \"#utility.yul\":4112:4425   */\n              swap3\n              swap2\n              pop\n              pop\n              jump\t// out\n                /* \"#utility.yul\":4431:4605   */\n            tag_151:\n                /* \"#utility.yul\":4571:4597   */\n              0x6f776e6572206973206e6f7420617574686f726974696f6e0000000000000000\n                /* \"#utility.yul\":4567:4568   */\n              0x00\n                /* \"#utility.yul\":4559:4565   */\n              dup3\n                /* \"#utility.yul\":4555:4569   */\n              add\n                /* \"#utility.yul\":4548:4598   */\n              mstore\n                /* \"#utility.yul\":4431:4605   */\n              pop\n              jump\t// out\n                /* \"#utility.yul\":4611:4977   */\n            tag_152:\n                /* \"#utility.yul\":4753:4756   */\n              0x00\n                /* \"#utility.yul\":4774:4841   */\n              tag_218\n                /* \"#utility.yul\":4838:4840   */\n              0x18\n                /* \"#utility.yul\":4833:4836   */\n              dup4\n                /* \"#utility.yul\":4774:4841   */\n              tag_147\n              jump\t// in\n            tag_218:\n                /* \"#utility.yul\":4767:4841   */\n              swap2\n              pop\n                /* \"#utility.yul\":4850:4943   */\n              tag_219\n                /* \"#utility.yul\":4939:4942   */\n              dup3\n                /* \"#utility.yul\":4850:4943   */\n              tag_151\n              jump\t// in\n            tag_219:\n                /* \"#utility.yul\":4968:4970   */\n              0x20\n                /* \"#utility.yul\":4963:4966   */\n              dup3\n                /* \"#utility.yul\":4959:4971   */\n              add\n                /* \"#utility.yul\":4952:4971   */\n              swap1\n              pop\n                /* \"#utility.yul\":4611:4977   */\n              swap2\n              swap1\n              pop\n              jump\t// out\n                /* \"#utility.yul\":4983:5402   */\n            tag_63:\n                /* \"#utility.yul\":5149:5153   */\n              0x00\n                /* \"#utility.yul\":5187:5189   */\n              0x20\n                /* \"#utility.yul\":5176:5185   */\n              dup3\n                /* \"#utility.yul\":5172:5190   */\n              add\n                /* \"#utility.yul\":5164:5190   */\n              swap1\n              pop\n                /* \"#utility.yul\":5236:5245   */\n              dup2\n                /* \"#utility.yul\":5230:5234   */\n              dup2\n                /* \"#utility.yul\":5226:5246   */\n              sub\n                /* \"#utility.yul\":5222:5223   */\n              0x00\n                /* \"#utility.yul\":5211:5220   */\n              dup4\n                /* \"#utility.yul\":5207:5224   */\n              add\n                /* \"#utility.yul\":5200:5247   */\n              mstore\n                /* \"#utility.yul\":5264:5395   */\n              tag_221\n                /* \"#utility.yul\":5390:5394   */\n              dup2\n                /* \"#utility.yul\":5264:5395   */\n              tag_152\n              jump\t// in\n            tag_221:\n                /* \"#utility.yul\":5256:5395   */\n              swap1\n              pop\n                /* \"#utility.yul\":4983:5402   */\n              swap2\n              swap1\n              pop\n              jump\t// out\n                /* \"#utility.yul\":5408:5577   */\n            tag_153:\n                /* \"#utility.yul\":5548:5569   */\n              0x7374617465206973206e6f742072756e696e6700000000000000000000000000\n                /* \"#utility.yul\":5544:5545   */\n              0x00\n                /* \"#utility.yul\":5536:5542   */\n              dup3\n                /* \"#utility.yul\":5532:5546   */\n              add\n                /* \"#utility.yul\":5525:5570   */\n              mstore\n                /* \"#utility.yul\":5408:5577   */\n              pop\n              jump\t// out\n                /* \"#utility.yul\":5583:5949   */\n            tag_154:\n                /* \"#utility.yul\":5725:5728   */\n              0x00\n                /* \"#utility.yul\":5746:5813   */\n              tag_224\n                /* \"#utility.yul\":5810:5812   */\n              0x13\n                /* \"#utility.yul\":5805:5808   */\n              dup4\n                /* \"#utility.yul\":5746:5813   */\n              tag_147\n              jump\t// in\n            tag_224:\n                /* \"#utility.yul\":5739:5813   */\n              swap2\n              pop\n                /* \"#utility.yul\":5822:5915   */\n              tag_225\n                /* \"#utility.yul\":5911:5914   */\n              dup3\n                /* \"#utility.yul\":5822:5915   */\n              tag_153\n              jump\t// in\n            tag_225:\n                /* \"#utility.yul\":5940:5942   */\n              0x20\n                /* \"#utility.yul\":5935:5938   */\n              dup3\n                /* \"#utility.yul\":5931:5943   */\n              add\n                /* \"#utility.yul\":5924:5943   */\n              swap1\n              pop\n                /* \"#utility.yul\":5583:5949   */\n              swap2\n              swap1\n              pop\n              jump\t// out\n                /* \"#utility.yul\":5955:6374   */\n            tag_76:\n                /* \"#utility.yul\":6121:6125   */\n              0x00\n                /* \"#utility.yul\":6159:6161   */\n              0x20\n                /* \"#utility.yul\":6148:6157   */\n              dup3\n                /* \"#utility.yul\":6144:6162   */\n              add\n                /* \"#utility.yul\":6136:6162   */\n              swap1\n              pop\n                /* \"#utility.yul\":6208:6217   */\n              dup2\n                /* \"#utility.yul\":6202:6206   */\n              dup2\n                /* \"#utility.yul\":6198:6218   */\n              sub\n                /* \"#utility.yul\":6194:6195   */\n              0x00\n                /* \"#utility.yul\":6183:6192   */\n              dup4\n                /* \"#utility.yul\":6179:6196   */\n              add\n                /* \"#utility.yul\":6172:6219   */\n              mstore\n                /* \"#utility.yul\":6236:6367   */\n              tag_227\n                /* \"#utility.yul\":6362:6366   */\n              dup2\n                /* \"#utility.yul\":6236:6367   */\n              tag_154\n              jump\t// in\n            tag_227:\n                /* \"#utility.yul\":6228:6367   */\n              swap1\n              pop\n                /* \"#utility.yul\":5955:6374   */\n              swap2\n              swap1\n              pop\n              jump\t// out\n                /* \"#utility.yul\":6380:6559   */\n            tag_155:\n                /* \"#utility.yul\":6520:6551   */\n              0x796f7572206d6f6e6579206e6f74206269676765722031303020776569000000\n                /* \"#utility.yul\":6516:6517   */\n              0x00\n                /* \"#utility.yul\":6508:6514   */\n              dup3\n                /* \"#utility.yul\":6504:6518   */\n              add\n                /* \"#utility.yul\":6497:6552   */\n              mstore\n                /* \"#utility.yul\":6380:6559   */\n              pop\n              jump\t// out\n                /* \"#utility.yul\":6565:6931   */\n            tag_156:\n                /* \"#utility.yul\":6707:6710   */\n              0x00\n                /* \"#utility.yul\":6728:6795   */\n              tag_230\n                /* \"#utility.yul\":6792:6794   */\n              0x1d\n                /* \"#utility.yul\":6787:6790   */\n              dup4\n                /* \"#utility.yul\":6728:6795   */\n              tag_147\n              jump\t// in\n            tag_230:\n                /* \"#utility.yul\":6721:6795   */\n              swap2\n              pop\n                /* \"#utility.yul\":6804:6897   */\n              tag_231\n                /* \"#utility.yul\":6893:6896   */\n              dup3\n                /* \"#utility.yul\":6804:6897   */\n              tag_155\n              jump\t// in\n            tag_231:\n                /* \"#utility.yul\":6922:6924   */\n              0x20\n                /* \"#utility.yul\":6917:6920   */\n              dup3\n                /* \"#utility.yul\":6913:6925   */\n              add\n                /* \"#utility.yul\":6906:6925   */\n              swap1\n              pop\n                /* \"#utility.yul\":6565:6931   */\n              swap2\n              swap1\n              pop\n              jump\t// out\n                /* \"#utility.yul\":6937:7356   */\n            tag_79:\n                /* \"#utility.yul\":7103:7107   */\n              0x00\n                /* \"#utility.yul\":7141:7143   */\n              0x20\n                /* \"#utility.yul\":7130:7139   */\n              dup3\n                /* \"#utility.yul\":7126:7144   */\n              add\n                /* \"#utility.yul\":7118:7144   */\n              swap1\n              pop\n                /* \"#utility.yul\":7190:7199   */\n              dup2\n                /* \"#utility.yul\":7184:7188   */\n              dup2\n                /* \"#utility.yul\":7180:7200   */\n              sub\n                /* \"#utility.yul\":7176:7177   */\n              0x00\n                /* \"#utility.yul\":7165:7174   */\n              dup4\n                /* \"#utility.yul\":7161:7178   */\n              add\n                /* \"#utility.yul\":7154:7201   */\n              mstore\n                /* \"#utility.yul\":7218:7349   */\n              tag_233\n                /* \"#utility.yul\":7344:7348   */\n              dup2\n                /* \"#utility.yul\":7218:7349   */\n              tag_156\n              jump\t// in\n            tag_233:\n                /* \"#utility.yul\":7210:7349   */\n              swap1\n              pop\n                /* \"#utility.yul\":6937:7356   */\n              swap2\n              swap1\n              pop\n              jump\t// out\n                /* \"#utility.yul\":7362:7542   */\n            tag_157:\n                /* \"#utility.yul\":7410:7487   */\n              0x4e487b7100000000000000000000000000000000000000000000000000000000\n                /* \"#utility.yul\":7407:7408   */\n              0x00\n                /* \"#utility.yul\":7400:7488   */\n              mstore\n                /* \"#utility.yul\":7507:7511   */\n              0x11\n                /* \"#utility.yul\":7504:7505   */\n              0x04\n                /* \"#utility.yul\":7497:7512   */\n              mstore\n                /* \"#utility.yul\":7531:7535   */\n              0x24\n                /* \"#utility.yul\":7528:7529   */\n              0x00\n                /* \"#utility.yul\":7521:7536   */\n              revert\n                /* \"#utility.yul\":7548:7739   */\n            tag_81:\n                /* \"#utility.yul\":7588:7591   */\n              0x00\n                /* \"#utility.yul\":7607:7627   */\n              tag_236\n                /* \"#utility.yul\":7625:7626   */\n              dup3\n                /* \"#utility.yul\":7607:7627   */\n              tag_131\n              jump\t// in\n            tag_236:\n                /* \"#utility.yul\":7602:7627   */\n              swap2\n              pop\n                /* \"#utility.yul\":7641:7661   */\n              tag_237\n                /* \"#utility.yul\":7659:7660   */\n              dup4\n                /* \"#utility.yul\":7641:7661   */\n              tag_131\n              jump\t// in\n            tag_237:\n                /* \"#utility.yul\":7636:7661   */\n              swap3\n              pop\n                /* \"#utility.yul\":7684:7685   */\n              dup3\n                /* \"#utility.yul\":7681:7682   */\n              dup3\n                /* \"#utility.yul\":7677:7686   */\n              add\n                /* \"#utility.yul\":7670:7686   */\n              swap1\n              pop\n                /* \"#utility.yul\":7705:7708   */\n              dup1\n                /* \"#utility.yul\":7702:7703   */\n              dup3\n                /* \"#utility.yul\":7699:7709   */\n              gt\n                /* \"#utility.yul\":7696:7732   */\n              iszero\n              tag_238\n              jumpi\n                /* \"#utility.yul\":7712:7730   */\n              tag_239\n              tag_157\n              jump\t// in\n            tag_239:\n                /* \"#utility.yul\":7696:7732   */\n            tag_238:\n                /* \"#utility.yul\":7548:7739   */\n              swap3\n              swap2\n              pop\n              pop\n              jump\t// out\n                /* \"#utility.yul\":7745:7926   */\n            tag_158:\n                /* \"#utility.yul\":7885:7918   */\n              0x796f7572206d6f6e6579206e6f7420626967676572206d617820707269636500\n                /* \"#utility.yul\":7881:7882   */\n              0x00\n                /* \"#utility.yul\":7873:7879   */\n              dup3\n                /* \"#utility.yul\":7869:7883   */\n              add\n                /* \"#utility.yul\":7862:7919   */\n              mstore\n                /* \"#utility.yul\":7745:7926   */\n              pop\n              jump\t// out\n                /* \"#utility.yul\":7932:8298   */\n            tag_159:\n                /* \"#utility.yul\":8074:8077   */\n              0x00\n                /* \"#utility.yul\":8095:8162   */\n              tag_242\n                /* \"#utility.yul\":8159:8161   */\n              0x1f\n                /* \"#utility.yul\":8154:8157   */\n              dup4\n                /* \"#utility.yul\":8095:8162   */\n              tag_147\n              jump\t// in\n            tag_242:\n                /* \"#utility.yul\":8088:8162   */\n              swap2\n              pop\n                /* \"#utility.yul\":8171:8264   */\n              tag_243\n                /* \"#utility.yul\":8260:8263   */\n              dup3\n                /* \"#utility.yul\":8171:8264   */\n              tag_158\n              jump\t// in\n            tag_243:\n                /* \"#utility.yul\":8289:8291   */\n              0x20\n                /* \"#utility.yul\":8284:8287   */\n              dup3\n                /* \"#utility.yul\":8280:8292   */\n              add\n                /* \"#utility.yul\":8273:8292   */\n              swap1\n              pop\n                /* \"#utility.yul\":7932:8298   */\n              swap2\n              swap1\n              pop\n              jump\t// out\n                /* \"#utility.yul\":8304:8723   */\n            tag_84:\n                /* \"#utility.yul\":8470:8474   */\n              0x00\n                /* \"#utility.yul\":8508:8510   */\n              0x20\n                /* \"#utility.yul\":8497:8506   */\n              dup3\n                /* \"#utility.yul\":8493:8511   */\n              add\n                /* \"#utility.yul\":8485:8511   */\n              swap1\n              pop\n                /* \"#utility.yul\":8557:8566   */\n              dup2\n                /* \"#utility.yul\":8551:8555   */\n              dup2\n                /* \"#utility.yul\":8547:8567   */\n              sub\n                /* \"#utility.yul\":8543:8544   */\n              0x00\n                /* \"#utility.yul\":8532:8541   */\n              dup4\n                /* \"#utility.yul\":8528:8545   */\n              add\n                /* \"#utility.yul\":8521:8568   */\n              mstore\n                /* \"#utility.yul\":8585:8716   */\n              tag_245\n                /* \"#utility.yul\":8711:8715   */\n              dup2\n                /* \"#utility.yul\":8585:8716   */\n              tag_159\n              jump\t// in\n            tag_245:\n                /* \"#utility.yul\":8577:8716   */\n              swap1\n              pop\n                /* \"#utility.yul\":8304:8723   */\n              swap2\n              swap1\n              pop\n              jump\t// out\n                /* \"#utility.yul\":8729:8909   */\n            tag_160:\n                /* \"#utility.yul\":8777:8854   */\n              0x4e487b7100000000000000000000000000000000000000000000000000000000\n                /* \"#utility.yul\":8774:8775   */\n              0x00\n                /* \"#utility.yul\":8767:8855   */\n              mstore\n                /* \"#utility.yul\":8874:8878   */\n              0x22\n                /* \"#utility.yul\":8871:8872   */\n              0x04\n                /* \"#utility.yul\":8864:8879   */\n              mstore\n                /* \"#utility.yul\":8898:8902   */\n              0x24\n                /* \"#utility.yul\":8895:8896   */\n              0x00\n                /* \"#utility.yul\":8888:8903   */\n              revert\n                /* \"#utility.yul\":8915:9235   */\n            tag_93:\n                /* \"#utility.yul\":8959:8965   */\n              0x00\n                /* \"#utility.yul\":8996:8997   */\n              0x02\n                /* \"#utility.yul\":8990:8994   */\n              dup3\n                /* \"#utility.yul\":8986:8998   */\n              div\n                /* \"#utility.yul\":8976:8998   */\n              swap1\n              pop\n                /* \"#utility.yul\":9043:9044   */\n              0x01\n                /* \"#utility.yul\":9037:9041   */\n              dup3\n                /* \"#utility.yul\":9033:9045   */\n              and\n                /* \"#utility.yul\":9064:9082   */\n              dup1\n                /* \"#utility.yul\":9054:9135   */\n              tag_248\n              jumpi\n                /* \"#utility.yul\":9120:9124   */\n              0x7f\n                /* \"#utility.yul\":9112:9118   */\n              dup3\n                /* \"#utility.yul\":9108:9125   */\n              and\n                /* \"#utility.yul\":9098:9125   */\n              swap2\n              pop\n                /* \"#utility.yul\":9054:9135   */\n            tag_248:\n                /* \"#utility.yul\":9182:9184   */\n              0x20\n                /* \"#utility.yul\":9174:9180   */\n              dup3\n                /* \"#utility.yul\":9171:9185   */\n              lt\n                /* \"#utility.yul\":9151:9169   */\n              dup2\n                /* \"#utility.yul\":9148:9186   */\n              sub\n                /* \"#utility.yul\":9145:9229   */\n              tag_249\n              jumpi\n                /* \"#utility.yul\":9201:9219   */\n              tag_250\n              tag_160\n              jump\t// in\n            tag_250:\n                /* \"#utility.yul\":9145:9229   */\n            tag_249:\n                /* \"#utility.yul\":8966:9235   */\n              pop\n                /* \"#utility.yul\":8915:9235   */\n              swap2\n              swap1\n              pop\n              jump\t// out\n                /* \"#utility.yul\":9241:9418   */\n            tag_161:\n                /* \"#utility.yul\":9381:9410   */\n              0x6f6e6c79206f776e6572206861766520617574686f726974696f6e0000000000\n                /* \"#utility.yul\":9377:9378   */\n              0x00\n                /* \"#utility.yul\":9369:9375   */\n              dup3\n                /* \"#utility.yul\":9365:9379   */\n              add\n                /* \"#utility.yul\":9358:9411   */\n              mstore\n                /* \"#utility.yul\":9241:9418   */\n              pop\n              jump\t// out\n                /* \"#utility.yul\":9424:9790   */\n            tag_162:\n                /* \"#utility.yul\":9566:9569   */\n              0x00\n                /* \"#utility.yul\":9587:9654   */\n              tag_253\n                /* \"#utility.yul\":9651:9653   */\n              0x1b\n                /* \"#utility.yul\":9646:9649   */\n              dup4\n                /* \"#utility.yul\":9587:9654   */\n              tag_147\n              jump\t// in\n            tag_253:\n                /* \"#utility.yul\":9580:9654   */\n              swap2\n              pop\n                /* \"#utility.yul\":9663:9756   */\n              tag_254\n                /* \"#utility.yul\":9752:9755   */\n              dup3\n                /* \"#utility.yul\":9663:9756   */\n              tag_161\n              jump\t// in\n            tag_254:\n                /* \"#utility.yul\":9781:9783   */\n              0x20\n                /* \"#utility.yul\":9776:9779   */\n              dup3\n                /* \"#utility.yul\":9772:9784   */\n              add\n                /* \"#utility.yul\":9765:9784   */\n              swap1\n              pop\n                /* \"#utility.yul\":9424:9790   */\n              swap2\n              swap1\n              pop\n              jump\t// out\n                /* \"#utility.yul\":9796:10215   */\n            tag_101:\n                /* \"#utility.yul\":9962:9966   */\n              0x00\n                /* \"#utility.yul\":10000:10002   */\n              0x20\n                /* \"#utility.yul\":9989:9998   */\n              dup3\n                /* \"#utility.yul\":9985:10003   */\n              add\n                /* \"#utility.yul\":9977:10003   */\n              swap1\n              pop\n                /* \"#utility.yul\":10049:10058   */\n              dup2\n                /* \"#utility.yul\":10043:10047   */\n              dup2\n                /* \"#utility.yul\":10039:10059   */\n              sub\n                /* \"#utility.yul\":10035:10036   */\n              0x00\n                /* \"#utility.yul\":10024:10033   */\n              dup4\n                /* \"#utility.yul\":10020:10037   */\n              add\n                /* \"#utility.yul\":10013:10060   */\n              mstore\n                /* \"#utility.yul\":10077:10208   */\n              tag_256\n                /* \"#utility.yul\":10203:10207   */\n              dup2\n                /* \"#utility.yul\":10077:10208   */\n              tag_162\n              jump\t// in\n            tag_256:\n                /* \"#utility.yul\":10069:10208   */\n              swap1\n              pop\n                /* \"#utility.yul\":9796:10215   */\n              swap2\n              swap1\n              pop\n              jump\t// out\n                /* \"#utility.yul\":10221:10415   */\n            tag_124:\n                /* \"#utility.yul\":10261:10265   */\n              0x00\n                /* \"#utility.yul\":10281:10301   */\n              tag_258\n                /* \"#utility.yul\":10299:10300   */\n              dup3\n                /* \"#utility.yul\":10281:10301   */\n              tag_131\n              jump\t// in\n            tag_258:\n                /* \"#utility.yul\":10276:10301   */\n              swap2\n              pop\n                /* \"#utility.yul\":10315:10335   */\n              tag_259\n                /* \"#utility.yul\":10333:10334   */\n              dup4\n                /* \"#utility.yul\":10315:10335   */\n              tag_131\n              jump\t// in\n            tag_259:\n                /* \"#utility.yul\":10310:10335   */\n              swap3\n              pop\n                /* \"#utility.yul\":10359:10360   */\n              dup3\n                /* \"#utility.yul\":10356:10357   */\n              dup3\n                /* \"#utility.yul\":10352:10361   */\n              sub\n                /* \"#utility.yul\":10344:10361   */\n              swap1\n              pop\n                /* \"#utility.yul\":10383:10384   */\n              dup2\n                /* \"#utility.yul\":10377:10381   */\n              dup2\n                /* \"#utility.yul\":10374:10385   */\n              gt\n                /* \"#utility.yul\":10371:10408   */\n              iszero\n              tag_260\n              jumpi\n                /* \"#utility.yul\":10388:10406   */\n              tag_261\n              tag_157\n              jump\t// in\n            tag_261:\n                /* \"#utility.yul\":10371:10408   */\n            tag_260:\n                /* \"#utility.yul\":10221:10415   */\n              swap3\n              swap2\n              pop\n              pop\n              jump\t// out\n\n            auxdata: 0xa2646970667358221220f46db7a9fd091a75baf7c747fec4a37297d0eabc2db4281f5b8d7dab866f565a64736f6c63430008160033\n        }\n    }\n\n    auxdata: 0xa26469706673582212201fe99a9b6098737ccb7ad46d3089d502addf61124982eba537fef4ed3c20609d64736f6c63430008160033\n}\n",
				"bytecode": {
					"linkReferences": {},
					"object": "608060405234801561000f575f80fd5b506119408061001d5f395ff3fe608060405234801562000010575f80fd5b506004361062000038575f3560e01c8063571a26a0146200003c578063f58114471462000072575b5f80fd5b6200005a60048036038101906200005491906200019e565b6200007e565b60405162000069919062000254565b60405180910390f35b6200007c620000b9565b005b5f81815481106200008d575f80fd5b905f5260205f20015f915054906101000a900473ffffffffffffffffffffffffffffffffffffffff1681565b5f33604051620000c99062000154565b620000d5919062000293565b604051809103905ff080158015620000ef573d5f803e3d5ffd5b5090505f81908060018154018082558091505060019003905f5260205f20015f9091909190916101000a81548173ffffffffffffffffffffffffffffffffffffffff021916908373ffffffffffffffffffffffffffffffffffffffff16021790555050565b61165c80620002af83390190565b5f80fd5b5f819050919050565b6200017a8162000166565b811462000185575f80fd5b50565b5f8135905062000198816200016f565b92915050565b5f60208284031215620001b657620001b562000162565b5b5f620001c58482850162000188565b91505092915050565b5f73ffffffffffffffffffffffffffffffffffffffff82169050919050565b5f819050919050565b5f62000216620002106200020a84620001ce565b620001ed565b620001ce565b9050919050565b5f6200022982620001f6565b9050919050565b5f6200023c826200021d565b9050919050565b6200024e8162000230565b82525050565b5f602082019050620002695f83018462000243565b92915050565b5f6200027b82620001ce565b9050919050565b6200028d816200026f565b82525050565b5f602082019050620002a85f83018462000282565b9291505056fe608060405234801562000010575f80fd5b506040516200165c3803806200165c83398181016040528101906200003691906200015a565b805f806101000a81548173ffffffffffffffffffffffffffffffffffffffff021916908373ffffffffffffffffffffffffffffffffffffffff16021790555060405180602001604052805f81525060039081620000949190620003ee565b505f60045f6101000a81548160ff02191690836003811115620000bc57620000bb620004d2565b5b0217905550436001819055506003600154620000d991906200052c565b600281905550670de0b6b3a76400006008819055505062000566565b5f80fd5b5f73ffffffffffffffffffffffffffffffffffffffff82169050919050565b5f6200012482620000f9565b9050919050565b620001368162000118565b811462000141575f80fd5b50565b5f8151905062000154816200012b565b92915050565b5f60208284031215620001725762000171620000f5565b5b5f620001818482850162000144565b91505092915050565b5f81519050919050565b7f4e487b71000000000000000000000000000000000000000000000000000000005f52604160045260245ffd5b7f4e487b71000000000000000000000000000000000000000000000000000000005f52602260045260245ffd5b5f60028204905060018216806200020657607f821691505b6020821081036200021c576200021b620001c1565b5b50919050565b5f819050815f5260205f209050919050565b5f6020601f8301049050919050565b5f82821b905092915050565b5f60088302620002807fffffffffffffffffffffffffffffffffffffffffffffffffffffffffffffffff8262000243565b6200028c868362000243565b95508019841693508086168417925050509392505050565b5f819050919050565b5f819050919050565b5f620002d6620002d0620002ca84620002a4565b620002ad565b620002a4565b9050919050565b5f819050919050565b620002f183620002b6565b620003096200030082620002dd565b8484546200024f565b825550505050565b5f90565b6200031f62000311565b6200032c818484620002e6565b505050565b5b818110156200035357620003475f8262000315565b60018101905062000332565b5050565b601f821115620003a2576200036c8162000222565b620003778462000234565b8101602085101562000387578190505b6200039f620003968562000234565b83018262000331565b50505b505050565b5f82821c905092915050565b5f620003c45f1984600802620003a7565b1980831691505092915050565b5f620003de8383620003b3565b9150826002028217905092915050565b620003f9826200018a565b67ffffffffffffffff81111562000415576200041462000194565b5b620004218254620001ee565b6200042e82828562000357565b5f60209050601f83116001811462000464575f84156200044f578287015190505b6200045b8582620003d1565b865550620004ca565b601f198416620004748662000222565b5f5b828110156200049d5784890151825560018201915060208501945060208101905062000476565b86831015620004bd5784890151620004b9601f891682620003b3565b8355505b6001600288020188555050505b505050505050565b7f4e487b71000000000000000000000000000000000000000000000000000000005f52602160045260245ffd5b7f4e487b71000000000000000000000000000000000000000000000000000000005f52601160045260245ffd5b5f6200053882620002a4565b91506200054583620002a4565b925082820190508082111562000560576200055f620004ff565b5b92915050565b6110e880620005745f395ff3fe60806040526004361061009b575f3560e01c80638da5cb5b116100635780638da5cb5b1461016357806391f901571461018d578063bd15cb44146101b7578063de31c95b146101e1578063f5b56c56146101f7578063f77282ab146102215761009b565b8063083c63231461009f5780631669be96146100c957806348cd4cb1146100d3578063507cd3cb146100fd57806362ea82db14610127575b5f80fd5b3480156100aa575f80fd5b506100b3610237565b6040516100c09190610ba9565b60405180910390f35b6100d161023d565b005b3480156100de575f80fd5b506100e7610614565b6040516100f49190610ba9565b60405180910390f35b348015610108575f80fd5b5061011161061a565b60405161011e9190610c35565b60405180910390f35b348015610132575f80fd5b5061014d60048036038101906101489190610cac565b61062c565b60405161015a9190610ba9565b60405180910390f35b34801561016e575f80fd5b50610177610641565b6040516101849190610cf7565b60405180910390f35b348015610198575f80fd5b506101a1610664565b6040516101ae9190610cf7565b60405180910390f35b3480156101c2575f80fd5b506101cb610689565b6040516101d89190610d9a565b60405180910390f35b3480156101ec575f80fd5b506101f5610715565b005b348015610202575f80fd5b5061020b6107ce565b6040516102189190610ba9565b60405180910390f35b34801561022c575f80fd5b506102356107d4565b005b60025481565b5f8054906101000a900473ffffffffffffffffffffffffffffffffffffffff1673ffffffffffffffffffffffffffffffffffffffff163373ffffffffffffffffffffffffffffffffffffffff16036102ca576040517f08c379a00000000000000000000000000000000000000000000000000000000081526004016102c190610e04565b60405180910390fd5b6001544310156102d8575f80fd5b60025443106102e5575f80fd5b600160038111156102f9576102f8610bc2565b5b60045f9054906101000a900460ff16600381111561031a57610319610bc2565b5b1461035a576040517f08c379a000000000000000000000000000000000000000000000000000000000815260040161035190610e6c565b60405180910390fd5b606434101561039e576040517f08c379a000000000000000000000000000000000000000000000000000000000815260040161039590610ed4565b60405180910390fd5b5f3460075f3373ffffffffffffffffffffffffffffffffffffffff1673ffffffffffffffffffffffffffffffffffffffff1681526020019081526020015f20546103e89190610f1f565b9050600554811161042e576040517f08c379a000000000000000000000000000000000000000000000000000000000815260040161042590610f9c565b60405180910390fd5b8060075f3373ffffffffffffffffffffffffffffffffffffffff1673ffffffffffffffffffffffffffffffffffffffff1681526020019081526020015f208190555060075f60065f9054906101000a900473ffffffffffffffffffffffffffffffffffffffff1673ffffffffffffffffffffffffffffffffffffffff1673ffffffffffffffffffffffffffffffffffffffff1681526020019081526020015f205481116105555761054a600854826104e69190610f1f565b60075f60065f9054906101000a900473ffffffffffffffffffffffffffffffffffffffff1673ffffffffffffffffffffffffffffffffffffffff1673ffffffffffffffffffffffffffffffffffffffff1681526020019081526020015f2054610b76565b600581905550610611565b6105ca8160085460075f60065f9054906101000a900473ffffffffffffffffffffffffffffffffffffffff1673ffffffffffffffffffffffffffffffffffffffff1673ffffffffffffffffffffffffffffffffffffffff1681526020019081526020015f20546105c59190610f1f565b610b76565b6005819055503360065f6101000a81548173ffffffffffffffffffffffffffffffffffffffff021916908373ffffffffffffffffffffffffffffffffffffffff1602179055505b50565b60015481565b60045f9054906101000a900460ff1681565b6007602052805f5260405f205f915090505481565b5f8054906101000a900473ffffffffffffffffffffffffffffffffffffffff1681565b60065f9054906101000a900473ffffffffffffffffffffffffffffffffffffffff1681565b6003805461069690610fe7565b80601f01602080910402602001604051908101604052809291908181526020018280546106c290610fe7565b801561070d5780601f106106e45761010080835404028352916020019161070d565b820191905f5260205f20905b8154815290600101906020018083116106f057829003601f168201915b505050505081565b5f8054906101000a900473ffffffffffffffffffffffffffffffffffffffff1673ffffffffffffffffffffffffffffffffffffffff163373ffffffffffffffffffffffffffffffffffffffff16146107a2576040517f08c379a000000000000000000000000000000000000000000000000000000000815260040161079990611061565b60405180910390fd5b600360045f6101000a81548160ff021916908360038111156107c7576107c6610bc2565b5b0217905550565b60055481565b6003808111156107e7576107e6610bc2565b5b60045f9054906101000a900460ff16600381111561080857610807610bc2565b5b1480610815575060025443145b61081d575f80fd5b5f8054906101000a900473ffffffffffffffffffffffffffffffffffffffff1673ffffffffffffffffffffffffffffffffffffffff163373ffffffffffffffffffffffffffffffffffffffff1614806108b257505f60075f3373ffffffffffffffffffffffffffffffffffffffff1673ffffffffffffffffffffffffffffffffffffffff1681526020019081526020015f2054115b6108ba575f80fd5b5f806003808111156108cf576108ce610bc2565b5b60045f9054906101000a900460ff1660038111156108f0576108ef610bc2565b5b0361093d5733915060075f3373ffffffffffffffffffffffffffffffffffffffff1673ffffffffffffffffffffffffffffffffffffffff1681526020019081526020015f20549050610aec565b5f8054906101000a900473ffffffffffffffffffffffffffffffffffffffff1673ffffffffffffffffffffffffffffffffffffffff163373ffffffffffffffffffffffffffffffffffffffff16036109bb575f8054906101000a900473ffffffffffffffffffffffffffffffffffffffff1691506005549050610aeb565b60065f9054906101000a900473ffffffffffffffffffffffffffffffffffffffff1673ffffffffffffffffffffffffffffffffffffffff163373ffffffffffffffffffffffffffffffffffffffff1603610aa65760065f9054906101000a900473ffffffffffffffffffffffffffffffffffffffff16915060055460075f60065f9054906101000a900473ffffffffffffffffffffffffffffffffffffffff1673ffffffffffffffffffffffffffffffffffffffff1673ffffffffffffffffffffffffffffffffffffffff1681526020019081526020015f2054610a9f919061107f565b9050610aea565b33915060075f3373ffffffffffffffffffffffffffffffffffffffff1673ffffffffffffffffffffffffffffffffffffffff1681526020019081526020015f205490505b5b5b5f60075f8473ffffffffffffffffffffffffffffffffffffffff1673ffffffffffffffffffffffffffffffffffffffff1681526020019081526020015f20819055508173ffffffffffffffffffffffffffffffffffffffff166108fc8290811502906040515f60405180830381858888f19350505050158015610b71573d5f803e3d5ffd5b505050565b5f81831115610b8757819050610b8b565b8290505b92915050565b5f819050919050565b610ba381610b91565b82525050565b5f602082019050610bbc5f830184610b9a565b92915050565b7f4e487b71000000000000000000000000000000000000000000000000000000005f52602160045260245ffd5b60048110610c0057610bff610bc2565b5b50565b5f819050610c1082610bef565b919050565b5f610c1f82610c03565b9050919050565b610c2f81610c15565b82525050565b5f602082019050610c485f830184610c26565b92915050565b5f80fd5b5f73ffffffffffffffffffffffffffffffffffffffff82169050919050565b5f610c7b82610c52565b9050919050565b610c8b81610c71565b8114610c95575f80fd5b50565b5f81359050610ca681610c82565b92915050565b5f60208284031215610cc157610cc0610c4e565b5b5f610cce84828501610c98565b91505092915050565b5f610ce182610c52565b9050919050565b610cf181610cd7565b82525050565b5f602082019050610d0a5f830184610ce8565b92915050565b5f81519050919050565b5f82825260208201905092915050565b5f5b83811015610d47578082015181840152602081019050610d2c565b5f8484015250505050565b5f601f19601f8301169050919050565b5f610d6c82610d10565b610d768185610d1a565b9350610d86818560208601610d2a565b610d8f81610d52565b840191505092915050565b5f6020820190508181035f830152610db28184610d62565b905092915050565b7f6f776e6572206973206e6f7420617574686f726974696f6e00000000000000005f82015250565b5f610dee601883610d1a565b9150610df982610dba565b602082019050919050565b5f6020820190508181035f830152610e1b81610de2565b9050919050565b7f7374617465206973206e6f742072756e696e67000000000000000000000000005f82015250565b5f610e56601383610d1a565b9150610e6182610e22565b602082019050919050565b5f6020820190508181035f830152610e8381610e4a565b9050919050565b7f796f7572206d6f6e6579206e6f742062696767657220313030207765690000005f82015250565b5f610ebe601d83610d1a565b9150610ec982610e8a565b602082019050919050565b5f6020820190508181035f830152610eeb81610eb2565b9050919050565b7f4e487b71000000000000000000000000000000000000000000000000000000005f52601160045260245ffd5b5f610f2982610b91565b9150610f3483610b91565b9250828201905080821115610f4c57610f4b610ef2565b5b92915050565b7f796f7572206d6f6e6579206e6f7420626967676572206d6178207072696365005f82015250565b5f610f86601f83610d1a565b9150610f9182610f52565b602082019050919050565b5f6020820190508181035f830152610fb381610f7a565b9050919050565b7f4e487b71000000000000000000000000000000000000000000000000000000005f52602260045260245ffd5b5f6002820490506001821680610ffe57607f821691505b60208210810361101157611010610fba565b5b50919050565b7f6f6e6c79206f776e6572206861766520617574686f726974696f6e00000000005f82015250565b5f61104b601b83610d1a565b915061105682611017565b602082019050919050565b5f6020820190508181035f8301526110788161103f565b9050919050565b5f61108982610b91565b915061109483610b91565b92508282039050818111156110ac576110ab610ef2565b5b9291505056fea2646970667358221220f46db7a9fd091a75baf7c747fec4a37297d0eabc2db4281f5b8d7dab866f565a64736f6c63430008160033a26469706673582212201fe99a9b6098737ccb7ad46d3089d502addf61124982eba537fef4ed3c20609d64736f6c63430008160033",
					"opcodes": "PUSH1 0x80 PUSH1 0x40 MSTORE CALLVALUE DUP1 ISZERO PUSH2 0xF JUMPI PUSH0 DUP1 REVERT JUMPDEST POP PUSH2 0x1940 DUP1 PUSH2 0x1D PUSH0 CODECOPY PUSH0 RETURN INVALID PUSH1 0x80 PUSH1 0x40 MSTORE CALLVALUE DUP1 ISZERO PUSH3 0x10 JUMPI PUSH0 DUP1 REVERT JUMPDEST POP PUSH1 0x4 CALLDATASIZE LT PUSH3 0x38 JUMPI PUSH0 CALLDATALOAD PUSH1 0xE0 SHR DUP1 PUSH4 0x571A26A0 EQ PUSH3 0x3C JUMPI DUP1 PUSH4 0xF5811447 EQ PUSH3 0x72 JUMPI JUMPDEST PUSH0 DUP1 REVERT JUMPDEST PUSH3 0x5A PUSH1 0x4 DUP1 CALLDATASIZE SUB DUP2 ADD SWAP1 PUSH3 0x54 SWAP2 SWAP1 PUSH3 0x19E JUMP JUMPDEST PUSH3 0x7E JUMP JUMPDEST PUSH1 0x40 MLOAD PUSH3 0x69 SWAP2 SWAP1 PUSH3 0x254 JUMP JUMPDEST PUSH1 0x40 MLOAD DUP1 SWAP2 SUB SWAP1 RETURN JUMPDEST PUSH3 0x7C PUSH3 0xB9 JUMP JUMPDEST STOP JUMPDEST PUSH0 DUP2 DUP2 SLOAD DUP2 LT PUSH3 0x8D JUMPI PUSH0 DUP1 REVERT JUMPDEST SWAP1 PUSH0 MSTORE PUSH1 0x20 PUSH0 KECCAK256 ADD PUSH0 SWAP2 POP SLOAD SWAP1 PUSH2 0x100 EXP SWAP1 DIV PUSH20 0xFFFFFFFFFFFFFFFFFFFFFFFFFFFFFFFFFFFFFFFF AND DUP2 JUMP JUMPDEST PUSH0 CALLER PUSH1 0x40 MLOAD PUSH3 0xC9 SWAP1 PUSH3 0x154 JUMP JUMPDEST PUSH3 0xD5 SWAP2 SWAP1 PUSH3 0x293 JUMP JUMPDEST PUSH1 0x40 MLOAD DUP1 SWAP2 SUB SWAP1 PUSH0 CREATE DUP1 ISZERO DUP1 ISZERO PUSH3 0xEF JUMPI RETURNDATASIZE PUSH0 DUP1 RETURNDATACOPY RETURNDATASIZE PUSH0 REVERT JUMPDEST POP SWAP1 POP PUSH0 DUP2 SWAP1 DUP1 PUSH1 0x1 DUP2 SLOAD ADD DUP1 DUP3 SSTORE DUP1 SWAP2 POP POP PUSH1 0x1 SWAP1 SUB SWAP1 PUSH0 MSTORE PUSH1 0x20 PUSH0 KECCAK256 ADD PUSH0 SWAP1 SWAP2 SWAP1 SWAP2 SWAP1 SWAP2 PUSH2 0x100 EXP DUP2 SLOAD DUP2 PUSH20 0xFFFFFFFFFFFFFFFFFFFFFFFFFFFFFFFFFFFFFFFF MUL NOT AND SWAP1 DUP4 PUSH20 0xFFFFFFFFFFFFFFFFFFFFFFFFFFFFFFFFFFFFFFFF AND MUL OR SWAP1 SSTORE POP POP JUMP JUMPDEST PUSH2 0x165C DUP1 PUSH3 0x2AF DUP4 CODECOPY ADD SWAP1 JUMP JUMPDEST PUSH0 DUP1 REVERT JUMPDEST PUSH0 DUP2 SWAP1 POP SWAP2 SWAP1 POP JUMP JUMPDEST PUSH3 0x17A DUP2 PUSH3 0x166 JUMP JUMPDEST DUP2 EQ PUSH3 0x185 JUMPI PUSH0 DUP1 REVERT JUMPDEST POP JUMP JUMPDEST PUSH0 DUP2 CALLDATALOAD SWAP1 POP PUSH3 0x198 DUP2 PUSH3 0x16F JUMP JUMPDEST SWAP3 SWAP2 POP POP JUMP JUMPDEST PUSH0 PUSH1 0x20 DUP3 DUP5 SUB SLT ISZERO PUSH3 0x1B6 JUMPI PUSH3 0x1B5 PUSH3 0x162 JUMP JUMPDEST JUMPDEST PUSH0 PUSH3 0x1C5 DUP5 DUP3 DUP6 ADD PUSH3 0x188 JUMP JUMPDEST SWAP2 POP POP SWAP3 SWAP2 POP POP JUMP JUMPDEST PUSH0 PUSH20 0xFFFFFFFFFFFFFFFFFFFFFFFFFFFFFFFFFFFFFFFF DUP3 AND SWAP1 POP SWAP2 SWAP1 POP JUMP JUMPDEST PUSH0 DUP2 SWAP1 POP SWAP2 SWAP1 POP JUMP JUMPDEST PUSH0 PUSH3 0x216 PUSH3 0x210 PUSH3 0x20A DUP5 PUSH3 0x1CE JUMP JUMPDEST PUSH3 0x1ED JUMP JUMPDEST PUSH3 0x1CE JUMP JUMPDEST SWAP1 POP SWAP2 SWAP1 POP JUMP JUMPDEST PUSH0 PUSH3 0x229 DUP3 PUSH3 0x1F6 JUMP JUMPDEST SWAP1 POP SWAP2 SWAP1 POP JUMP JUMPDEST PUSH0 PUSH3 0x23C DUP3 PUSH3 0x21D JUMP JUMPDEST SWAP1 POP SWAP2 SWAP1 POP JUMP JUMPDEST PUSH3 0x24E DUP2 PUSH3 0x230 JUMP JUMPDEST DUP3 MSTORE POP POP JUMP JUMPDEST PUSH0 PUSH1 0x20 DUP3 ADD SWAP1 POP PUSH3 0x269 PUSH0 DUP4 ADD DUP5 PUSH3 0x243 JUMP JUMPDEST SWAP3 SWAP2 POP POP JUMP JUMPDEST PUSH0 PUSH3 0x27B DUP3 PUSH3 0x1CE JUMP JUMPDEST SWAP1 POP SWAP2 SWAP1 POP JUMP JUMPDEST PUSH3 0x28D DUP2 PUSH3 0x26F JUMP JUMPDEST DUP3 MSTORE POP POP JUMP JUMPDEST PUSH0 PUSH1 0x20 DUP3 ADD SWAP1 POP PUSH3 0x2A8 PUSH0 DUP4 ADD DUP5 PUSH3 0x282 JUMP JUMPDEST SWAP3 SWAP2 POP POP JUMP INVALID PUSH1 0x80 PUSH1 0x40 MSTORE CALLVALUE DUP1 ISZERO PUSH3 0x10 JUMPI PUSH0 DUP1 REVERT JUMPDEST POP PUSH1 0x40 MLOAD PUSH3 0x165C CODESIZE SUB DUP1 PUSH3 0x165C DUP4 CODECOPY DUP2 DUP2 ADD PUSH1 0x40 MSTORE DUP2 ADD SWAP1 PUSH3 0x36 SWAP2 SWAP1 PUSH3 0x15A JUMP JUMPDEST DUP1 PUSH0 DUP1 PUSH2 0x100 EXP DUP2 SLOAD DUP2 PUSH20 0xFFFFFFFFFFFFFFFFFFFFFFFFFFFFFFFFFFFFFFFF MUL NOT AND SWAP1 DUP4 PUSH20 0xFFFFFFFFFFFFFFFFFFFFFFFFFFFFFFFFFFFFFFFF AND MUL OR SWAP1 SSTORE POP PUSH1 0x40 MLOAD DUP1 PUSH1 0x20 ADD PUSH1 0x40 MSTORE DUP1 PUSH0 DUP2 MSTORE POP PUSH1 0x3 SWAP1 DUP2 PUSH3 0x94 SWAP2 SWAP1 PUSH3 0x3EE JUMP JUMPDEST POP PUSH0 PUSH1 0x4 PUSH0 PUSH2 0x100 EXP DUP2 SLOAD DUP2 PUSH1 0xFF MUL NOT AND SWAP1 DUP4 PUSH1 0x3 DUP2 GT ISZERO PUSH3 0xBC JUMPI PUSH3 0xBB PUSH3 0x4D2 JUMP JUMPDEST JUMPDEST MUL OR SWAP1 SSTORE POP NUMBER PUSH1 0x1 DUP2 SWAP1 SSTORE POP PUSH1 0x3 PUSH1 0x1 SLOAD PUSH3 0xD9 SWAP2 SWAP1 PUSH3 0x52C JUMP JUMPDEST PUSH1 0x2 DUP2 SWAP1 SSTORE POP PUSH8 0xDE0B6B3A7640000 PUSH1 0x8 DUP2 SWAP1 SSTORE POP POP PUSH3 0x566 JUMP JUMPDEST PUSH0 DUP1 REVERT JUMPDEST PUSH0 PUSH20 0xFFFFFFFFFFFFFFFFFFFFFFFFFFFFFFFFFFFFFFFF DUP3 AND SWAP1 POP SWAP2 SWAP1 POP JUMP JUMPDEST PUSH0 PUSH3 0x124 DUP3 PUSH3 0xF9 JUMP JUMPDEST SWAP1 POP SWAP2 SWAP1 POP JUMP JUMPDEST PUSH3 0x136 DUP2 PUSH3 0x118 JUMP JUMPDEST DUP2 EQ PUSH3 0x141 JUMPI PUSH0 DUP1 REVERT JUMPDEST POP JUMP JUMPDEST PUSH0 DUP2 MLOAD SWAP1 POP PUSH3 0x154 DUP2 PUSH3 0x12B JUMP JUMPDEST SWAP3 SWAP2 POP POP JUMP JUMPDEST PUSH0 PUSH1 0x20 DUP3 DUP5 SUB SLT ISZERO PUSH3 0x172 JUMPI PUSH3 0x171 PUSH3 0xF5 JUMP JUMPDEST JUMPDEST PUSH0 PUSH3 0x181 DUP5 DUP3 DUP6 ADD PUSH3 0x144 JUMP JUMPDEST SWAP2 POP POP SWAP3 SWAP2 POP POP JUMP JUMPDEST PUSH0 DUP2 MLOAD SWAP1 POP SWAP2 SWAP1 POP JUMP JUMPDEST PUSH32 0x4E487B7100000000000000000000000000000000000000000000000000000000 PUSH0 MSTORE PUSH1 0x41 PUSH1 0x4 MSTORE PUSH1 0x24 PUSH0 REVERT JUMPDEST PUSH32 0x4E487B7100000000000000000000000000000000000000000000000000000000 PUSH0 MSTORE PUSH1 0x22 PUSH1 0x4 MSTORE PUSH1 0x24 PUSH0 REVERT JUMPDEST PUSH0 PUSH1 0x2 DUP3 DIV SWAP1 POP PUSH1 0x1 DUP3 AND DUP1 PUSH3 0x206 JUMPI PUSH1 0x7F DUP3 AND SWAP2 POP JUMPDEST PUSH1 0x20 DUP3 LT DUP2 SUB PUSH3 0x21C JUMPI PUSH3 0x21B PUSH3 0x1C1 JUMP JUMPDEST JUMPDEST POP SWAP2 SWAP1 POP JUMP JUMPDEST PUSH0 DUP2 SWAP1 POP DUP2 PUSH0 MSTORE PUSH1 0x20 PUSH0 KECCAK256 SWAP1 POP SWAP2 SWAP1 POP JUMP JUMPDEST PUSH0 PUSH1 0x20 PUSH1 0x1F DUP4 ADD DIV SWAP1 POP SWAP2 SWAP1 POP JUMP JUMPDEST PUSH0 DUP3 DUP3 SHL SWAP1 POP SWAP3 SWAP2 POP POP JUMP JUMPDEST PUSH0 PUSH1 0x8 DUP4 MUL PUSH3 0x280 PUSH32 0xFFFFFFFFFFFFFFFFFFFFFFFFFFFFFFFFFFFFFFFFFFFFFFFFFFFFFFFFFFFFFFFF DUP3 PUSH3 0x243 JUMP JUMPDEST PUSH3 0x28C DUP7 DUP4 PUSH3 0x243 JUMP JUMPDEST SWAP6 POP DUP1 NOT DUP5 AND SWAP4 POP DUP1 DUP7 AND DUP5 OR SWAP3 POP POP POP SWAP4 SWAP3 POP POP POP JUMP JUMPDEST PUSH0 DUP2 SWAP1 POP SWAP2 SWAP1 POP JUMP JUMPDEST PUSH0 DUP2 SWAP1 POP SWAP2 SWAP1 POP JUMP JUMPDEST PUSH0 PUSH3 0x2D6 PUSH3 0x2D0 PUSH3 0x2CA DUP5 PUSH3 0x2A4 JUMP JUMPDEST PUSH3 0x2AD JUMP JUMPDEST PUSH3 0x2A4 JUMP JUMPDEST SWAP1 POP SWAP2 SWAP1 POP JUMP JUMPDEST PUSH0 DUP2 SWAP1 POP SWAP2 SWAP1 POP JUMP JUMPDEST PUSH3 0x2F1 DUP4 PUSH3 0x2B6 JUMP JUMPDEST PUSH3 0x309 PUSH3 0x300 DUP3 PUSH3 0x2DD JUMP JUMPDEST DUP5 DUP5 SLOAD PUSH3 0x24F JUMP JUMPDEST DUP3 SSTORE POP POP POP POP JUMP JUMPDEST PUSH0 SWAP1 JUMP JUMPDEST PUSH3 0x31F PUSH3 0x311 JUMP JUMPDEST PUSH3 0x32C DUP2 DUP5 DUP5 PUSH3 0x2E6 JUMP JUMPDEST POP POP POP JUMP JUMPDEST JUMPDEST DUP2 DUP2 LT ISZERO PUSH3 0x353 JUMPI PUSH3 0x347 PUSH0 DUP3 PUSH3 0x315 JUMP JUMPDEST PUSH1 0x1 DUP2 ADD SWAP1 POP PUSH3 0x332 JUMP JUMPDEST POP POP JUMP JUMPDEST PUSH1 0x1F DUP3 GT ISZERO PUSH3 0x3A2 JUMPI PUSH3 0x36C DUP2 PUSH3 0x222 JUMP JUMPDEST PUSH3 0x377 DUP5 PUSH3 0x234 JUMP JUMPDEST DUP2 ADD PUSH1 0x20 DUP6 LT ISZERO PUSH3 0x387 JUMPI DUP2 SWAP1 POP JUMPDEST PUSH3 0x39F PUSH3 0x396 DUP6 PUSH3 0x234 JUMP JUMPDEST DUP4 ADD DUP3 PUSH3 0x331 JUMP JUMPDEST POP POP JUMPDEST POP POP POP JUMP JUMPDEST PUSH0 DUP3 DUP3 SHR SWAP1 POP SWAP3 SWAP2 POP POP JUMP JUMPDEST PUSH0 PUSH3 0x3C4 PUSH0 NOT DUP5 PUSH1 0x8 MUL PUSH3 0x3A7 JUMP JUMPDEST NOT DUP1 DUP4 AND SWAP2 POP POP SWAP3 SWAP2 POP POP JUMP JUMPDEST PUSH0 PUSH3 0x3DE DUP4 DUP4 PUSH3 0x3B3 JUMP JUMPDEST SWAP2 POP DUP3 PUSH1 0x2 MUL DUP3 OR SWAP1 POP SWAP3 SWAP2 POP POP JUMP JUMPDEST PUSH3 0x3F9 DUP3 PUSH3 0x18A JUMP JUMPDEST PUSH8 0xFFFFFFFFFFFFFFFF DUP2 GT ISZERO PUSH3 0x415 JUMPI PUSH3 0x414 PUSH3 0x194 JUMP JUMPDEST JUMPDEST PUSH3 0x421 DUP3 SLOAD PUSH3 0x1EE JUMP JUMPDEST PUSH3 0x42E DUP3 DUP3 DUP6 PUSH3 0x357 JUMP JUMPDEST PUSH0 PUSH1 0x20 SWAP1 POP PUSH1 0x1F DUP4 GT PUSH1 0x1 DUP2 EQ PUSH3 0x464 JUMPI PUSH0 DUP5 ISZERO PUSH3 0x44F JUMPI DUP3 DUP8 ADD MLOAD SWAP1 POP JUMPDEST PUSH3 0x45B DUP6 DUP3 PUSH3 0x3D1 JUMP JUMPDEST DUP7 SSTORE POP PUSH3 0x4CA JUMP JUMPDEST PUSH1 0x1F NOT DUP5 AND PUSH3 0x474 DUP7 PUSH3 0x222 JUMP JUMPDEST PUSH0 JUMPDEST DUP3 DUP2 LT ISZERO PUSH3 0x49D JUMPI DUP5 DUP10 ADD MLOAD DUP3 SSTORE PUSH1 0x1 DUP3 ADD SWAP2 POP PUSH1 0x20 DUP6 ADD SWAP5 POP PUSH1 0x20 DUP2 ADD SWAP1 POP PUSH3 0x476 JUMP JUMPDEST DUP7 DUP4 LT ISZERO PUSH3 0x4BD JUMPI DUP5 DUP10 ADD MLOAD PUSH3 0x4B9 PUSH1 0x1F DUP10 AND DUP3 PUSH3 0x3B3 JUMP JUMPDEST DUP4 SSTORE POP JUMPDEST PUSH1 0x1 PUSH1 0x2 DUP9 MUL ADD DUP9 SSTORE POP POP POP JUMPDEST POP POP POP POP POP POP JUMP JUMPDEST PUSH32 0x4E487B7100000000000000000000000000000000000000000000000000000000 PUSH0 MSTORE PUSH1 0x21 PUSH1 0x4 MSTORE PUSH1 0x24 PUSH0 REVERT JUMPDEST PUSH32 0x4E487B7100000000000000000000000000000000000000000000000000000000 PUSH0 MSTORE PUSH1 0x11 PUSH1 0x4 MSTORE PUSH1 0x24 PUSH0 REVERT JUMPDEST PUSH0 PUSH3 0x538 DUP3 PUSH3 0x2A4 JUMP JUMPDEST SWAP2 POP PUSH3 0x545 DUP4 PUSH3 0x2A4 JUMP JUMPDEST SWAP3 POP DUP3 DUP3 ADD SWAP1 POP DUP1 DUP3 GT ISZERO PUSH3 0x560 JUMPI PUSH3 0x55F PUSH3 0x4FF JUMP JUMPDEST JUMPDEST SWAP3 SWAP2 POP POP JUMP JUMPDEST PUSH2 0x10E8 DUP1 PUSH3 0x574 PUSH0 CODECOPY PUSH0 RETURN INVALID PUSH1 0x80 PUSH1 0x40 MSTORE PUSH1 0x4 CALLDATASIZE LT PUSH2 0x9B JUMPI PUSH0 CALLDATALOAD PUSH1 0xE0 SHR DUP1 PUSH4 0x8DA5CB5B GT PUSH2 0x63 JUMPI DUP1 PUSH4 0x8DA5CB5B EQ PUSH2 0x163 JUMPI DUP1 PUSH4 0x91F90157 EQ PUSH2 0x18D JUMPI DUP1 PUSH4 0xBD15CB44 EQ PUSH2 0x1B7 JUMPI DUP1 PUSH4 0xDE31C95B EQ PUSH2 0x1E1 JUMPI DUP1 PUSH4 0xF5B56C56 EQ PUSH2 0x1F7 JUMPI DUP1 PUSH4 0xF77282AB EQ PUSH2 0x221 JUMPI PUSH2 0x9B JUMP JUMPDEST DUP1 PUSH4 0x83C6323 EQ PUSH2 0x9F JUMPI DUP1 PUSH4 0x1669BE96 EQ PUSH2 0xC9 JUMPI DUP1 PUSH4 0x48CD4CB1 EQ PUSH2 0xD3 JUMPI DUP1 PUSH4 0x507CD3CB EQ PUSH2 0xFD JUMPI DUP1 PUSH4 0x62EA82DB EQ PUSH2 0x127 JUMPI JUMPDEST PUSH0 DUP1 REVERT JUMPDEST CALLVALUE DUP1 ISZERO PUSH2 0xAA JUMPI PUSH0 DUP1 REVERT JUMPDEST POP PUSH2 0xB3 PUSH2 0x237 JUMP JUMPDEST PUSH1 0x40 MLOAD PUSH2 0xC0 SWAP2 SWAP1 PUSH2 0xBA9 JUMP JUMPDEST PUSH1 0x40 MLOAD DUP1 SWAP2 SUB SWAP1 RETURN JUMPDEST PUSH2 0xD1 PUSH2 0x23D JUMP JUMPDEST STOP JUMPDEST CALLVALUE DUP1 ISZERO PUSH2 0xDE JUMPI PUSH0 DUP1 REVERT JUMPDEST POP PUSH2 0xE7 PUSH2 0x614 JUMP JUMPDEST PUSH1 0x40 MLOAD PUSH2 0xF4 SWAP2 SWAP1 PUSH2 0xBA9 JUMP JUMPDEST PUSH1 0x40 MLOAD DUP1 SWAP2 SUB SWAP1 RETURN JUMPDEST CALLVALUE DUP1 ISZERO PUSH2 0x108 JUMPI PUSH0 DUP1 REVERT JUMPDEST POP PUSH2 0x111 PUSH2 0x61A JUMP JUMPDEST PUSH1 0x40 MLOAD PUSH2 0x11E SWAP2 SWAP1 PUSH2 0xC35 JUMP JUMPDEST PUSH1 0x40 MLOAD DUP1 SWAP2 SUB SWAP1 RETURN JUMPDEST CALLVALUE DUP1 ISZERO PUSH2 0x132 JUMPI PUSH0 DUP1 REVERT JUMPDEST POP PUSH2 0x14D PUSH1 0x4 DUP1 CALLDATASIZE SUB DUP2 ADD SWAP1 PUSH2 0x148 SWAP2 SWAP1 PUSH2 0xCAC JUMP JUMPDEST PUSH2 0x62C JUMP JUMPDEST PUSH1 0x40 MLOAD PUSH2 0x15A SWAP2 SWAP1 PUSH2 0xBA9 JUMP JUMPDEST PUSH1 0x40 MLOAD DUP1 SWAP2 SUB SWAP1 RETURN JUMPDEST CALLVALUE DUP1 ISZERO PUSH2 0x16E JUMPI PUSH0 DUP1 REVERT JUMPDEST POP PUSH2 0x177 PUSH2 0x641 JUMP JUMPDEST PUSH1 0x40 MLOAD PUSH2 0x184 SWAP2 SWAP1 PUSH2 0xCF7 JUMP JUMPDEST PUSH1 0x40 MLOAD DUP1 SWAP2 SUB SWAP1 RETURN JUMPDEST CALLVALUE DUP1 ISZERO PUSH2 0x198 JUMPI PUSH0 DUP1 REVERT JUMPDEST POP PUSH2 0x1A1 PUSH2 0x664 JUMP JUMPDEST PUSH1 0x40 MLOAD PUSH2 0x1AE SWAP2 SWAP1 PUSH2 0xCF7 JUMP JUMPDEST PUSH1 0x40 MLOAD DUP1 SWAP2 SUB SWAP1 RETURN JUMPDEST CALLVALUE DUP1 ISZERO PUSH2 0x1C2 JUMPI PUSH0 DUP1 REVERT JUMPDEST POP PUSH2 0x1CB PUSH2 0x689 JUMP JUMPDEST PUSH1 0x40 MLOAD PUSH2 0x1D8 SWAP2 SWAP1 PUSH2 0xD9A JUMP JUMPDEST PUSH1 0x40 MLOAD DUP1 SWAP2 SUB SWAP1 RETURN JUMPDEST CALLVALUE DUP1 ISZERO PUSH2 0x1EC JUMPI PUSH0 DUP1 REVERT JUMPDEST POP PUSH2 0x1F5 PUSH2 0x715 JUMP JUMPDEST STOP JUMPDEST CALLVALUE DUP1 ISZERO PUSH2 0x202 JUMPI PUSH0 DUP1 REVERT JUMPDEST POP PUSH2 0x20B PUSH2 0x7CE JUMP JUMPDEST PUSH1 0x40 MLOAD PUSH2 0x218 SWAP2 SWAP1 PUSH2 0xBA9 JUMP JUMPDEST PUSH1 0x40 MLOAD DUP1 SWAP2 SUB SWAP1 RETURN JUMPDEST CALLVALUE DUP1 ISZERO PUSH2 0x22C JUMPI PUSH0 DUP1 REVERT JUMPDEST POP PUSH2 0x235 PUSH2 0x7D4 JUMP JUMPDEST STOP JUMPDEST PUSH1 0x2 SLOAD DUP2 JUMP JUMPDEST PUSH0 DUP1 SLOAD SWAP1 PUSH2 0x100 EXP SWAP1 DIV PUSH20 0xFFFFFFFFFFFFFFFFFFFFFFFFFFFFFFFFFFFFFFFF AND PUSH20 0xFFFFFFFFFFFFFFFFFFFFFFFFFFFFFFFFFFFFFFFF AND CALLER PUSH20 0xFFFFFFFFFFFFFFFFFFFFFFFFFFFFFFFFFFFFFFFF AND SUB PUSH2 0x2CA JUMPI PUSH1 0x40 MLOAD PUSH32 0x8C379A000000000000000000000000000000000000000000000000000000000 DUP2 MSTORE PUSH1 0x4 ADD PUSH2 0x2C1 SWAP1 PUSH2 0xE04 JUMP JUMPDEST PUSH1 0x40 MLOAD DUP1 SWAP2 SUB SWAP1 REVERT JUMPDEST PUSH1 0x1 SLOAD NUMBER LT ISZERO PUSH2 0x2D8 JUMPI PUSH0 DUP1 REVERT JUMPDEST PUSH1 0x2 SLOAD NUMBER LT PUSH2 0x2E5 JUMPI PUSH0 DUP1 REVERT JUMPDEST PUSH1 0x1 PUSH1 0x3 DUP2 GT ISZERO PUSH2 0x2F9 JUMPI PUSH2 0x2F8 PUSH2 0xBC2 JUMP JUMPDEST JUMPDEST PUSH1 0x4 PUSH0 SWAP1 SLOAD SWAP1 PUSH2 0x100 EXP SWAP1 DIV PUSH1 0xFF AND PUSH1 0x3 DUP2 GT ISZERO PUSH2 0x31A JUMPI PUSH2 0x319 PUSH2 0xBC2 JUMP JUMPDEST JUMPDEST EQ PUSH2 0x35A JUMPI PUSH1 0x40 MLOAD PUSH32 0x8C379A000000000000000000000000000000000000000000000000000000000 DUP2 MSTORE PUSH1 0x4 ADD PUSH2 0x351 SWAP1 PUSH2 0xE6C JUMP JUMPDEST PUSH1 0x40 MLOAD DUP1 SWAP2 SUB SWAP1 REVERT JUMPDEST PUSH1 0x64 CALLVALUE LT ISZERO PUSH2 0x39E JUMPI PUSH1 0x40 MLOAD PUSH32 0x8C379A000000000000000000000000000000000000000000000000000000000 DUP2 MSTORE PUSH1 0x4 ADD PUSH2 0x395 SWAP1 PUSH2 0xED4 JUMP JUMPDEST PUSH1 0x40 MLOAD DUP1 SWAP2 SUB SWAP1 REVERT JUMPDEST PUSH0 CALLVALUE PUSH1 0x7 PUSH0 CALLER PUSH20 0xFFFFFFFFFFFFFFFFFFFFFFFFFFFFFFFFFFFFFFFF AND PUSH20 0xFFFFFFFFFFFFFFFFFFFFFFFFFFFFFFFFFFFFFFFF AND DUP2 MSTORE PUSH1 0x20 ADD SWAP1 DUP2 MSTORE PUSH1 0x20 ADD PUSH0 KECCAK256 SLOAD PUSH2 0x3E8 SWAP2 SWAP1 PUSH2 0xF1F JUMP JUMPDEST SWAP1 POP PUSH1 0x5 SLOAD DUP2 GT PUSH2 0x42E JUMPI PUSH1 0x40 MLOAD PUSH32 0x8C379A000000000000000000000000000000000000000000000000000000000 DUP2 MSTORE PUSH1 0x4 ADD PUSH2 0x425 SWAP1 PUSH2 0xF9C JUMP JUMPDEST PUSH1 0x40 MLOAD DUP1 SWAP2 SUB SWAP1 REVERT JUMPDEST DUP1 PUSH1 0x7 PUSH0 CALLER PUSH20 0xFFFFFFFFFFFFFFFFFFFFFFFFFFFFFFFFFFFFFFFF AND PUSH20 0xFFFFFFFFFFFFFFFFFFFFFFFFFFFFFFFFFFFFFFFF AND DUP2 MSTORE PUSH1 0x20 ADD SWAP1 DUP2 MSTORE PUSH1 0x20 ADD PUSH0 KECCAK256 DUP2 SWAP1 SSTORE POP PUSH1 0x7 PUSH0 PUSH1 0x6 PUSH0 SWAP1 SLOAD SWAP1 PUSH2 0x100 EXP SWAP1 DIV PUSH20 0xFFFFFFFFFFFFFFFFFFFFFFFFFFFFFFFFFFFFFFFF AND PUSH20 0xFFFFFFFFFFFFFFFFFFFFFFFFFFFFFFFFFFFFFFFF AND PUSH20 0xFFFFFFFFFFFFFFFFFFFFFFFFFFFFFFFFFFFFFFFF AND DUP2 MSTORE PUSH1 0x20 ADD SWAP1 DUP2 MSTORE PUSH1 0x20 ADD PUSH0 KECCAK256 SLOAD DUP2 GT PUSH2 0x555 JUMPI PUSH2 0x54A PUSH1 0x8 SLOAD DUP3 PUSH2 0x4E6 SWAP2 SWAP1 PUSH2 0xF1F JUMP JUMPDEST PUSH1 0x7 PUSH0 PUSH1 0x6 PUSH0 SWAP1 SLOAD SWAP1 PUSH2 0x100 EXP SWAP1 DIV PUSH20 0xFFFFFFFFFFFFFFFFFFFFFFFFFFFFFFFFFFFFFFFF AND PUSH20 0xFFFFFFFFFFFFFFFFFFFFFFFFFFFFFFFFFFFFFFFF AND PUSH20 0xFFFFFFFFFFFFFFFFFFFFFFFFFFFFFFFFFFFFFFFF AND DUP2 MSTORE PUSH1 0x20 ADD SWAP1 DUP2 MSTORE PUSH1 0x20 ADD PUSH0 KECCAK256 SLOAD PUSH2 0xB76 JUMP JUMPDEST PUSH1 0x5 DUP2 SWAP1 SSTORE POP PUSH2 0x611 JUMP JUMPDEST PUSH2 0x5CA DUP2 PUSH1 0x8 SLOAD PUSH1 0x7 PUSH0 PUSH1 0x6 PUSH0 SWAP1 SLOAD SWAP1 PUSH2 0x100 EXP SWAP1 DIV PUSH20 0xFFFFFFFFFFFFFFFFFFFFFFFFFFFFFFFFFFFFFFFF AND PUSH20 0xFFFFFFFFFFFFFFFFFFFFFFFFFFFFFFFFFFFFFFFF AND PUSH20 0xFFFFFFFFFFFFFFFFFFFFFFFFFFFFFFFFFFFFFFFF AND DUP2 MSTORE PUSH1 0x20 ADD SWAP1 DUP2 MSTORE PUSH1 0x20 ADD PUSH0 KECCAK256 SLOAD PUSH2 0x5C5 SWAP2 SWAP1 PUSH2 0xF1F JUMP JUMPDEST PUSH2 0xB76 JUMP JUMPDEST PUSH1 0x5 DUP2 SWAP1 SSTORE POP CALLER PUSH1 0x6 PUSH0 PUSH2 0x100 EXP DUP2 SLOAD DUP2 PUSH20 0xFFFFFFFFFFFFFFFFFFFFFFFFFFFFFFFFFFFFFFFF MUL NOT AND SWAP1 DUP4 PUSH20 0xFFFFFFFFFFFFFFFFFFFFFFFFFFFFFFFFFFFFFFFF AND MUL OR SWAP1 SSTORE POP JUMPDEST POP JUMP JUMPDEST PUSH1 0x1 SLOAD DUP2 JUMP JUMPDEST PUSH1 0x4 PUSH0 SWAP1 SLOAD SWAP1 PUSH2 0x100 EXP SWAP1 DIV PUSH1 0xFF AND DUP2 JUMP JUMPDEST PUSH1 0x7 PUSH1 0x20 MSTORE DUP1 PUSH0 MSTORE PUSH1 0x40 PUSH0 KECCAK256 PUSH0 SWAP2 POP SWAP1 POP SLOAD DUP2 JUMP JUMPDEST PUSH0 DUP1 SLOAD SWAP1 PUSH2 0x100 EXP SWAP1 DIV PUSH20 0xFFFFFFFFFFFFFFFFFFFFFFFFFFFFFFFFFFFFFFFF AND DUP2 JUMP JUMPDEST PUSH1 0x6 PUSH0 SWAP1 SLOAD SWAP1 PUSH2 0x100 EXP SWAP1 DIV PUSH20 0xFFFFFFFFFFFFFFFFFFFFFFFFFFFFFFFFFFFFFFFF AND DUP2 JUMP JUMPDEST PUSH1 0x3 DUP1 SLOAD PUSH2 0x696 SWAP1 PUSH2 0xFE7 JUMP JUMPDEST DUP1 PUSH1 0x1F ADD PUSH1 0x20 DUP1 SWAP2 DIV MUL PUSH1 0x20 ADD PUSH1 0x40 MLOAD SWAP1 DUP2 ADD PUSH1 0x40 MSTORE DUP1 SWAP3 SWAP2 SWAP1 DUP2 DUP2 MSTORE PUSH1 0x20 ADD DUP3 DUP1 SLOAD PUSH2 0x6C2 SWAP1 PUSH2 0xFE7 JUMP JUMPDEST DUP1 ISZERO PUSH2 0x70D JUMPI DUP1 PUSH1 0x1F LT PUSH2 0x6E4 JUMPI PUSH2 0x100 DUP1 DUP4 SLOAD DIV MUL DUP4 MSTORE SWAP2 PUSH1 0x20 ADD SWAP2 PUSH2 0x70D JUMP JUMPDEST DUP3 ADD SWAP2 SWAP1 PUSH0 MSTORE PUSH1 0x20 PUSH0 KECCAK256 SWAP1 JUMPDEST DUP2 SLOAD DUP2 MSTORE SWAP1 PUSH1 0x1 ADD SWAP1 PUSH1 0x20 ADD DUP1 DUP4 GT PUSH2 0x6F0 JUMPI DUP3 SWAP1 SUB PUSH1 0x1F AND DUP3 ADD SWAP2 JUMPDEST POP POP POP POP POP DUP2 JUMP JUMPDEST PUSH0 DUP1 SLOAD SWAP1 PUSH2 0x100 EXP SWAP1 DIV PUSH20 0xFFFFFFFFFFFFFFFFFFFFFFFFFFFFFFFFFFFFFFFF AND PUSH20 0xFFFFFFFFFFFFFFFFFFFFFFFFFFFFFFFFFFFFFFFF AND CALLER PUSH20 0xFFFFFFFFFFFFFFFFFFFFFFFFFFFFFFFFFFFFFFFF AND EQ PUSH2 0x7A2 JUMPI PUSH1 0x40 MLOAD PUSH32 0x8C379A000000000000000000000000000000000000000000000000000000000 DUP2 MSTORE PUSH1 0x4 ADD PUSH2 0x799 SWAP1 PUSH2 0x1061 JUMP JUMPDEST PUSH1 0x40 MLOAD DUP1 SWAP2 SUB SWAP1 REVERT JUMPDEST PUSH1 0x3 PUSH1 0x4 PUSH0 PUSH2 0x100 EXP DUP2 SLOAD DUP2 PUSH1 0xFF MUL NOT AND SWAP1 DUP4 PUSH1 0x3 DUP2 GT ISZERO PUSH2 0x7C7 JUMPI PUSH2 0x7C6 PUSH2 0xBC2 JUMP JUMPDEST JUMPDEST MUL OR SWAP1 SSTORE POP JUMP JUMPDEST PUSH1 0x5 SLOAD DUP2 JUMP JUMPDEST PUSH1 0x3 DUP1 DUP2 GT ISZERO PUSH2 0x7E7 JUMPI PUSH2 0x7E6 PUSH2 0xBC2 JUMP JUMPDEST JUMPDEST PUSH1 0x4 PUSH0 SWAP1 SLOAD SWAP1 PUSH2 0x100 EXP SWAP1 DIV PUSH1 0xFF AND PUSH1 0x3 DUP2 GT ISZERO PUSH2 0x808 JUMPI PUSH2 0x807 PUSH2 0xBC2 JUMP JUMPDEST JUMPDEST EQ DUP1 PUSH2 0x815 JUMPI POP PUSH1 0x2 SLOAD NUMBER EQ JUMPDEST PUSH2 0x81D JUMPI PUSH0 DUP1 REVERT JUMPDEST PUSH0 DUP1 SLOAD SWAP1 PUSH2 0x100 EXP SWAP1 DIV PUSH20 0xFFFFFFFFFFFFFFFFFFFFFFFFFFFFFFFFFFFFFFFF AND PUSH20 0xFFFFFFFFFFFFFFFFFFFFFFFFFFFFFFFFFFFFFFFF AND CALLER PUSH20 0xFFFFFFFFFFFFFFFFFFFFFFFFFFFFFFFFFFFFFFFF AND EQ DUP1 PUSH2 0x8B2 JUMPI POP PUSH0 PUSH1 0x7 PUSH0 CALLER PUSH20 0xFFFFFFFFFFFFFFFFFFFFFFFFFFFFFFFFFFFFFFFF AND PUSH20 0xFFFFFFFFFFFFFFFFFFFFFFFFFFFFFFFFFFFFFFFF AND DUP2 MSTORE PUSH1 0x20 ADD SWAP1 DUP2 MSTORE PUSH1 0x20 ADD PUSH0 KECCAK256 SLOAD GT JUMPDEST PUSH2 0x8BA JUMPI PUSH0 DUP1 REVERT JUMPDEST PUSH0 DUP1 PUSH1 0x3 DUP1 DUP2 GT ISZERO PUSH2 0x8CF JUMPI PUSH2 0x8CE PUSH2 0xBC2 JUMP JUMPDEST JUMPDEST PUSH1 0x4 PUSH0 SWAP1 SLOAD SWAP1 PUSH2 0x100 EXP SWAP1 DIV PUSH1 0xFF AND PUSH1 0x3 DUP2 GT ISZERO PUSH2 0x8F0 JUMPI PUSH2 0x8EF PUSH2 0xBC2 JUMP JUMPDEST JUMPDEST SUB PUSH2 0x93D JUMPI CALLER SWAP2 POP PUSH1 0x7 PUSH0 CALLER PUSH20 0xFFFFFFFFFFFFFFFFFFFFFFFFFFFFFFFFFFFFFFFF AND PUSH20 0xFFFFFFFFFFFFFFFFFFFFFFFFFFFFFFFFFFFFFFFF AND DUP2 MSTORE PUSH1 0x20 ADD SWAP1 DUP2 MSTORE PUSH1 0x20 ADD PUSH0 KECCAK256 SLOAD SWAP1 POP PUSH2 0xAEC JUMP JUMPDEST PUSH0 DUP1 SLOAD SWAP1 PUSH2 0x100 EXP SWAP1 DIV PUSH20 0xFFFFFFFFFFFFFFFFFFFFFFFFFFFFFFFFFFFFFFFF AND PUSH20 0xFFFFFFFFFFFFFFFFFFFFFFFFFFFFFFFFFFFFFFFF AND CALLER PUSH20 0xFFFFFFFFFFFFFFFFFFFFFFFFFFFFFFFFFFFFFFFF AND SUB PUSH2 0x9BB JUMPI PUSH0 DUP1 SLOAD SWAP1 PUSH2 0x100 EXP SWAP1 DIV PUSH20 0xFFFFFFFFFFFFFFFFFFFFFFFFFFFFFFFFFFFFFFFF AND SWAP2 POP PUSH1 0x5 SLOAD SWAP1 POP PUSH2 0xAEB JUMP JUMPDEST PUSH1 0x6 PUSH0 SWAP1 SLOAD SWAP1 PUSH2 0x100 EXP SWAP1 DIV PUSH20 0xFFFFFFFFFFFFFFFFFFFFFFFFFFFFFFFFFFFFFFFF AND PUSH20 0xFFFFFFFFFFFFFFFFFFFFFFFFFFFFFFFFFFFFFFFF AND CALLER PUSH20 0xFFFFFFFFFFFFFFFFFFFFFFFFFFFFFFFFFFFFFFFF AND SUB PUSH2 0xAA6 JUMPI PUSH1 0x6 PUSH0 SWAP1 SLOAD SWAP1 PUSH2 0x100 EXP SWAP1 DIV PUSH20 0xFFFFFFFFFFFFFFFFFFFFFFFFFFFFFFFFFFFFFFFF AND SWAP2 POP PUSH1 0x5 SLOAD PUSH1 0x7 PUSH0 PUSH1 0x6 PUSH0 SWAP1 SLOAD SWAP1 PUSH2 0x100 EXP SWAP1 DIV PUSH20 0xFFFFFFFFFFFFFFFFFFFFFFFFFFFFFFFFFFFFFFFF AND PUSH20 0xFFFFFFFFFFFFFFFFFFFFFFFFFFFFFFFFFFFFFFFF AND PUSH20 0xFFFFFFFFFFFFFFFFFFFFFFFFFFFFFFFFFFFFFFFF AND DUP2 MSTORE PUSH1 0x20 ADD SWAP1 DUP2 MSTORE PUSH1 0x20 ADD PUSH0 KECCAK256 SLOAD PUSH2 0xA9F SWAP2 SWAP1 PUSH2 0x107F JUMP JUMPDEST SWAP1 POP PUSH2 0xAEA JUMP JUMPDEST CALLER SWAP2 POP PUSH1 0x7 PUSH0 CALLER PUSH20 0xFFFFFFFFFFFFFFFFFFFFFFFFFFFFFFFFFFFFFFFF AND PUSH20 0xFFFFFFFFFFFFFFFFFFFFFFFFFFFFFFFFFFFFFFFF AND DUP2 MSTORE PUSH1 0x20 ADD SWAP1 DUP2 MSTORE PUSH1 0x20 ADD PUSH0 KECCAK256 SLOAD SWAP1 POP JUMPDEST JUMPDEST JUMPDEST PUSH0 PUSH1 0x7 PUSH0 DUP5 PUSH20 0xFFFFFFFFFFFFFFFFFFFFFFFFFFFFFFFFFFFFFFFF AND PUSH20 0xFFFFFFFFFFFFFFFFFFFFFFFFFFFFFFFFFFFFFFFF AND DUP2 MSTORE PUSH1 0x20 ADD SWAP1 DUP2 MSTORE PUSH1 0x20 ADD PUSH0 KECCAK256 DUP2 SWAP1 SSTORE POP DUP2 PUSH20 0xFFFFFFFFFFFFFFFFFFFFFFFFFFFFFFFFFFFFFFFF AND PUSH2 0x8FC DUP3 SWAP1 DUP2 ISZERO MUL SWAP1 PUSH1 0x40 MLOAD PUSH0 PUSH1 0x40 MLOAD DUP1 DUP4 SUB DUP2 DUP6 DUP9 DUP9 CALL SWAP4 POP POP POP POP ISZERO DUP1 ISZERO PUSH2 0xB71 JUMPI RETURNDATASIZE PUSH0 DUP1 RETURNDATACOPY RETURNDATASIZE PUSH0 REVERT JUMPDEST POP POP POP JUMP JUMPDEST PUSH0 DUP2 DUP4 GT ISZERO PUSH2 0xB87 JUMPI DUP2 SWAP1 POP PUSH2 0xB8B JUMP JUMPDEST DUP3 SWAP1 POP JUMPDEST SWAP3 SWAP2 POP POP JUMP JUMPDEST PUSH0 DUP2 SWAP1 POP SWAP2 SWAP1 POP JUMP JUMPDEST PUSH2 0xBA3 DUP2 PUSH2 0xB91 JUMP JUMPDEST DUP3 MSTORE POP POP JUMP JUMPDEST PUSH0 PUSH1 0x20 DUP3 ADD SWAP1 POP PUSH2 0xBBC PUSH0 DUP4 ADD DUP5 PUSH2 0xB9A JUMP JUMPDEST SWAP3 SWAP2 POP POP JUMP JUMPDEST PUSH32 0x4E487B7100000000000000000000000000000000000000000000000000000000 PUSH0 MSTORE PUSH1 0x21 PUSH1 0x4 MSTORE PUSH1 0x24 PUSH0 REVERT JUMPDEST PUSH1 0x4 DUP2 LT PUSH2 0xC00 JUMPI PUSH2 0xBFF PUSH2 0xBC2 JUMP JUMPDEST JUMPDEST POP JUMP JUMPDEST PUSH0 DUP2 SWAP1 POP PUSH2 0xC10 DUP3 PUSH2 0xBEF JUMP JUMPDEST SWAP2 SWAP1 POP JUMP JUMPDEST PUSH0 PUSH2 0xC1F DUP3 PUSH2 0xC03 JUMP JUMPDEST SWAP1 POP SWAP2 SWAP1 POP JUMP JUMPDEST PUSH2 0xC2F DUP2 PUSH2 0xC15 JUMP JUMPDEST DUP3 MSTORE POP POP JUMP JUMPDEST PUSH0 PUSH1 0x20 DUP3 ADD SWAP1 POP PUSH2 0xC48 PUSH0 DUP4 ADD DUP5 PUSH2 0xC26 JUMP JUMPDEST SWAP3 SWAP2 POP POP JUMP JUMPDEST PUSH0 DUP1 REVERT JUMPDEST PUSH0 PUSH20 0xFFFFFFFFFFFFFFFFFFFFFFFFFFFFFFFFFFFFFFFF DUP3 AND SWAP1 POP SWAP2 SWAP1 POP JUMP JUMPDEST PUSH0 PUSH2 0xC7B DUP3 PUSH2 0xC52 JUMP JUMPDEST SWAP1 POP SWAP2 SWAP1 POP JUMP JUMPDEST PUSH2 0xC8B DUP2 PUSH2 0xC71 JUMP JUMPDEST DUP2 EQ PUSH2 0xC95 JUMPI PUSH0 DUP1 REVERT JUMPDEST POP JUMP JUMPDEST PUSH0 DUP2 CALLDATALOAD SWAP1 POP PUSH2 0xCA6 DUP2 PUSH2 0xC82 JUMP JUMPDEST SWAP3 SWAP2 POP POP JUMP JUMPDEST PUSH0 PUSH1 0x20 DUP3 DUP5 SUB SLT ISZERO PUSH2 0xCC1 JUMPI PUSH2 0xCC0 PUSH2 0xC4E JUMP JUMPDEST JUMPDEST PUSH0 PUSH2 0xCCE DUP5 DUP3 DUP6 ADD PUSH2 0xC98 JUMP JUMPDEST SWAP2 POP POP SWAP3 SWAP2 POP POP JUMP JUMPDEST PUSH0 PUSH2 0xCE1 DUP3 PUSH2 0xC52 JUMP JUMPDEST SWAP1 POP SWAP2 SWAP1 POP JUMP JUMPDEST PUSH2 0xCF1 DUP2 PUSH2 0xCD7 JUMP JUMPDEST DUP3 MSTORE POP POP JUMP JUMPDEST PUSH0 PUSH1 0x20 DUP3 ADD SWAP1 POP PUSH2 0xD0A PUSH0 DUP4 ADD DUP5 PUSH2 0xCE8 JUMP JUMPDEST SWAP3 SWAP2 POP POP JUMP JUMPDEST PUSH0 DUP2 MLOAD SWAP1 POP SWAP2 SWAP1 POP JUMP JUMPDEST PUSH0 DUP3 DUP3 MSTORE PUSH1 0x20 DUP3 ADD SWAP1 POP SWAP3 SWAP2 POP POP JUMP JUMPDEST PUSH0 JUMPDEST DUP4 DUP2 LT ISZERO PUSH2 0xD47 JUMPI DUP1 DUP3 ADD MLOAD DUP2 DUP5 ADD MSTORE PUSH1 0x20 DUP2 ADD SWAP1 POP PUSH2 0xD2C JUMP JUMPDEST PUSH0 DUP5 DUP5 ADD MSTORE POP POP POP POP JUMP JUMPDEST PUSH0 PUSH1 0x1F NOT PUSH1 0x1F DUP4 ADD AND SWAP1 POP SWAP2 SWAP1 POP JUMP JUMPDEST PUSH0 PUSH2 0xD6C DUP3 PUSH2 0xD10 JUMP JUMPDEST PUSH2 0xD76 DUP2 DUP6 PUSH2 0xD1A JUMP JUMPDEST SWAP4 POP PUSH2 0xD86 DUP2 DUP6 PUSH1 0x20 DUP7 ADD PUSH2 0xD2A JUMP JUMPDEST PUSH2 0xD8F DUP2 PUSH2 0xD52 JUMP JUMPDEST DUP5 ADD SWAP2 POP POP SWAP3 SWAP2 POP POP JUMP JUMPDEST PUSH0 PUSH1 0x20 DUP3 ADD SWAP1 POP DUP2 DUP2 SUB PUSH0 DUP4 ADD MSTORE PUSH2 0xDB2 DUP2 DUP5 PUSH2 0xD62 JUMP JUMPDEST SWAP1 POP SWAP3 SWAP2 POP POP JUMP JUMPDEST PUSH32 0x6F776E6572206973206E6F7420617574686F726974696F6E0000000000000000 PUSH0 DUP3 ADD MSTORE POP JUMP JUMPDEST PUSH0 PUSH2 0xDEE PUSH1 0x18 DUP4 PUSH2 0xD1A JUMP JUMPDEST SWAP2 POP PUSH2 0xDF9 DUP3 PUSH2 0xDBA JUMP JUMPDEST PUSH1 0x20 DUP3 ADD SWAP1 POP SWAP2 SWAP1 POP JUMP JUMPDEST PUSH0 PUSH1 0x20 DUP3 ADD SWAP1 POP DUP2 DUP2 SUB PUSH0 DUP4 ADD MSTORE PUSH2 0xE1B DUP2 PUSH2 0xDE2 JUMP JUMPDEST SWAP1 POP SWAP2 SWAP1 POP JUMP JUMPDEST PUSH32 0x7374617465206973206E6F742072756E696E6700000000000000000000000000 PUSH0 DUP3 ADD MSTORE POP JUMP JUMPDEST PUSH0 PUSH2 0xE56 PUSH1 0x13 DUP4 PUSH2 0xD1A JUMP JUMPDEST SWAP2 POP PUSH2 0xE61 DUP3 PUSH2 0xE22 JUMP JUMPDEST PUSH1 0x20 DUP3 ADD SWAP1 POP SWAP2 SWAP1 POP JUMP JUMPDEST PUSH0 PUSH1 0x20 DUP3 ADD SWAP1 POP DUP2 DUP2 SUB PUSH0 DUP4 ADD MSTORE PUSH2 0xE83 DUP2 PUSH2 0xE4A JUMP JUMPDEST SWAP1 POP SWAP2 SWAP1 POP JUMP JUMPDEST PUSH32 0x796F7572206D6F6E6579206E6F74206269676765722031303020776569000000 PUSH0 DUP3 ADD MSTORE POP JUMP JUMPDEST PUSH0 PUSH2 0xEBE PUSH1 0x1D DUP4 PUSH2 0xD1A JUMP JUMPDEST SWAP2 POP PUSH2 0xEC9 DUP3 PUSH2 0xE8A JUMP JUMPDEST PUSH1 0x20 DUP3 ADD SWAP1 POP SWAP2 SWAP1 POP JUMP JUMPDEST PUSH0 PUSH1 0x20 DUP3 ADD SWAP1 POP DUP2 DUP2 SUB PUSH0 DUP4 ADD MSTORE PUSH2 0xEEB DUP2 PUSH2 0xEB2 JUMP JUMPDEST SWAP1 POP SWAP2 SWAP1 POP JUMP JUMPDEST PUSH32 0x4E487B7100000000000000000000000000000000000000000000000000000000 PUSH0 MSTORE PUSH1 0x11 PUSH1 0x4 MSTORE PUSH1 0x24 PUSH0 REVERT JUMPDEST PUSH0 PUSH2 0xF29 DUP3 PUSH2 0xB91 JUMP JUMPDEST SWAP2 POP PUSH2 0xF34 DUP4 PUSH2 0xB91 JUMP JUMPDEST SWAP3 POP DUP3 DUP3 ADD SWAP1 POP DUP1 DUP3 GT ISZERO PUSH2 0xF4C JUMPI PUSH2 0xF4B PUSH2 0xEF2 JUMP JUMPDEST JUMPDEST SWAP3 SWAP2 POP POP JUMP JUMPDEST PUSH32 0x796F7572206D6F6E6579206E6F7420626967676572206D617820707269636500 PUSH0 DUP3 ADD MSTORE POP JUMP JUMPDEST PUSH0 PUSH2 0xF86 PUSH1 0x1F DUP4 PUSH2 0xD1A JUMP JUMPDEST SWAP2 POP PUSH2 0xF91 DUP3 PUSH2 0xF52 JUMP JUMPDEST PUSH1 0x20 DUP3 ADD SWAP1 POP SWAP2 SWAP1 POP JUMP JUMPDEST PUSH0 PUSH1 0x20 DUP3 ADD SWAP1 POP DUP2 DUP2 SUB PUSH0 DUP4 ADD MSTORE PUSH2 0xFB3 DUP2 PUSH2 0xF7A JUMP JUMPDEST SWAP1 POP SWAP2 SWAP1 POP JUMP JUMPDEST PUSH32 0x4E487B7100000000000000000000000000000000000000000000000000000000 PUSH0 MSTORE PUSH1 0x22 PUSH1 0x4 MSTORE PUSH1 0x24 PUSH0 REVERT JUMPDEST PUSH0 PUSH1 0x2 DUP3 DIV SWAP1 POP PUSH1 0x1 DUP3 AND DUP1 PUSH2 0xFFE JUMPI PUSH1 0x7F DUP3 AND SWAP2 POP JUMPDEST PUSH1 0x20 DUP3 LT DUP2 SUB PUSH2 0x1011 JUMPI PUSH2 0x1010 PUSH2 0xFBA JUMP JUMPDEST JUMPDEST POP SWAP2 SWAP1 POP JUMP JUMPDEST PUSH32 0x6F6E6C79206F776E6572206861766520617574686F726974696F6E0000000000 PUSH0 DUP3 ADD MSTORE POP JUMP JUMPDEST PUSH0 PUSH2 0x104B PUSH1 0x1B DUP4 PUSH2 0xD1A JUMP JUMPDEST SWAP2 POP PUSH2 0x1056 DUP3 PUSH2 0x1017 JUMP JUMPDEST PUSH1 0x20 DUP3 ADD SWAP1 POP SWAP2 SWAP1 POP JUMP JUMPDEST PUSH0 PUSH1 0x20 DUP3 ADD SWAP1 POP DUP2 DUP2 SUB PUSH0 DUP4 ADD MSTORE PUSH2 0x1078 DUP2 PUSH2 0x103F JUMP JUMPDEST SWAP1 POP SWAP2 SWAP1 POP JUMP JUMPDEST PUSH0 PUSH2 0x1089 DUP3 PUSH2 0xB91 JUMP JUMPDEST SWAP2 POP PUSH2 0x1094 DUP4 PUSH2 0xB91 JUMP JUMPDEST SWAP3 POP DUP3 DUP3 SUB SWAP1 POP DUP2 DUP2 GT ISZERO PUSH2 0x10AC JUMPI PUSH2 0x10AB PUSH2 0xEF2 JUMP JUMPDEST JUMPDEST SWAP3 SWAP2 POP POP JUMP INVALID LOG2 PUSH5 0x6970667358 0x22 SLT KECCAK256 DELEGATECALL PUSH14 0xB7A9FD091A75BAF7C747FEC4A372 SWAP8 0xD0 0xEA 0xBC 0x2D 0xB4 0x28 0x1F JUMPDEST DUP14 PUSH30 0xAB866F565A64736F6C63430008160033A26469706673582212201FE99A9B PUSH1 0x98 PUSH20 0x7CCB7AD46D3089D502ADDF61124982EBA537FEF4 0xED EXTCODECOPY KECCAK256 PUSH1 0x9D PUSH5 0x736F6C6343 STOP ADDMOD AND STOP CALLER "
				},
				"gasEstimates": {
					"creation": {
						"codeDepositCost": "1292800",
						"executionCost": "1340",
						"totalCost": "1294140"
					},
					"external": {
						"auctions(uint256)": "infinite",
						"createAuction()": "infinite"
					}
				},
				"methodIdentifiers": {
					"auctions(uint256)": "571a26a0",
					"createAuction()": "f5811447"
				}
			},
			"storageLayout": {
				"storage": [
					{
						"astId": 5,
						"contract": "auction/auction.sol:CreateAuction",
						"label": "auctions",
						"offset": 0,
						"slot": "0",
						"type": "t_array(t_contract(Auction)374)dyn_storage"
					}
				],
				"types": {
					"t_array(t_contract(Auction)374)dyn_storage": {
						"base": "t_contract(Auction)374",
						"encoding": "dynamic_array",
						"label": "contract Auction[]",
						"numberOfBytes": "32"
					},
					"t_contract(Auction)374": {
						"encoding": "inplace",
						"label": "contract Auction",
						"numberOfBytes": "20"
					}
				}
			},
			"userdoc": {
				"kind": "user",
				"methods": {},
				"version": 1
			}
		}
	}
}