{
	"chinklinkDemo/FundMe.sol": {
		"FundMe": {
			"abi": [
				{
					"inputs": [],
					"stateMutability": "nonpayable",
					"type": "constructor"
				},
				{
					"stateMutability": "payable",
					"type": "fallback"
				},
				{
					"inputs": [],
					"name": "Fund",
					"outputs": [],
					"stateMutability": "payable",
					"type": "function"
				},
				{
					"inputs": [],
					"name": "Withdraw",
					"outputs": [],
					"stateMutability": "nonpayable",
					"type": "function"
				},
				{
					"inputs": [
						{
							"internalType": "address",
							"name": "",
							"type": "address"
						}
					],
					"name": "addprce",
					"outputs": [
						{
							"internalType": "uint256",
							"name": "",
							"type": "uint256"
						}
					],
					"stateMutability": "view",
					"type": "function"
				},
				{
					"inputs": [],
					"name": "i_owner",
					"outputs": [
						{
							"internalType": "address",
							"name": "",
							"type": "address"
						}
					],
					"stateMutability": "view",
					"type": "function"
				},
				{
					"inputs": [
						{
							"internalType": "uint256",
							"name": "",
							"type": "uint256"
						}
					],
					"name": "users",
					"outputs": [
						{
							"internalType": "address",
							"name": "",
							"type": "address"
						}
					],
					"stateMutability": "view",
					"type": "function"
				},
				{
					"stateMutability": "payable",
					"type": "receive"
				}
			],
			"devdoc": {
				"kind": "dev",
				"methods": {},
				"version": 1
			},
			"evm": {
				"assembly": "    /* \"chinklinkDemo/FundMe.sol\":170:1584  contract FundMe{... */\n  mstore(0x40, 0xa0)\n    /* \"chinklinkDemo/FundMe.sol\":334:384  constructor(){... */\n  callvalue\n  dup1\n  iszero\n  tag_1\n  jumpi\n  0x00\n  dup1\n  revert\ntag_1:\n  pop\n    /* \"chinklinkDemo/FundMe.sol\":366:376  msg.sender */\n  caller\n    /* \"chinklinkDemo/FundMe.sol\":358:376  i_owner=msg.sender */\n  0xffffffffffffffffffffffffffffffffffffffff\n  and\n  0x80\n  dup2\n  0xffffffffffffffffffffffffffffffffffffffff\n  and\n  dup2\n  mstore\n  pop\n  pop\n    /* \"chinklinkDemo/FundMe.sol\":170:1584  contract FundMe{... */\n  mload(0x80)\n  codecopy(0x00, dataOffset(sub_0), dataSize(sub_0))\n  0x00\n  assignImmutable(\"0x1d3be50b2bb17407dd170f1d5da128d1def30c6b1598d6a629e79b4775265526\")\n  return(0x00, dataSize(sub_0))\nstop\n\nsub_0: assembly {\n        /* \"chinklinkDemo/FundMe.sol\":170:1584  contract FundMe{... */\n      mstore(0x40, 0x80)\n      jumpi(tag_1, lt(calldatasize, 0x04))\n      shr(0xe0, calldataload(0x00))\n      dup1\n      0x365b98b2\n      eq\n      tag_3\n      jumpi\n      dup1\n      0x57ea89b6\n      eq\n      tag_4\n      jumpi\n      dup1\n      0x6ce1417e\n      eq\n      tag_5\n      jumpi\n      dup1\n      0xdb444bac\n      eq\n      tag_6\n      jumpi\n      dup1\n      0xdba6335f\n      eq\n      tag_7\n      jumpi\n      jump(tag_2)\n    tag_1:\n      jumpi(tag_2, calldatasize)\n        /* \"chinklinkDemo/FundMe.sol\":1526:1532  Fund() */\n      tag_10\n        /* \"chinklinkDemo/FundMe.sol\":1526:1530  Fund */\n      tag_11\n        /* \"chinklinkDemo/FundMe.sol\":1526:1532  Fund() */\n      jump\t// in\n    tag_10:\n        /* \"chinklinkDemo/FundMe.sol\":170:1584  contract FundMe{... */\n      stop\n    tag_2:\n        /* \"chinklinkDemo/FundMe.sol\":1572:1578  Fund() */\n      tag_14\n        /* \"chinklinkDemo/FundMe.sol\":1572:1576  Fund */\n      tag_11\n        /* \"chinklinkDemo/FundMe.sol\":1572:1578  Fund() */\n      jump\t// in\n    tag_14:\n        /* \"chinklinkDemo/FundMe.sol\":170:1584  contract FundMe{... */\n      stop\n        /* \"chinklinkDemo/FundMe.sol\":266:288  address[] public users */\n    tag_3:\n      callvalue\n      dup1\n      iszero\n      tag_15\n      jumpi\n      0x00\n      dup1\n      revert\n    tag_15:\n      pop\n      tag_16\n      0x04\n      dup1\n      calldatasize\n      sub\n      dup2\n      add\n      swap1\n      tag_17\n      swap2\n      swap1\n      tag_18\n      jump\t// in\n    tag_17:\n      tag_19\n      jump\t// in\n    tag_16:\n      mload(0x40)\n      tag_20\n      swap2\n      swap1\n      tag_21\n      jump\t// in\n    tag_20:\n      mload(0x40)\n      dup1\n      swap2\n      sub\n      swap1\n      return\n        /* \"chinklinkDemo/FundMe.sol\":764:1383  function Withdraw()public onwerCheck {... */\n    tag_4:\n      callvalue\n      dup1\n      iszero\n      tag_22\n      jumpi\n      0x00\n      dup1\n      revert\n    tag_22:\n      pop\n      tag_23\n      tag_24\n      jump\t// in\n    tag_23:\n      stop\n        /* \"chinklinkDemo/FundMe.sol\":438:743  function Fund()public payable {... */\n    tag_5:\n      tag_25\n      tag_11\n      jump\t// in\n    tag_25:\n      stop\n        /* \"chinklinkDemo/FundMe.sol\":390:431  mapping (address=>uint256) public addprce */\n    tag_6:\n      callvalue\n      dup1\n      iszero\n      tag_26\n      jumpi\n      0x00\n      dup1\n      revert\n    tag_26:\n      pop\n      tag_27\n      0x04\n      dup1\n      calldatasize\n      sub\n      dup2\n      add\n      swap1\n      tag_28\n      swap2\n      swap1\n      tag_29\n      jump\t// in\n    tag_28:\n      tag_30\n      jump\t// in\n    tag_27:\n      mload(0x40)\n      tag_31\n      swap2\n      swap1\n      tag_32\n      jump\t// in\n    tag_31:\n      mload(0x40)\n      dup1\n      swap2\n      sub\n      swap1\n      return\n        /* \"chinklinkDemo/FundMe.sol\":295:327  address public immutable i_owner */\n    tag_7:\n      callvalue\n      dup1\n      iszero\n      tag_33\n      jumpi\n      0x00\n      dup1\n      revert\n    tag_33:\n      pop\n      tag_34\n      tag_35\n      jump\t// in\n    tag_34:\n      mload(0x40)\n      tag_36\n      swap2\n      swap1\n      tag_21\n      jump\t// in\n    tag_36:\n      mload(0x40)\n      dup1\n      swap2\n      sub\n      swap1\n      return\n        /* \"chinklinkDemo/FundMe.sol\":438:743  function Fund()public payable {... */\n    tag_11:\n        /* \"chinklinkDemo/FundMe.sol\":252:259  50*1e18 */\n      0x02b5e3af16b1880000\n        /* \"chinklinkDemo/FundMe.sol\":600:629  msg.value.getConversionRate() */\n      tag_38\n        /* \"chinklinkDemo/FundMe.sol\":600:609  msg.value */\n      callvalue\n        /* \"chinklinkDemo/FundMe.sol\":600:627  msg.value.getConversionRate */\n      tag_39\n        /* \"chinklinkDemo/FundMe.sol\":600:629  msg.value.getConversionRate() */\n      jump\t// in\n    tag_38:\n        /* \"chinklinkDemo/FundMe.sol\":600:638  msg.value.getConversionRate()>=MININUM */\n      lt\n      iszero\n        /* \"chinklinkDemo/FundMe.sol\":592:662  require(msg.value.getConversionRate()>=MININUM,\"Didn't  send enouth!\") */\n      tag_40\n      jumpi\n      mload(0x40)\n      0x08c379a000000000000000000000000000000000000000000000000000000000\n      dup2\n      mstore\n      0x04\n      add\n      tag_41\n      swap1\n      tag_42\n      jump\t// in\n    tag_41:\n      mload(0x40)\n      dup1\n      swap2\n      sub\n      swap1\n      revert\n    tag_40:\n        /* \"chinklinkDemo/FundMe.sol\":673:678  users */\n      0x00\n        /* \"chinklinkDemo/FundMe.sol\":684:694  msg.sender */\n      caller\n        /* \"chinklinkDemo/FundMe.sol\":673:695  users.push(msg.sender) */\n      swap1\n      dup1\n      0x01\n      dup2\n      sload\n      add\n      dup1\n      dup3\n      sstore\n      dup1\n      swap2\n      pop\n      pop\n      0x01\n      swap1\n      sub\n      swap1\n      0x00\n      mstore\n      keccak256(0x00, 0x20)\n      add\n      0x00\n      swap1\n      swap2\n      swap1\n      swap2\n      swap1\n      swap2\n      0x0100\n      exp\n      dup2\n      sload\n      dup2\n      0xffffffffffffffffffffffffffffffffffffffff\n      mul\n      not\n      and\n      swap1\n      dup4\n      0xffffffffffffffffffffffffffffffffffffffff\n      and\n      mul\n      or\n      swap1\n      sstore\n      pop\n        /* \"chinklinkDemo/FundMe.sol\":726:735  msg.value */\n      callvalue\n        /* \"chinklinkDemo/FundMe.sol\":706:713  addprce */\n      0x01\n        /* \"chinklinkDemo/FundMe.sol\":706:725  addprce[msg.sender] */\n      0x00\n        /* \"chinklinkDemo/FundMe.sol\":714:724  msg.sender */\n      caller\n        /* \"chinklinkDemo/FundMe.sol\":706:725  addprce[msg.sender] */\n      0xffffffffffffffffffffffffffffffffffffffff\n      and\n      0xffffffffffffffffffffffffffffffffffffffff\n      and\n      dup2\n      mstore\n      0x20\n      add\n      swap1\n      dup2\n      mstore\n      0x20\n      add\n      0x00\n      keccak256\n        /* \"chinklinkDemo/FundMe.sol\":706:735  addprce[msg.sender]=msg.value */\n      dup2\n      swap1\n      sstore\n      pop\n        /* \"chinklinkDemo/FundMe.sol\":438:743  function Fund()public payable {... */\n      jump\t// out\n        /* \"chinklinkDemo/FundMe.sol\":266:288  address[] public users */\n    tag_19:\n      0x00\n      dup2\n      dup2\n      sload\n      dup2\n      lt\n      tag_44\n      jumpi\n      0x00\n      dup1\n      revert\n    tag_44:\n      swap1\n      0x00\n      mstore\n      keccak256(0x00, 0x20)\n      add\n      0x00\n      swap2\n      pop\n      sload\n      swap1\n      0x0100\n      exp\n      swap1\n      div\n      0xffffffffffffffffffffffffffffffffffffffff\n      and\n      dup2\n      jump\t// out\n        /* \"chinklinkDemo/FundMe.sol\":764:1383  function Withdraw()public onwerCheck {... */\n    tag_24:\n        /* \"chinklinkDemo/FundMe.sol\":1440:1447  i_owner */\n      immutable(\"0x1d3be50b2bb17407dd170f1d5da128d1def30c6b1598d6a629e79b4775265526\")\n        /* \"chinklinkDemo/FundMe.sol\":1428:1447  msg.sender==i_owner */\n      0xffffffffffffffffffffffffffffffffffffffff\n      and\n        /* \"chinklinkDemo/FundMe.sol\":1428:1438  msg.sender */\n      caller\n        /* \"chinklinkDemo/FundMe.sol\":1428:1447  msg.sender==i_owner */\n      0xffffffffffffffffffffffffffffffffffffffff\n      and\n      eq\n        /* \"chinklinkDemo/FundMe.sol\":1420:1470  require(msg.sender==i_owner,\"sender is not owner\") */\n      tag_47\n      jumpi\n      mload(0x40)\n      0x08c379a000000000000000000000000000000000000000000000000000000000\n      dup2\n      mstore\n      0x04\n      add\n      tag_48\n      swap1\n      tag_49\n      jump\t// in\n    tag_48:\n      mload(0x40)\n      dup1\n      swap2\n      sub\n      swap1\n      revert\n    tag_47:\n        /* \"chinklinkDemo/FundMe.sol\":817:836  uint256 funderindex */\n      0x00\n        /* \"chinklinkDemo/FundMe.sol\":812:964  for (uint256 funderindex=0;funderindex<users.length;funderindex++){... */\n    tag_51:\n        /* \"chinklinkDemo/FundMe.sol\":851:856  users */\n      0x00\n        /* \"chinklinkDemo/FundMe.sol\":851:863  users.length */\n      dup1\n      sload\n      swap1\n      pop\n        /* \"chinklinkDemo/FundMe.sol\":839:850  funderindex */\n      dup2\n        /* \"chinklinkDemo/FundMe.sol\":839:863  funderindex<users.length */\n      lt\n        /* \"chinklinkDemo/FundMe.sol\":812:964  for (uint256 funderindex=0;funderindex<users.length;funderindex++){... */\n      iszero\n      tag_52\n      jumpi\n        /* \"chinklinkDemo/FundMe.sol\":893:904  address adr */\n      0x00\n        /* \"chinklinkDemo/FundMe.sol\":905:910  users */\n      dup1\n        /* \"chinklinkDemo/FundMe.sol\":911:922  funderindex */\n      dup3\n        /* \"chinklinkDemo/FundMe.sol\":905:923  users[funderindex] */\n      dup2\n      sload\n      dup2\n      lt\n      tag_54\n      jumpi\n      tag_55\n      tag_56\n      jump\t// in\n    tag_55:\n    tag_54:\n      swap1\n      0x00\n      mstore\n      keccak256(0x00, 0x20)\n      add\n      0x00\n      swap1\n      sload\n      swap1\n      0x0100\n      exp\n      swap1\n      div\n      0xffffffffffffffffffffffffffffffffffffffff\n      and\n        /* \"chinklinkDemo/FundMe.sol\":893:923  address adr=users[funderindex] */\n      swap1\n      pop\n        /* \"chinklinkDemo/FundMe.sol\":951:952  0 */\n      0x00\n        /* \"chinklinkDemo/FundMe.sol\":938:945  addprce */\n      0x01\n        /* \"chinklinkDemo/FundMe.sol\":938:950  addprce[adr] */\n      0x00\n        /* \"chinklinkDemo/FundMe.sol\":946:949  adr */\n      dup4\n        /* \"chinklinkDemo/FundMe.sol\":938:950  addprce[adr] */\n      0xffffffffffffffffffffffffffffffffffffffff\n      and\n      0xffffffffffffffffffffffffffffffffffffffff\n      and\n      dup2\n      mstore\n      0x20\n      add\n      swap1\n      dup2\n      mstore\n      0x20\n      add\n      0x00\n      keccak256\n        /* \"chinklinkDemo/FundMe.sol\":938:952  addprce[adr]=0 */\n      dup2\n      swap1\n      sstore\n      pop\n        /* \"chinklinkDemo/FundMe.sol\":878:964  {... */\n      pop\n        /* \"chinklinkDemo/FundMe.sol\":864:877  funderindex++ */\n      dup1\n      dup1\n      0x01\n      add\n      swap2\n      pop\n      pop\n        /* \"chinklinkDemo/FundMe.sol\":812:964  for (uint256 funderindex=0;funderindex<users.length;funderindex++){... */\n      jump(tag_51)\n    tag_52:\n      pop\n        /* \"chinklinkDemo/FundMe.sol\":994:995  0 */\n      0x00\n        /* \"chinklinkDemo/FundMe.sol\":980:996  new address[](0) */\n      0xffffffffffffffff\n      dup2\n      gt\n      iszero\n      tag_58\n      jumpi\n      tag_59\n      tag_60\n      jump\t// in\n    tag_59:\n    tag_58:\n      mload(0x40)\n      swap1\n      dup1\n      dup3\n      mstore\n      dup1\n      0x20\n      mul\n      0x20\n      add\n      dup3\n      add\n      0x40\n      mstore\n      dup1\n      iszero\n      tag_61\n      jumpi\n      dup2\n      0x20\n      add\n      0x20\n      dup3\n      mul\n      dup1\n      calldatasize\n      dup4\n      calldatacopy\n      dup1\n      dup3\n      add\n      swap2\n      pop\n      pop\n      swap1\n      pop\n    tag_61:\n      pop\n        /* \"chinklinkDemo/FundMe.sol\":974:979  users */\n      0x00\n        /* \"chinklinkDemo/FundMe.sol\":974:996  users=new address[](0) */\n      swap1\n      dup1\n      mload\n      swap1\n      0x20\n      add\n      swap1\n      tag_62\n      swap3\n      swap2\n      swap1\n      tag_63\n      jump\t// in\n    tag_62:\n      pop\n        /* \"chinklinkDemo/FundMe.sol\":1253:1269  bool callsuccess */\n      0x00\n        /* \"chinklinkDemo/FundMe.sol\":1280:1290  msg.sender */\n      caller\n        /* \"chinklinkDemo/FundMe.sol\":1272:1296  payable(msg.sender).call */\n      0xffffffffffffffffffffffffffffffffffffffff\n      and\n        /* \"chinklinkDemo/FundMe.sol\":1303:1324  address(this).balance */\n      selfbalance\n        /* \"chinklinkDemo/FundMe.sol\":1272:1329  payable(msg.sender).call{value:address(this).balance}(\"\") */\n      mload(0x40)\n      tag_64\n      swap1\n      tag_65\n      jump\t// in\n    tag_64:\n      0x00\n      mload(0x40)\n      dup1\n      dup4\n      sub\n      dup2\n      dup6\n      dup8\n      gas\n      call\n      swap3\n      pop\n      pop\n      pop\n      returndatasize\n      dup1\n      0x00\n      dup2\n      eq\n      tag_68\n      jumpi\n      mload(0x40)\n      swap2\n      pop\n      and(add(returndatasize, 0x3f), not(0x1f))\n      dup3\n      add\n      0x40\n      mstore\n      returndatasize\n      dup3\n      mstore\n      returndatasize\n      0x00\n      0x20\n      dup5\n      add\n      returndatacopy\n      jump(tag_67)\n    tag_68:\n      0x60\n      swap2\n      pop\n    tag_67:\n      pop\n        /* \"chinklinkDemo/FundMe.sol\":1252:1329  (bool callsuccess,)=payable(msg.sender).call{value:address(this).balance}(\"\") */\n      pop\n      swap1\n      pop\n        /* \"chinklinkDemo/FundMe.sol\":1348:1359  callsuccess */\n      dup1\n        /* \"chinklinkDemo/FundMe.sol\":1340:1374  require(callsuccess,\"call failed\") */\n      tag_69\n      jumpi\n      mload(0x40)\n      0x08c379a000000000000000000000000000000000000000000000000000000000\n      dup2\n      mstore\n      0x04\n      add\n      tag_70\n      swap1\n      tag_71\n      jump\t// in\n    tag_70:\n      mload(0x40)\n      dup1\n      swap2\n      sub\n      swap1\n      revert\n    tag_69:\n        /* \"chinklinkDemo/FundMe.sol\":801:1383  {... */\n      pop\n        /* \"chinklinkDemo/FundMe.sol\":764:1383  function Withdraw()public onwerCheck {... */\n      jump\t// out\n        /* \"chinklinkDemo/FundMe.sol\":390:431  mapping (address=>uint256) public addprce */\n    tag_30:\n      mstore(0x20, 0x01)\n      dup1\n      0x00\n      mstore\n      keccak256(0x00, 0x40)\n      0x00\n      swap2\n      pop\n      swap1\n      pop\n      sload\n      dup2\n      jump\t// out\n        /* \"chinklinkDemo/FundMe.sol\":295:327  address public immutable i_owner */\n    tag_35:\n      immutable(\"0x1d3be50b2bb17407dd170f1d5da128d1def30c6b1598d6a629e79b4775265526\")\n      dup2\n      jump\t// out\n        /* \"chinklinkDemo/priceinfo.sol\":569:767  function getConversionRate(uint256 ethamount)internal view returns (uint256) {... */\n    tag_39:\n        /* \"chinklinkDemo/priceinfo.sol\":637:644  uint256 */\n      0x00\n        /* \"chinklinkDemo/priceinfo.sol\":657:673  uint256 hasmoney */\n      dup1\n        /* \"chinklinkDemo/priceinfo.sol\":674:684  getPrice() */\n      tag_73\n        /* \"chinklinkDemo/priceinfo.sol\":674:682  getPrice */\n      tag_74\n        /* \"chinklinkDemo/priceinfo.sol\":674:684  getPrice() */\n      jump\t// in\n    tag_73:\n        /* \"chinklinkDemo/priceinfo.sol\":657:684  uint256 hasmoney=getPrice() */\n      swap1\n      pop\n        /* \"chinklinkDemo/priceinfo.sol\":695:709  uint256 result */\n      0x00\n        /* \"chinklinkDemo/priceinfo.sol\":731:735  1e18 */\n      0x0de0b6b3a7640000\n        /* \"chinklinkDemo/priceinfo.sol\":720:729  ethamount */\n      dup5\n        /* \"chinklinkDemo/priceinfo.sol\":711:719  hasmoney */\n      dup4\n        /* \"chinklinkDemo/priceinfo.sol\":711:729  hasmoney*ethamount */\n      tag_75\n      swap2\n      swap1\n      tag_76\n      jump\t// in\n    tag_75:\n        /* \"chinklinkDemo/priceinfo.sol\":710:735  (hasmoney*ethamount)/1e18 */\n      tag_77\n      swap2\n      swap1\n      tag_78\n      jump\t// in\n    tag_77:\n        /* \"chinklinkDemo/priceinfo.sol\":695:735  uint256 result=(hasmoney*ethamount)/1e18 */\n      swap1\n      pop\n        /* \"chinklinkDemo/priceinfo.sol\":753:759  result */\n      dup1\n        /* \"chinklinkDemo/priceinfo.sol\":746:759  return result */\n      swap3\n      pop\n      pop\n      pop\n        /* \"chinklinkDemo/priceinfo.sol\":569:767  function getConversionRate(uint256 ethamount)internal view returns (uint256) {... */\n      swap2\n      swap1\n      pop\n      jump\t// out\n        /* \"chinklinkDemo/priceinfo.sol\":221:563  function getPrice()internal  view returns(uint256) {... */\n    tag_74:\n        /* \"chinklinkDemo/priceinfo.sol\":263:270  uint256 */\n      0x00\n        /* \"chinklinkDemo/priceinfo.sol\":368:397  AggregatorV3Interface priInfo */\n      dup1\n        /* \"chinklinkDemo/priceinfo.sol\":420:462  0x694AA1769357215DE4FAC081bf1f309aDC325306 */\n      0x694aa1769357215de4fac081bf1f309adc325306\n        /* \"chinklinkDemo/priceinfo.sol\":368:463  AggregatorV3Interface priInfo=AggregatorV3Interface(0x694AA1769357215DE4FAC081bf1f309aDC325306) */\n      swap1\n      pop\n        /* \"chinklinkDemo/priceinfo.sol\":476:488  int256 price */\n      0x00\n        /* \"chinklinkDemo/priceinfo.sol\":493:500  priInfo */\n      dup2\n        /* \"chinklinkDemo/priceinfo.sol\":493:516  priInfo.latestRoundData */\n      0xffffffffffffffffffffffffffffffffffffffff\n      and\n      0xfeaf968c\n        /* \"chinklinkDemo/priceinfo.sol\":493:518  priInfo.latestRoundData() */\n      mload(0x40)\n      dup2\n      0xffffffff\n      and\n      0xe0\n      shl\n      dup2\n      mstore\n      0x04\n      add\n      0xa0\n      mload(0x40)\n      dup1\n      dup4\n      sub\n      dup2\n      dup7\n      gas\n      staticcall\n      iszero\n      dup1\n      iszero\n      tag_81\n      jumpi\n      returndatasize\n      0x00\n      dup1\n      returndatacopy\n      revert(0x00, returndatasize)\n    tag_81:\n      pop\n      pop\n      pop\n      pop\n      mload(0x40)\n      returndatasize\n      not(0x1f)\n      0x1f\n      dup3\n      add\n      and\n      dup3\n      add\n      dup1\n      0x40\n      mstore\n      pop\n      dup2\n      add\n      swap1\n      tag_82\n      swap2\n      swap1\n      tag_83\n      jump\t// in\n    tag_82:\n        /* \"chinklinkDemo/priceinfo.sol\":474:518  (,int256 price,,,)=priInfo.latestRoundData() */\n      pop\n      pop\n      pop\n      swap2\n      pop\n      pop\n        /* \"chinklinkDemo/priceinfo.sol\":550:554  1e10 */\n      0x02540be400\n        /* \"chinklinkDemo/priceinfo.sol\":544:549  price */\n      dup2\n        /* \"chinklinkDemo/priceinfo.sol\":544:554  price*1e10 */\n      tag_84\n      swap2\n      swap1\n      tag_85\n      jump\t// in\n    tag_84:\n        /* \"chinklinkDemo/priceinfo.sol\":529:555  return uint256(price*1e10) */\n      swap3\n      pop\n      pop\n      pop\n        /* \"chinklinkDemo/priceinfo.sol\":221:563  function getPrice()internal  view returns(uint256) {... */\n      swap1\n      jump\t// out\n    tag_63:\n      dup3\n      dup1\n      sload\n      dup3\n      dup3\n      sstore\n      swap1\n      0x00\n      mstore\n      keccak256(0x00, 0x20)\n      swap1\n      dup2\n      add\n      swap3\n      dup3\n      iszero\n      tag_86\n      jumpi\n      swap2\n      0x20\n      mul\n      dup3\n      add\n    tag_87:\n      dup3\n      dup2\n      gt\n      iszero\n      tag_88\n      jumpi\n      dup3\n      mload\n      dup3\n      exp(0x0100, 0x00)\n      dup2\n      sload\n      dup2\n      0xffffffffffffffffffffffffffffffffffffffff\n      mul\n      not\n      and\n      swap1\n      dup4\n      0xffffffffffffffffffffffffffffffffffffffff\n      and\n      mul\n      or\n      swap1\n      sstore\n      pop\n      swap2\n      0x20\n      add\n      swap2\n      swap1\n      0x01\n      add\n      swap1\n      jump(tag_87)\n    tag_88:\n    tag_86:\n      pop\n      swap1\n      pop\n      tag_89\n      swap2\n      swap1\n      tag_90\n      jump\t// in\n    tag_89:\n      pop\n      swap1\n      jump\t// out\n    tag_90:\n    tag_91:\n      dup1\n      dup3\n      gt\n      iszero\n      tag_92\n      jumpi\n      0x00\n      dup2\n      0x00\n      swap1\n      sstore\n      pop\n      0x01\n      add\n      jump(tag_91)\n    tag_92:\n      pop\n      swap1\n      jump\t// out\n        /* \"#utility.yul\":88:205   */\n    tag_94:\n        /* \"#utility.yul\":197:198   */\n      0x00\n        /* \"#utility.yul\":194:195   */\n      dup1\n        /* \"#utility.yul\":187:199   */\n      revert\n        /* \"#utility.yul\":334:411   */\n    tag_96:\n        /* \"#utility.yul\":371:378   */\n      0x00\n        /* \"#utility.yul\":400:405   */\n      dup2\n        /* \"#utility.yul\":389:405   */\n      swap1\n      pop\n        /* \"#utility.yul\":334:411   */\n      swap2\n      swap1\n      pop\n      jump\t// out\n        /* \"#utility.yul\":417:539   */\n    tag_97:\n        /* \"#utility.yul\":490:514   */\n      tag_130\n        /* \"#utility.yul\":508:513   */\n      dup2\n        /* \"#utility.yul\":490:514   */\n      tag_96\n      jump\t// in\n    tag_130:\n        /* \"#utility.yul\":483:488   */\n      dup2\n        /* \"#utility.yul\":480:515   */\n      eq\n        /* \"#utility.yul\":470:533   */\n      tag_131\n      jumpi\n        /* \"#utility.yul\":529:530   */\n      0x00\n        /* \"#utility.yul\":526:527   */\n      dup1\n        /* \"#utility.yul\":519:531   */\n      revert\n        /* \"#utility.yul\":470:533   */\n    tag_131:\n        /* \"#utility.yul\":417:539   */\n      pop\n      jump\t// out\n        /* \"#utility.yul\":545:684   */\n    tag_98:\n        /* \"#utility.yul\":591:596   */\n      0x00\n        /* \"#utility.yul\":629:635   */\n      dup2\n        /* \"#utility.yul\":616:636   */\n      calldataload\n        /* \"#utility.yul\":607:636   */\n      swap1\n      pop\n        /* \"#utility.yul\":645:678   */\n      tag_133\n        /* \"#utility.yul\":672:677   */\n      dup2\n        /* \"#utility.yul\":645:678   */\n      tag_97\n      jump\t// in\n    tag_133:\n        /* \"#utility.yul\":545:684   */\n      swap3\n      swap2\n      pop\n      pop\n      jump\t// out\n        /* \"#utility.yul\":690:1019   */\n    tag_18:\n        /* \"#utility.yul\":749:755   */\n      0x00\n        /* \"#utility.yul\":798:800   */\n      0x20\n        /* \"#utility.yul\":786:795   */\n      dup3\n        /* \"#utility.yul\":777:784   */\n      dup5\n        /* \"#utility.yul\":773:796   */\n      sub\n        /* \"#utility.yul\":769:801   */\n      slt\n        /* \"#utility.yul\":766:885   */\n      iszero\n      tag_135\n      jumpi\n        /* \"#utility.yul\":804:883   */\n      tag_136\n      tag_94\n      jump\t// in\n    tag_136:\n        /* \"#utility.yul\":766:885   */\n    tag_135:\n        /* \"#utility.yul\":924:925   */\n      0x00\n        /* \"#utility.yul\":949:1002   */\n      tag_137\n        /* \"#utility.yul\":994:1001   */\n      dup5\n        /* \"#utility.yul\":985:991   */\n      dup3\n        /* \"#utility.yul\":974:983   */\n      dup6\n        /* \"#utility.yul\":970:992   */\n      add\n        /* \"#utility.yul\":949:1002   */\n      tag_98\n      jump\t// in\n    tag_137:\n        /* \"#utility.yul\":939:1002   */\n      swap2\n      pop\n        /* \"#utility.yul\":895:1012   */\n      pop\n        /* \"#utility.yul\":690:1019   */\n      swap3\n      swap2\n      pop\n      pop\n      jump\t// out\n        /* \"#utility.yul\":1025:1151   */\n    tag_99:\n        /* \"#utility.yul\":1062:1069   */\n      0x00\n        /* \"#utility.yul\":1102:1144   */\n      0xffffffffffffffffffffffffffffffffffffffff\n        /* \"#utility.yul\":1095:1100   */\n      dup3\n        /* \"#utility.yul\":1091:1145   */\n      and\n        /* \"#utility.yul\":1080:1145   */\n      swap1\n      pop\n        /* \"#utility.yul\":1025:1151   */\n      swap2\n      swap1\n      pop\n      jump\t// out\n        /* \"#utility.yul\":1157:1253   */\n    tag_100:\n        /* \"#utility.yul\":1194:1201   */\n      0x00\n        /* \"#utility.yul\":1223:1247   */\n      tag_140\n        /* \"#utility.yul\":1241:1246   */\n      dup3\n        /* \"#utility.yul\":1223:1247   */\n      tag_99\n      jump\t// in\n    tag_140:\n        /* \"#utility.yul\":1212:1247   */\n      swap1\n      pop\n        /* \"#utility.yul\":1157:1253   */\n      swap2\n      swap1\n      pop\n      jump\t// out\n        /* \"#utility.yul\":1259:1377   */\n    tag_101:\n        /* \"#utility.yul\":1346:1370   */\n      tag_142\n        /* \"#utility.yul\":1364:1369   */\n      dup2\n        /* \"#utility.yul\":1346:1370   */\n      tag_100\n      jump\t// in\n    tag_142:\n        /* \"#utility.yul\":1341:1344   */\n      dup3\n        /* \"#utility.yul\":1334:1371   */\n      mstore\n        /* \"#utility.yul\":1259:1377   */\n      pop\n      pop\n      jump\t// out\n        /* \"#utility.yul\":1383:1605   */\n    tag_21:\n        /* \"#utility.yul\":1476:1480   */\n      0x00\n        /* \"#utility.yul\":1514:1516   */\n      0x20\n        /* \"#utility.yul\":1503:1512   */\n      dup3\n        /* \"#utility.yul\":1499:1517   */\n      add\n        /* \"#utility.yul\":1491:1517   */\n      swap1\n      pop\n        /* \"#utility.yul\":1527:1598   */\n      tag_144\n        /* \"#utility.yul\":1595:1596   */\n      0x00\n        /* \"#utility.yul\":1584:1593   */\n      dup4\n        /* \"#utility.yul\":1580:1597   */\n      add\n        /* \"#utility.yul\":1571:1577   */\n      dup5\n        /* \"#utility.yul\":1527:1598   */\n      tag_101\n      jump\t// in\n    tag_144:\n        /* \"#utility.yul\":1383:1605   */\n      swap3\n      swap2\n      pop\n      pop\n      jump\t// out\n        /* \"#utility.yul\":1611:1733   */\n    tag_102:\n        /* \"#utility.yul\":1684:1708   */\n      tag_146\n        /* \"#utility.yul\":1702:1707   */\n      dup2\n        /* \"#utility.yul\":1684:1708   */\n      tag_100\n      jump\t// in\n    tag_146:\n        /* \"#utility.yul\":1677:1682   */\n      dup2\n        /* \"#utility.yul\":1674:1709   */\n      eq\n        /* \"#utility.yul\":1664:1727   */\n      tag_147\n      jumpi\n        /* \"#utility.yul\":1723:1724   */\n      0x00\n        /* \"#utility.yul\":1720:1721   */\n      dup1\n        /* \"#utility.yul\":1713:1725   */\n      revert\n        /* \"#utility.yul\":1664:1727   */\n    tag_147:\n        /* \"#utility.yul\":1611:1733   */\n      pop\n      jump\t// out\n        /* \"#utility.yul\":1739:1878   */\n    tag_103:\n        /* \"#utility.yul\":1785:1790   */\n      0x00\n        /* \"#utility.yul\":1823:1829   */\n      dup2\n        /* \"#utility.yul\":1810:1830   */\n      calldataload\n        /* \"#utility.yul\":1801:1830   */\n      swap1\n      pop\n        /* \"#utility.yul\":1839:1872   */\n      tag_149\n        /* \"#utility.yul\":1866:1871   */\n      dup2\n        /* \"#utility.yul\":1839:1872   */\n      tag_102\n      jump\t// in\n    tag_149:\n        /* \"#utility.yul\":1739:1878   */\n      swap3\n      swap2\n      pop\n      pop\n      jump\t// out\n        /* \"#utility.yul\":1884:2213   */\n    tag_29:\n        /* \"#utility.yul\":1943:1949   */\n      0x00\n        /* \"#utility.yul\":1992:1994   */\n      0x20\n        /* \"#utility.yul\":1980:1989   */\n      dup3\n        /* \"#utility.yul\":1971:1978   */\n      dup5\n        /* \"#utility.yul\":1967:1990   */\n      sub\n        /* \"#utility.yul\":1963:1995   */\n      slt\n        /* \"#utility.yul\":1960:2079   */\n      iszero\n      tag_151\n      jumpi\n        /* \"#utility.yul\":1998:2077   */\n      tag_152\n      tag_94\n      jump\t// in\n    tag_152:\n        /* \"#utility.yul\":1960:2079   */\n    tag_151:\n        /* \"#utility.yul\":2118:2119   */\n      0x00\n        /* \"#utility.yul\":2143:2196   */\n      tag_153\n        /* \"#utility.yul\":2188:2195   */\n      dup5\n        /* \"#utility.yul\":2179:2185   */\n      dup3\n        /* \"#utility.yul\":2168:2177   */\n      dup6\n        /* \"#utility.yul\":2164:2186   */\n      add\n        /* \"#utility.yul\":2143:2196   */\n      tag_103\n      jump\t// in\n    tag_153:\n        /* \"#utility.yul\":2133:2196   */\n      swap2\n      pop\n        /* \"#utility.yul\":2089:2206   */\n      pop\n        /* \"#utility.yul\":1884:2213   */\n      swap3\n      swap2\n      pop\n      pop\n      jump\t// out\n        /* \"#utility.yul\":2219:2337   */\n    tag_104:\n        /* \"#utility.yul\":2306:2330   */\n      tag_155\n        /* \"#utility.yul\":2324:2329   */\n      dup2\n        /* \"#utility.yul\":2306:2330   */\n      tag_96\n      jump\t// in\n    tag_155:\n        /* \"#utility.yul\":2301:2304   */\n      dup3\n        /* \"#utility.yul\":2294:2331   */\n      mstore\n        /* \"#utility.yul\":2219:2337   */\n      pop\n      pop\n      jump\t// out\n        /* \"#utility.yul\":2343:2565   */\n    tag_32:\n        /* \"#utility.yul\":2436:2440   */\n      0x00\n        /* \"#utility.yul\":2474:2476   */\n      0x20\n        /* \"#utility.yul\":2463:2472   */\n      dup3\n        /* \"#utility.yul\":2459:2477   */\n      add\n        /* \"#utility.yul\":2451:2477   */\n      swap1\n      pop\n        /* \"#utility.yul\":2487:2558   */\n      tag_157\n        /* \"#utility.yul\":2555:2556   */\n      0x00\n        /* \"#utility.yul\":2544:2553   */\n      dup4\n        /* \"#utility.yul\":2540:2557   */\n      add\n        /* \"#utility.yul\":2531:2537   */\n      dup5\n        /* \"#utility.yul\":2487:2558   */\n      tag_104\n      jump\t// in\n    tag_157:\n        /* \"#utility.yul\":2343:2565   */\n      swap3\n      swap2\n      pop\n      pop\n      jump\t// out\n        /* \"#utility.yul\":2571:2740   */\n    tag_105:\n        /* \"#utility.yul\":2655:2666   */\n      0x00\n        /* \"#utility.yul\":2689:2695   */\n      dup3\n        /* \"#utility.yul\":2684:2687   */\n      dup3\n        /* \"#utility.yul\":2677:2696   */\n      mstore\n        /* \"#utility.yul\":2729:2733   */\n      0x20\n        /* \"#utility.yul\":2724:2727   */\n      dup3\n        /* \"#utility.yul\":2720:2734   */\n      add\n        /* \"#utility.yul\":2705:2734   */\n      swap1\n      pop\n        /* \"#utility.yul\":2571:2740   */\n      swap3\n      swap2\n      pop\n      pop\n      jump\t// out\n        /* \"#utility.yul\":2746:2916   */\n    tag_106:\n        /* \"#utility.yul\":2886:2908   */\n      0x4469646e2774202073656e6420656e6f75746821000000000000000000000000\n        /* \"#utility.yul\":2882:2883   */\n      0x00\n        /* \"#utility.yul\":2874:2880   */\n      dup3\n        /* \"#utility.yul\":2870:2884   */\n      add\n        /* \"#utility.yul\":2863:2909   */\n      mstore\n        /* \"#utility.yul\":2746:2916   */\n      pop\n      jump\t// out\n        /* \"#utility.yul\":2922:3288   */\n    tag_107:\n        /* \"#utility.yul\":3064:3067   */\n      0x00\n        /* \"#utility.yul\":3085:3152   */\n      tag_161\n        /* \"#utility.yul\":3149:3151   */\n      0x14\n        /* \"#utility.yul\":3144:3147   */\n      dup4\n        /* \"#utility.yul\":3085:3152   */\n      tag_105\n      jump\t// in\n    tag_161:\n        /* \"#utility.yul\":3078:3152   */\n      swap2\n      pop\n        /* \"#utility.yul\":3161:3254   */\n      tag_162\n        /* \"#utility.yul\":3250:3253   */\n      dup3\n        /* \"#utility.yul\":3161:3254   */\n      tag_106\n      jump\t// in\n    tag_162:\n        /* \"#utility.yul\":3279:3281   */\n      0x20\n        /* \"#utility.yul\":3274:3277   */\n      dup3\n        /* \"#utility.yul\":3270:3282   */\n      add\n        /* \"#utility.yul\":3263:3282   */\n      swap1\n      pop\n        /* \"#utility.yul\":2922:3288   */\n      swap2\n      swap1\n      pop\n      jump\t// out\n        /* \"#utility.yul\":3294:3713   */\n    tag_42:\n        /* \"#utility.yul\":3460:3464   */\n      0x00\n        /* \"#utility.yul\":3498:3500   */\n      0x20\n        /* \"#utility.yul\":3487:3496   */\n      dup3\n        /* \"#utility.yul\":3483:3501   */\n      add\n        /* \"#utility.yul\":3475:3501   */\n      swap1\n      pop\n        /* \"#utility.yul\":3547:3556   */\n      dup2\n        /* \"#utility.yul\":3541:3545   */\n      dup2\n        /* \"#utility.yul\":3537:3557   */\n      sub\n        /* \"#utility.yul\":3533:3534   */\n      0x00\n        /* \"#utility.yul\":3522:3531   */\n      dup4\n        /* \"#utility.yul\":3518:3535   */\n      add\n        /* \"#utility.yul\":3511:3558   */\n      mstore\n        /* \"#utility.yul\":3575:3706   */\n      tag_164\n        /* \"#utility.yul\":3701:3705   */\n      dup2\n        /* \"#utility.yul\":3575:3706   */\n      tag_107\n      jump\t// in\n    tag_164:\n        /* \"#utility.yul\":3567:3706   */\n      swap1\n      pop\n        /* \"#utility.yul\":3294:3713   */\n      swap2\n      swap1\n      pop\n      jump\t// out\n        /* \"#utility.yul\":3719:3888   */\n    tag_108:\n        /* \"#utility.yul\":3859:3880   */\n      0x73656e646572206973206e6f74206f776e657200000000000000000000000000\n        /* \"#utility.yul\":3855:3856   */\n      0x00\n        /* \"#utility.yul\":3847:3853   */\n      dup3\n        /* \"#utility.yul\":3843:3857   */\n      add\n        /* \"#utility.yul\":3836:3881   */\n      mstore\n        /* \"#utility.yul\":3719:3888   */\n      pop\n      jump\t// out\n        /* \"#utility.yul\":3894:4260   */\n    tag_109:\n        /* \"#utility.yul\":4036:4039   */\n      0x00\n        /* \"#utility.yul\":4057:4124   */\n      tag_167\n        /* \"#utility.yul\":4121:4123   */\n      0x13\n        /* \"#utility.yul\":4116:4119   */\n      dup4\n        /* \"#utility.yul\":4057:4124   */\n      tag_105\n      jump\t// in\n    tag_167:\n        /* \"#utility.yul\":4050:4124   */\n      swap2\n      pop\n        /* \"#utility.yul\":4133:4226   */\n      tag_168\n        /* \"#utility.yul\":4222:4225   */\n      dup3\n        /* \"#utility.yul\":4133:4226   */\n      tag_108\n      jump\t// in\n    tag_168:\n        /* \"#utility.yul\":4251:4253   */\n      0x20\n        /* \"#utility.yul\":4246:4249   */\n      dup3\n        /* \"#utility.yul\":4242:4254   */\n      add\n        /* \"#utility.yul\":4235:4254   */\n      swap1\n      pop\n        /* \"#utility.yul\":3894:4260   */\n      swap2\n      swap1\n      pop\n      jump\t// out\n        /* \"#utility.yul\":4266:4685   */\n    tag_49:\n        /* \"#utility.yul\":4432:4436   */\n      0x00\n        /* \"#utility.yul\":4470:4472   */\n      0x20\n        /* \"#utility.yul\":4459:4468   */\n      dup3\n        /* \"#utility.yul\":4455:4473   */\n      add\n        /* \"#utility.yul\":4447:4473   */\n      swap1\n      pop\n        /* \"#utility.yul\":4519:4528   */\n      dup2\n        /* \"#utility.yul\":4513:4517   */\n      dup2\n        /* \"#utility.yul\":4509:4529   */\n      sub\n        /* \"#utility.yul\":4505:4506   */\n      0x00\n        /* \"#utility.yul\":4494:4503   */\n      dup4\n        /* \"#utility.yul\":4490:4507   */\n      add\n        /* \"#utility.yul\":4483:4530   */\n      mstore\n        /* \"#utility.yul\":4547:4678   */\n      tag_170\n        /* \"#utility.yul\":4673:4677   */\n      dup2\n        /* \"#utility.yul\":4547:4678   */\n      tag_109\n      jump\t// in\n    tag_170:\n        /* \"#utility.yul\":4539:4678   */\n      swap1\n      pop\n        /* \"#utility.yul\":4266:4685   */\n      swap2\n      swap1\n      pop\n      jump\t// out\n        /* \"#utility.yul\":4691:4871   */\n    tag_56:\n        /* \"#utility.yul\":4739:4816   */\n      0x4e487b7100000000000000000000000000000000000000000000000000000000\n        /* \"#utility.yul\":4736:4737   */\n      0x00\n        /* \"#utility.yul\":4729:4817   */\n      mstore\n        /* \"#utility.yul\":4836:4840   */\n      0x32\n        /* \"#utility.yul\":4833:4834   */\n      0x04\n        /* \"#utility.yul\":4826:4841   */\n      mstore\n        /* \"#utility.yul\":4860:4864   */\n      0x24\n        /* \"#utility.yul\":4857:4858   */\n      0x00\n        /* \"#utility.yul\":4850:4865   */\n      revert\n        /* \"#utility.yul\":4877:5057   */\n    tag_60:\n        /* \"#utility.yul\":4925:5002   */\n      0x4e487b7100000000000000000000000000000000000000000000000000000000\n        /* \"#utility.yul\":4922:4923   */\n      0x00\n        /* \"#utility.yul\":4915:5003   */\n      mstore\n        /* \"#utility.yul\":5022:5026   */\n      0x41\n        /* \"#utility.yul\":5019:5020   */\n      0x04\n        /* \"#utility.yul\":5012:5027   */\n      mstore\n        /* \"#utility.yul\":5046:5050   */\n      0x24\n        /* \"#utility.yul\":5043:5044   */\n      0x00\n        /* \"#utility.yul\":5036:5051   */\n      revert\n        /* \"#utility.yul\":5063:5210   */\n    tag_110:\n        /* \"#utility.yul\":5164:5175   */\n      0x00\n        /* \"#utility.yul\":5201:5204   */\n      dup2\n        /* \"#utility.yul\":5186:5204   */\n      swap1\n      pop\n        /* \"#utility.yul\":5063:5210   */\n      swap3\n      swap2\n      pop\n      pop\n      jump\t// out\n        /* \"#utility.yul\":5216:5330   */\n    tag_111:\n      pop\n      jump\t// out\n        /* \"#utility.yul\":5336:5734   */\n    tag_112:\n        /* \"#utility.yul\":5495:5498   */\n      0x00\n        /* \"#utility.yul\":5516:5599   */\n      tag_176\n        /* \"#utility.yul\":5597:5598   */\n      0x00\n        /* \"#utility.yul\":5592:5595   */\n      dup4\n        /* \"#utility.yul\":5516:5599   */\n      tag_110\n      jump\t// in\n    tag_176:\n        /* \"#utility.yul\":5509:5599   */\n      swap2\n      pop\n        /* \"#utility.yul\":5608:5701   */\n      tag_177\n        /* \"#utility.yul\":5697:5700   */\n      dup3\n        /* \"#utility.yul\":5608:5701   */\n      tag_111\n      jump\t// in\n    tag_177:\n        /* \"#utility.yul\":5726:5727   */\n      0x00\n        /* \"#utility.yul\":5721:5724   */\n      dup3\n        /* \"#utility.yul\":5717:5728   */\n      add\n        /* \"#utility.yul\":5710:5728   */\n      swap1\n      pop\n        /* \"#utility.yul\":5336:5734   */\n      swap2\n      swap1\n      pop\n      jump\t// out\n        /* \"#utility.yul\":5740:6119   */\n    tag_65:\n        /* \"#utility.yul\":5924:5927   */\n      0x00\n        /* \"#utility.yul\":5946:6093   */\n      tag_179\n        /* \"#utility.yul\":6089:6092   */\n      dup3\n        /* \"#utility.yul\":5946:6093   */\n      tag_112\n      jump\t// in\n    tag_179:\n        /* \"#utility.yul\":5939:6093   */\n      swap2\n      pop\n        /* \"#utility.yul\":6110:6113   */\n      dup2\n        /* \"#utility.yul\":6103:6113   */\n      swap1\n      pop\n        /* \"#utility.yul\":5740:6119   */\n      swap2\n      swap1\n      pop\n      jump\t// out\n        /* \"#utility.yul\":6125:6286   */\n    tag_113:\n        /* \"#utility.yul\":6265:6278   */\n      0x63616c6c206661696c6564000000000000000000000000000000000000000000\n        /* \"#utility.yul\":6261:6262   */\n      0x00\n        /* \"#utility.yul\":6253:6259   */\n      dup3\n        /* \"#utility.yul\":6249:6263   */\n      add\n        /* \"#utility.yul\":6242:6279   */\n      mstore\n        /* \"#utility.yul\":6125:6286   */\n      pop\n      jump\t// out\n        /* \"#utility.yul\":6292:6658   */\n    tag_114:\n        /* \"#utility.yul\":6434:6437   */\n      0x00\n        /* \"#utility.yul\":6455:6522   */\n      tag_182\n        /* \"#utility.yul\":6519:6521   */\n      0x0b\n        /* \"#utility.yul\":6514:6517   */\n      dup4\n        /* \"#utility.yul\":6455:6522   */\n      tag_105\n      jump\t// in\n    tag_182:\n        /* \"#utility.yul\":6448:6522   */\n      swap2\n      pop\n        /* \"#utility.yul\":6531:6624   */\n      tag_183\n        /* \"#utility.yul\":6620:6623   */\n      dup3\n        /* \"#utility.yul\":6531:6624   */\n      tag_113\n      jump\t// in\n    tag_183:\n        /* \"#utility.yul\":6649:6651   */\n      0x20\n        /* \"#utility.yul\":6644:6647   */\n      dup3\n        /* \"#utility.yul\":6640:6652   */\n      add\n        /* \"#utility.yul\":6633:6652   */\n      swap1\n      pop\n        /* \"#utility.yul\":6292:6658   */\n      swap2\n      swap1\n      pop\n      jump\t// out\n        /* \"#utility.yul\":6664:7083   */\n    tag_71:\n        /* \"#utility.yul\":6830:6834   */\n      0x00\n        /* \"#utility.yul\":6868:6870   */\n      0x20\n        /* \"#utility.yul\":6857:6866   */\n      dup3\n        /* \"#utility.yul\":6853:6871   */\n      add\n        /* \"#utility.yul\":6845:6871   */\n      swap1\n      pop\n        /* \"#utility.yul\":6917:6926   */\n      dup2\n        /* \"#utility.yul\":6911:6915   */\n      dup2\n        /* \"#utility.yul\":6907:6927   */\n      sub\n        /* \"#utility.yul\":6903:6904   */\n      0x00\n        /* \"#utility.yul\":6892:6901   */\n      dup4\n        /* \"#utility.yul\":6888:6905   */\n      add\n        /* \"#utility.yul\":6881:6928   */\n      mstore\n        /* \"#utility.yul\":6945:7076   */\n      tag_185\n        /* \"#utility.yul\":7071:7075   */\n      dup2\n        /* \"#utility.yul\":6945:7076   */\n      tag_114\n      jump\t// in\n    tag_185:\n        /* \"#utility.yul\":6937:7076   */\n      swap1\n      pop\n        /* \"#utility.yul\":6664:7083   */\n      swap2\n      swap1\n      pop\n      jump\t// out\n        /* \"#utility.yul\":7089:7269   */\n    tag_115:\n        /* \"#utility.yul\":7137:7214   */\n      0x4e487b7100000000000000000000000000000000000000000000000000000000\n        /* \"#utility.yul\":7134:7135   */\n      0x00\n        /* \"#utility.yul\":7127:7215   */\n      mstore\n        /* \"#utility.yul\":7234:7238   */\n      0x11\n        /* \"#utility.yul\":7231:7232   */\n      0x04\n        /* \"#utility.yul\":7224:7239   */\n      mstore\n        /* \"#utility.yul\":7258:7262   */\n      0x24\n        /* \"#utility.yul\":7255:7256   */\n      0x00\n        /* \"#utility.yul\":7248:7263   */\n      revert\n        /* \"#utility.yul\":7275:7685   */\n    tag_76:\n        /* \"#utility.yul\":7315:7322   */\n      0x00\n        /* \"#utility.yul\":7338:7358   */\n      tag_188\n        /* \"#utility.yul\":7356:7357   */\n      dup3\n        /* \"#utility.yul\":7338:7358   */\n      tag_96\n      jump\t// in\n    tag_188:\n        /* \"#utility.yul\":7333:7358   */\n      swap2\n      pop\n        /* \"#utility.yul\":7372:7392   */\n      tag_189\n        /* \"#utility.yul\":7390:7391   */\n      dup4\n        /* \"#utility.yul\":7372:7392   */\n      tag_96\n      jump\t// in\n    tag_189:\n        /* \"#utility.yul\":7367:7392   */\n      swap3\n      pop\n        /* \"#utility.yul\":7427:7428   */\n      dup3\n        /* \"#utility.yul\":7424:7425   */\n      dup3\n        /* \"#utility.yul\":7420:7429   */\n      mul\n        /* \"#utility.yul\":7449:7479   */\n      tag_190\n        /* \"#utility.yul\":7467:7478   */\n      dup2\n        /* \"#utility.yul\":7449:7479   */\n      tag_96\n      jump\t// in\n    tag_190:\n        /* \"#utility.yul\":7438:7479   */\n      swap2\n      pop\n        /* \"#utility.yul\":7628:7629   */\n      dup3\n        /* \"#utility.yul\":7619:7626   */\n      dup3\n        /* \"#utility.yul\":7615:7630   */\n      div\n        /* \"#utility.yul\":7612:7613   */\n      dup5\n        /* \"#utility.yul\":7609:7631   */\n      eq\n        /* \"#utility.yul\":7589:7590   */\n      dup4\n        /* \"#utility.yul\":7582:7591   */\n      iszero\n        /* \"#utility.yul\":7562:7645   */\n      or\n        /* \"#utility.yul\":7539:7678   */\n      tag_191\n      jumpi\n        /* \"#utility.yul\":7658:7676   */\n      tag_192\n      tag_115\n      jump\t// in\n    tag_192:\n        /* \"#utility.yul\":7539:7678   */\n    tag_191:\n        /* \"#utility.yul\":7323:7685   */\n      pop\n        /* \"#utility.yul\":7275:7685   */\n      swap3\n      swap2\n      pop\n      pop\n      jump\t// out\n        /* \"#utility.yul\":7691:7871   */\n    tag_116:\n        /* \"#utility.yul\":7739:7816   */\n      0x4e487b7100000000000000000000000000000000000000000000000000000000\n        /* \"#utility.yul\":7736:7737   */\n      0x00\n        /* \"#utility.yul\":7729:7817   */\n      mstore\n        /* \"#utility.yul\":7836:7840   */\n      0x12\n        /* \"#utility.yul\":7833:7834   */\n      0x04\n        /* \"#utility.yul\":7826:7841   */\n      mstore\n        /* \"#utility.yul\":7860:7864   */\n      0x24\n        /* \"#utility.yul\":7857:7858   */\n      0x00\n        /* \"#utility.yul\":7850:7865   */\n      revert\n        /* \"#utility.yul\":7877:8062   */\n    tag_78:\n        /* \"#utility.yul\":7917:7918   */\n      0x00\n        /* \"#utility.yul\":7934:7954   */\n      tag_195\n        /* \"#utility.yul\":7952:7953   */\n      dup3\n        /* \"#utility.yul\":7934:7954   */\n      tag_96\n      jump\t// in\n    tag_195:\n        /* \"#utility.yul\":7929:7954   */\n      swap2\n      pop\n        /* \"#utility.yul\":7968:7988   */\n      tag_196\n        /* \"#utility.yul\":7986:7987   */\n      dup4\n        /* \"#utility.yul\":7968:7988   */\n      tag_96\n      jump\t// in\n    tag_196:\n        /* \"#utility.yul\":7963:7988   */\n      swap3\n      pop\n        /* \"#utility.yul\":8007:8008   */\n      dup3\n        /* \"#utility.yul\":7997:8032   */\n      tag_197\n      jumpi\n        /* \"#utility.yul\":8012:8030   */\n      tag_198\n      tag_116\n      jump\t// in\n    tag_198:\n        /* \"#utility.yul\":7997:8032   */\n    tag_197:\n        /* \"#utility.yul\":8054:8055   */\n      dup3\n        /* \"#utility.yul\":8051:8052   */\n      dup3\n        /* \"#utility.yul\":8047:8056   */\n      div\n        /* \"#utility.yul\":8042:8056   */\n      swap1\n      pop\n        /* \"#utility.yul\":7877:8062   */\n      swap3\n      swap2\n      pop\n      pop\n      jump\t// out\n        /* \"#utility.yul\":8068:8173   */\n    tag_117:\n        /* \"#utility.yul\":8104:8111   */\n      0x00\n        /* \"#utility.yul\":8144:8166   */\n      0xffffffffffffffffffff\n        /* \"#utility.yul\":8137:8142   */\n      dup3\n        /* \"#utility.yul\":8133:8167   */\n      and\n        /* \"#utility.yul\":8122:8167   */\n      swap1\n      pop\n        /* \"#utility.yul\":8068:8173   */\n      swap2\n      swap1\n      pop\n      jump\t// out\n        /* \"#utility.yul\":8179:8299   */\n    tag_118:\n        /* \"#utility.yul\":8251:8274   */\n      tag_201\n        /* \"#utility.yul\":8268:8273   */\n      dup2\n        /* \"#utility.yul\":8251:8274   */\n      tag_117\n      jump\t// in\n    tag_201:\n        /* \"#utility.yul\":8244:8249   */\n      dup2\n        /* \"#utility.yul\":8241:8275   */\n      eq\n        /* \"#utility.yul\":8231:8293   */\n      tag_202\n      jumpi\n        /* \"#utility.yul\":8289:8290   */\n      0x00\n        /* \"#utility.yul\":8286:8287   */\n      dup1\n        /* \"#utility.yul\":8279:8291   */\n      revert\n        /* \"#utility.yul\":8231:8293   */\n    tag_202:\n        /* \"#utility.yul\":8179:8299   */\n      pop\n      jump\t// out\n        /* \"#utility.yul\":8305:8446   */\n    tag_119:\n        /* \"#utility.yul\":8361:8366   */\n      0x00\n        /* \"#utility.yul\":8392:8398   */\n      dup2\n        /* \"#utility.yul\":8386:8399   */\n      mload\n        /* \"#utility.yul\":8377:8399   */\n      swap1\n      pop\n        /* \"#utility.yul\":8408:8440   */\n      tag_204\n        /* \"#utility.yul\":8434:8439   */\n      dup2\n        /* \"#utility.yul\":8408:8440   */\n      tag_118\n      jump\t// in\n    tag_204:\n        /* \"#utility.yul\":8305:8446   */\n      swap3\n      swap2\n      pop\n      pop\n      jump\t// out\n        /* \"#utility.yul\":8452:8528   */\n    tag_120:\n        /* \"#utility.yul\":8488:8495   */\n      0x00\n        /* \"#utility.yul\":8517:8522   */\n      dup2\n        /* \"#utility.yul\":8506:8522   */\n      swap1\n      pop\n        /* \"#utility.yul\":8452:8528   */\n      swap2\n      swap1\n      pop\n      jump\t// out\n        /* \"#utility.yul\":8534:8654   */\n    tag_121:\n        /* \"#utility.yul\":8606:8629   */\n      tag_207\n        /* \"#utility.yul\":8623:8628   */\n      dup2\n        /* \"#utility.yul\":8606:8629   */\n      tag_120\n      jump\t// in\n    tag_207:\n        /* \"#utility.yul\":8599:8604   */\n      dup2\n        /* \"#utility.yul\":8596:8630   */\n      eq\n        /* \"#utility.yul\":8586:8648   */\n      tag_208\n      jumpi\n        /* \"#utility.yul\":8644:8645   */\n      0x00\n        /* \"#utility.yul\":8641:8642   */\n      dup1\n        /* \"#utility.yul\":8634:8646   */\n      revert\n        /* \"#utility.yul\":8586:8648   */\n    tag_208:\n        /* \"#utility.yul\":8534:8654   */\n      pop\n      jump\t// out\n        /* \"#utility.yul\":8660:8801   */\n    tag_122:\n        /* \"#utility.yul\":8716:8721   */\n      0x00\n        /* \"#utility.yul\":8747:8753   */\n      dup2\n        /* \"#utility.yul\":8741:8754   */\n      mload\n        /* \"#utility.yul\":8732:8754   */\n      swap1\n      pop\n        /* \"#utility.yul\":8763:8795   */\n      tag_210\n        /* \"#utility.yul\":8789:8794   */\n      dup2\n        /* \"#utility.yul\":8763:8795   */\n      tag_121\n      jump\t// in\n    tag_210:\n        /* \"#utility.yul\":8660:8801   */\n      swap3\n      swap2\n      pop\n      pop\n      jump\t// out\n        /* \"#utility.yul\":8807:8950   */\n    tag_123:\n        /* \"#utility.yul\":8864:8869   */\n      0x00\n        /* \"#utility.yul\":8895:8901   */\n      dup2\n        /* \"#utility.yul\":8889:8902   */\n      mload\n        /* \"#utility.yul\":8880:8902   */\n      swap1\n      pop\n        /* \"#utility.yul\":8911:8944   */\n      tag_212\n        /* \"#utility.yul\":8938:8943   */\n      dup2\n        /* \"#utility.yul\":8911:8944   */\n      tag_97\n      jump\t// in\n    tag_212:\n        /* \"#utility.yul\":8807:8950   */\n      swap3\n      swap2\n      pop\n      pop\n      jump\t// out\n        /* \"#utility.yul\":8956:9927   */\n    tag_83:\n        /* \"#utility.yul\":9059:9065   */\n      0x00\n        /* \"#utility.yul\":9067:9073   */\n      dup1\n        /* \"#utility.yul\":9075:9081   */\n      0x00\n        /* \"#utility.yul\":9083:9089   */\n      dup1\n        /* \"#utility.yul\":9091:9097   */\n      0x00\n        /* \"#utility.yul\":9140:9143   */\n      0xa0\n        /* \"#utility.yul\":9128:9137   */\n      dup7\n        /* \"#utility.yul\":9119:9126   */\n      dup9\n        /* \"#utility.yul\":9115:9138   */\n      sub\n        /* \"#utility.yul\":9111:9144   */\n      slt\n        /* \"#utility.yul\":9108:9228   */\n      iszero\n      tag_214\n      jumpi\n        /* \"#utility.yul\":9147:9226   */\n      tag_215\n      tag_94\n      jump\t// in\n    tag_215:\n        /* \"#utility.yul\":9108:9228   */\n    tag_214:\n        /* \"#utility.yul\":9267:9268   */\n      0x00\n        /* \"#utility.yul\":9292:9355   */\n      tag_216\n        /* \"#utility.yul\":9347:9354   */\n      dup9\n        /* \"#utility.yul\":9338:9344   */\n      dup3\n        /* \"#utility.yul\":9327:9336   */\n      dup10\n        /* \"#utility.yul\":9323:9345   */\n      add\n        /* \"#utility.yul\":9292:9355   */\n      tag_119\n      jump\t// in\n    tag_216:\n        /* \"#utility.yul\":9282:9355   */\n      swap6\n      pop\n        /* \"#utility.yul\":9238:9365   */\n      pop\n        /* \"#utility.yul\":9404:9406   */\n      0x20\n        /* \"#utility.yul\":9430:9493   */\n      tag_217\n        /* \"#utility.yul\":9485:9492   */\n      dup9\n        /* \"#utility.yul\":9476:9482   */\n      dup3\n        /* \"#utility.yul\":9465:9474   */\n      dup10\n        /* \"#utility.yul\":9461:9483   */\n      add\n        /* \"#utility.yul\":9430:9493   */\n      tag_122\n      jump\t// in\n    tag_217:\n        /* \"#utility.yul\":9420:9493   */\n      swap5\n      pop\n        /* \"#utility.yul\":9375:9503   */\n      pop\n        /* \"#utility.yul\":9542:9544   */\n      0x40\n        /* \"#utility.yul\":9568:9632   */\n      tag_218\n        /* \"#utility.yul\":9624:9631   */\n      dup9\n        /* \"#utility.yul\":9615:9621   */\n      dup3\n        /* \"#utility.yul\":9604:9613   */\n      dup10\n        /* \"#utility.yul\":9600:9622   */\n      add\n        /* \"#utility.yul\":9568:9632   */\n      tag_123\n      jump\t// in\n    tag_218:\n        /* \"#utility.yul\":9558:9632   */\n      swap4\n      pop\n        /* \"#utility.yul\":9513:9642   */\n      pop\n        /* \"#utility.yul\":9681:9683   */\n      0x60\n        /* \"#utility.yul\":9707:9771   */\n      tag_219\n        /* \"#utility.yul\":9763:9770   */\n      dup9\n        /* \"#utility.yul\":9754:9760   */\n      dup3\n        /* \"#utility.yul\":9743:9752   */\n      dup10\n        /* \"#utility.yul\":9739:9761   */\n      add\n        /* \"#utility.yul\":9707:9771   */\n      tag_123\n      jump\t// in\n    tag_219:\n        /* \"#utility.yul\":9697:9771   */\n      swap3\n      pop\n        /* \"#utility.yul\":9652:9781   */\n      pop\n        /* \"#utility.yul\":9820:9823   */\n      0x80\n        /* \"#utility.yul\":9847:9910   */\n      tag_220\n        /* \"#utility.yul\":9902:9909   */\n      dup9\n        /* \"#utility.yul\":9893:9899   */\n      dup3\n        /* \"#utility.yul\":9882:9891   */\n      dup10\n        /* \"#utility.yul\":9878:9900   */\n      add\n        /* \"#utility.yul\":9847:9910   */\n      tag_119\n      jump\t// in\n    tag_220:\n        /* \"#utility.yul\":9837:9910   */\n      swap2\n      pop\n        /* \"#utility.yul\":9791:9920   */\n      pop\n        /* \"#utility.yul\":8956:9927   */\n      swap3\n      swap6\n      pop\n      swap3\n      swap6\n      swap1\n      swap4\n      pop\n      jump\t// out\n        /* \"#utility.yul\":9933:10489   */\n    tag_85:\n        /* \"#utility.yul\":9972:9979   */\n      0x00\n        /* \"#utility.yul\":9995:10014   */\n      tag_222\n        /* \"#utility.yul\":10012:10013   */\n      dup3\n        /* \"#utility.yul\":9995:10014   */\n      tag_120\n      jump\t// in\n    tag_222:\n        /* \"#utility.yul\":9990:10014   */\n      swap2\n      pop\n        /* \"#utility.yul\":10028:10047   */\n      tag_223\n        /* \"#utility.yul\":10045:10046   */\n      dup4\n        /* \"#utility.yul\":10028:10047   */\n      tag_120\n      jump\t// in\n    tag_223:\n        /* \"#utility.yul\":10023:10047   */\n      swap3\n      pop\n        /* \"#utility.yul\":10082:10083   */\n      dup3\n        /* \"#utility.yul\":10079:10080   */\n      dup3\n        /* \"#utility.yul\":10075:10084   */\n      mul\n        /* \"#utility.yul\":10104:10133   */\n      tag_224\n        /* \"#utility.yul\":10121:10132   */\n      dup2\n        /* \"#utility.yul\":10104:10133   */\n      tag_120\n      jump\t// in\n    tag_224:\n        /* \"#utility.yul\":10093:10133   */\n      swap2\n      pop\n        /* \"#utility.yul\":10191:10257   */\n      0x8000000000000000000000000000000000000000000000000000000000000000\n        /* \"#utility.yul\":10188:10189   */\n      dup5\n        /* \"#utility.yul\":10185:10258   */\n      eq\n        /* \"#utility.yul\":10181:10182   */\n      0x00\n        /* \"#utility.yul\":10178:10179   */\n      dup5\n        /* \"#utility.yul\":10174:10183   */\n      slt\n        /* \"#utility.yul\":10170:10259   */\n      and\n        /* \"#utility.yul\":10167:10282   */\n      iszero\n      tag_225\n      jumpi\n        /* \"#utility.yul\":10262:10280   */\n      tag_226\n      tag_115\n      jump\t// in\n    tag_226:\n        /* \"#utility.yul\":10167:10282   */\n    tag_225:\n        /* \"#utility.yul\":10432:10433   */\n      dup3\n        /* \"#utility.yul\":10423:10430   */\n      dup3\n        /* \"#utility.yul\":10418:10434   */\n      sdiv\n        /* \"#utility.yul\":10415:10416   */\n      dup5\n        /* \"#utility.yul\":10412:10435   */\n      eq\n        /* \"#utility.yul\":10392:10393   */\n      dup4\n        /* \"#utility.yul\":10385:10394   */\n      iszero\n        /* \"#utility.yul\":10365:10449   */\n      or\n        /* \"#utility.yul\":10342:10482   */\n      tag_227\n      jumpi\n        /* \"#utility.yul\":10462:10480   */\n      tag_228\n      tag_115\n      jump\t// in\n    tag_228:\n        /* \"#utility.yul\":10342:10482   */\n    tag_227:\n        /* \"#utility.yul\":9980:10489   */\n      pop\n        /* \"#utility.yul\":9933:10489   */\n      swap3\n      swap2\n      pop\n      pop\n      jump\t// out\n\n    auxdata: 0xa26469706673582212208f45706fc3d9cfe693704b71722b4230c21f3302915bbfee3cc49db7375161e064736f6c63430008160033\n}\n",
				"bytecode": {
					"linkReferences": {},
					"object": "60a060405234801561000f575f80fd5b503373ffffffffffffffffffffffffffffffffffffffff1660808173ffffffffffffffffffffffffffffffffffffffff1681525050608051610bd36100635f395f818161025b01526104a40152610bd35ff3fe60806040526004361061004d575f3560e01c8063365b98b21461006657806357ea89b6146100a25780636ce1417e146100b8578063db444bac146100c2578063dba6335f146100fe5761005c565b3661005c5761005a610128565b005b610064610128565b005b348015610071575f80fd5b5061008c6004803603810190610087919061067c565b61021f565b60405161009991906106e6565b60405180910390f35b3480156100ad575f80fd5b506100b6610259565b005b6100c0610128565b005b3480156100cd575f80fd5b506100e860048036038101906100e39190610729565b61048d565b6040516100f59190610763565b60405180910390f35b348015610109575f80fd5b506101126104a2565b60405161011f91906106e6565b60405180910390f35b6802b5e3af16b188000061013b346104c6565b101561017c576040517f08c379a0000000000000000000000000000000000000000000000000000000008152600401610173906107d6565b60405180910390fd5b5f33908060018154018082558091505060019003905f5260205f20015f9091909190916101000a81548173ffffffffffffffffffffffffffffffffffffffff021916908373ffffffffffffffffffffffffffffffffffffffff1602179055503460015f3373ffffffffffffffffffffffffffffffffffffffff1673ffffffffffffffffffffffffffffffffffffffff1681526020019081526020015f2081905550565b5f818154811061022d575f80fd5b905f5260205f20015f915054906101000a900473ffffffffffffffffffffffffffffffffffffffff1681565b7f000000000000000000000000000000000000000000000000000000000000000073ffffffffffffffffffffffffffffffffffffffff163373ffffffffffffffffffffffffffffffffffffffff16146102e7576040517f08c379a00000000000000000000000000000000000000000000000000000000081526004016102de9061083e565b60405180910390fd5b5f5b5f80549050811015610383575f8082815481106103095761030861085c565b5b905f5260205f20015f9054906101000a900473ffffffffffffffffffffffffffffffffffffffff1690505f60015f8373ffffffffffffffffffffffffffffffffffffffff1673ffffffffffffffffffffffffffffffffffffffff1681526020019081526020015f20819055505080806001019150506102e9565b505f67ffffffffffffffff81111561039e5761039d610889565b5b6040519080825280602002602001820160405280156103cc5781602001602082028036833780820191505090505b505f90805190602001906103e19291906105a3565b505f3373ffffffffffffffffffffffffffffffffffffffff1647604051610407906108e3565b5f6040518083038185875af1925050503d805f8114610441576040519150601f19603f3d011682016040523d82523d5f602084013e610446565b606091505b505090508061048a576040517f08c379a000000000000000000000000000000000000000000000000000000000815260040161048190610941565b60405180910390fd5b50565b6001602052805f5260405f205f915090505481565b7f000000000000000000000000000000000000000000000000000000000000000081565b5f806104d06104fe565b90505f670de0b6b3a764000084836104e8919061098c565b6104f291906109fa565b90508092505050919050565b5f8073694aa1769357215de4fac081bf1f309adc32530690505f8173ffffffffffffffffffffffffffffffffffffffff1663feaf968c6040518163ffffffff1660e01b815260040160a060405180830381865afa158015610561573d5f803e3d5ffd5b505050506040513d601f19601f820116820180604052508101906105859190610ab0565b5050509150506402540be4008161059c9190610b27565b9250505090565b828054828255905f5260205f20908101928215610619579160200282015b82811115610618578251825f6101000a81548173ffffffffffffffffffffffffffffffffffffffff021916908373ffffffffffffffffffffffffffffffffffffffff160217905550916020019190600101906105c1565b5b509050610626919061062a565b5090565b5b80821115610641575f815f90555060010161062b565b5090565b5f80fd5b5f819050919050565b61065b81610649565b8114610665575f80fd5b50565b5f8135905061067681610652565b92915050565b5f6020828403121561069157610690610645565b5b5f61069e84828501610668565b91505092915050565b5f73ffffffffffffffffffffffffffffffffffffffff82169050919050565b5f6106d0826106a7565b9050919050565b6106e0816106c6565b82525050565b5f6020820190506106f95f8301846106d7565b92915050565b610708816106c6565b8114610712575f80fd5b50565b5f81359050610723816106ff565b92915050565b5f6020828403121561073e5761073d610645565b5b5f61074b84828501610715565b91505092915050565b61075d81610649565b82525050565b5f6020820190506107765f830184610754565b92915050565b5f82825260208201905092915050565b7f4469646e2774202073656e6420656e6f757468210000000000000000000000005f82015250565b5f6107c060148361077c565b91506107cb8261078c565b602082019050919050565b5f6020820190508181035f8301526107ed816107b4565b9050919050565b7f73656e646572206973206e6f74206f776e6572000000000000000000000000005f82015250565b5f61082860138361077c565b9150610833826107f4565b602082019050919050565b5f6020820190508181035f8301526108558161081c565b9050919050565b7f4e487b71000000000000000000000000000000000000000000000000000000005f52603260045260245ffd5b7f4e487b71000000000000000000000000000000000000000000000000000000005f52604160045260245ffd5b5f81905092915050565b50565b5f6108ce5f836108b6565b91506108d9826108c0565b5f82019050919050565b5f6108ed826108c3565b9150819050919050565b7f63616c6c206661696c65640000000000000000000000000000000000000000005f82015250565b5f61092b600b8361077c565b9150610936826108f7565b602082019050919050565b5f6020820190508181035f8301526109588161091f565b9050919050565b7f4e487b71000000000000000000000000000000000000000000000000000000005f52601160045260245ffd5b5f61099682610649565b91506109a183610649565b92508282026109af81610649565b915082820484148315176109c6576109c561095f565b5b5092915050565b7f4e487b71000000000000000000000000000000000000000000000000000000005f52601260045260245ffd5b5f610a0482610649565b9150610a0f83610649565b925082610a1f57610a1e6109cd565b5b828204905092915050565b5f69ffffffffffffffffffff82169050919050565b610a4881610a2a565b8114610a52575f80fd5b50565b5f81519050610a6381610a3f565b92915050565b5f819050919050565b610a7b81610a69565b8114610a85575f80fd5b50565b5f81519050610a9681610a72565b92915050565b5f81519050610aaa81610652565b92915050565b5f805f805f60a08688031215610ac957610ac8610645565b5b5f610ad688828901610a55565b9550506020610ae788828901610a88565b9450506040610af888828901610a9c565b9350506060610b0988828901610a9c565b9250506080610b1a88828901610a55565b9150509295509295909350565b5f610b3182610a69565b9150610b3c83610a69565b9250828202610b4a81610a69565b91507f800000000000000000000000000000000000000000000000000000000000000084145f84121615610b8157610b8061095f565b5b8282058414831517610b9657610b9561095f565b5b509291505056fea26469706673582212208f45706fc3d9cfe693704b71722b4230c21f3302915bbfee3cc49db7375161e064736f6c63430008160033",
					"opcodes": "PUSH1 0xA0 PUSH1 0x40 MSTORE CALLVALUE DUP1 ISZERO PUSH2 0xF JUMPI PUSH0 DUP1 REVERT JUMPDEST POP CALLER PUSH20 0xFFFFFFFFFFFFFFFFFFFFFFFFFFFFFFFFFFFFFFFF AND PUSH1 0x80 DUP2 PUSH20 0xFFFFFFFFFFFFFFFFFFFFFFFFFFFFFFFFFFFFFFFF AND DUP2 MSTORE POP POP PUSH1 0x80 MLOAD PUSH2 0xBD3 PUSH2 0x63 PUSH0 CODECOPY PUSH0 DUP2 DUP2 PUSH2 0x25B ADD MSTORE PUSH2 0x4A4 ADD MSTORE PUSH2 0xBD3 PUSH0 RETURN INVALID PUSH1 0x80 PUSH1 0x40 MSTORE PUSH1 0x4 CALLDATASIZE LT PUSH2 0x4D JUMPI PUSH0 CALLDATALOAD PUSH1 0xE0 SHR DUP1 PUSH4 0x365B98B2 EQ PUSH2 0x66 JUMPI DUP1 PUSH4 0x57EA89B6 EQ PUSH2 0xA2 JUMPI DUP1 PUSH4 0x6CE1417E EQ PUSH2 0xB8 JUMPI DUP1 PUSH4 0xDB444BAC EQ PUSH2 0xC2 JUMPI DUP1 PUSH4 0xDBA6335F EQ PUSH2 0xFE JUMPI PUSH2 0x5C JUMP JUMPDEST CALLDATASIZE PUSH2 0x5C JUMPI PUSH2 0x5A PUSH2 0x128 JUMP JUMPDEST STOP JUMPDEST PUSH2 0x64 PUSH2 0x128 JUMP JUMPDEST STOP JUMPDEST CALLVALUE DUP1 ISZERO PUSH2 0x71 JUMPI PUSH0 DUP1 REVERT JUMPDEST POP PUSH2 0x8C PUSH1 0x4 DUP1 CALLDATASIZE SUB DUP2 ADD SWAP1 PUSH2 0x87 SWAP2 SWAP1 PUSH2 0x67C JUMP JUMPDEST PUSH2 0x21F JUMP JUMPDEST PUSH1 0x40 MLOAD PUSH2 0x99 SWAP2 SWAP1 PUSH2 0x6E6 JUMP JUMPDEST PUSH1 0x40 MLOAD DUP1 SWAP2 SUB SWAP1 RETURN JUMPDEST CALLVALUE DUP1 ISZERO PUSH2 0xAD JUMPI PUSH0 DUP1 REVERT JUMPDEST POP PUSH2 0xB6 PUSH2 0x259 JUMP JUMPDEST STOP JUMPDEST PUSH2 0xC0 PUSH2 0x128 JUMP JUMPDEST STOP JUMPDEST CALLVALUE DUP1 ISZERO PUSH2 0xCD JUMPI PUSH0 DUP1 REVERT JUMPDEST POP PUSH2 0xE8 PUSH1 0x4 DUP1 CALLDATASIZE SUB DUP2 ADD SWAP1 PUSH2 0xE3 SWAP2 SWAP1 PUSH2 0x729 JUMP JUMPDEST PUSH2 0x48D JUMP JUMPDEST PUSH1 0x40 MLOAD PUSH2 0xF5 SWAP2 SWAP1 PUSH2 0x763 JUMP JUMPDEST PUSH1 0x40 MLOAD DUP1 SWAP2 SUB SWAP1 RETURN JUMPDEST CALLVALUE DUP1 ISZERO PUSH2 0x109 JUMPI PUSH0 DUP1 REVERT JUMPDEST POP PUSH2 0x112 PUSH2 0x4A2 JUMP JUMPDEST PUSH1 0x40 MLOAD PUSH2 0x11F SWAP2 SWAP1 PUSH2 0x6E6 JUMP JUMPDEST PUSH1 0x40 MLOAD DUP1 SWAP2 SUB SWAP1 RETURN JUMPDEST PUSH9 0x2B5E3AF16B1880000 PUSH2 0x13B CALLVALUE PUSH2 0x4C6 JUMP JUMPDEST LT ISZERO PUSH2 0x17C JUMPI PUSH1 0x40 MLOAD PUSH32 0x8C379A000000000000000000000000000000000000000000000000000000000 DUP2 MSTORE PUSH1 0x4 ADD PUSH2 0x173 SWAP1 PUSH2 0x7D6 JUMP JUMPDEST PUSH1 0x40 MLOAD DUP1 SWAP2 SUB SWAP1 REVERT JUMPDEST PUSH0 CALLER SWAP1 DUP1 PUSH1 0x1 DUP2 SLOAD ADD DUP1 DUP3 SSTORE DUP1 SWAP2 POP POP PUSH1 0x1 SWAP1 SUB SWAP1 PUSH0 MSTORE PUSH1 0x20 PUSH0 KECCAK256 ADD PUSH0 SWAP1 SWAP2 SWAP1 SWAP2 SWAP1 SWAP2 PUSH2 0x100 EXP DUP2 SLOAD DUP2 PUSH20 0xFFFFFFFFFFFFFFFFFFFFFFFFFFFFFFFFFFFFFFFF MUL NOT AND SWAP1 DUP4 PUSH20 0xFFFFFFFFFFFFFFFFFFFFFFFFFFFFFFFFFFFFFFFF AND MUL OR SWAP1 SSTORE POP CALLVALUE PUSH1 0x1 PUSH0 CALLER PUSH20 0xFFFFFFFFFFFFFFFFFFFFFFFFFFFFFFFFFFFFFFFF AND PUSH20 0xFFFFFFFFFFFFFFFFFFFFFFFFFFFFFFFFFFFFFFFF AND DUP2 MSTORE PUSH1 0x20 ADD SWAP1 DUP2 MSTORE PUSH1 0x20 ADD PUSH0 KECCAK256 DUP2 SWAP1 SSTORE POP JUMP JUMPDEST PUSH0 DUP2 DUP2 SLOAD DUP2 LT PUSH2 0x22D JUMPI PUSH0 DUP1 REVERT JUMPDEST SWAP1 PUSH0 MSTORE PUSH1 0x20 PUSH0 KECCAK256 ADD PUSH0 SWAP2 POP SLOAD SWAP1 PUSH2 0x100 EXP SWAP1 DIV PUSH20 0xFFFFFFFFFFFFFFFFFFFFFFFFFFFFFFFFFFFFFFFF AND DUP2 JUMP JUMPDEST PUSH32 0x0 PUSH20 0xFFFFFFFFFFFFFFFFFFFFFFFFFFFFFFFFFFFFFFFF AND CALLER PUSH20 0xFFFFFFFFFFFFFFFFFFFFFFFFFFFFFFFFFFFFFFFF AND EQ PUSH2 0x2E7 JUMPI PUSH1 0x40 MLOAD PUSH32 0x8C379A000000000000000000000000000000000000000000000000000000000 DUP2 MSTORE PUSH1 0x4 ADD PUSH2 0x2DE SWAP1 PUSH2 0x83E JUMP JUMPDEST PUSH1 0x40 MLOAD DUP1 SWAP2 SUB SWAP1 REVERT JUMPDEST PUSH0 JUMPDEST PUSH0 DUP1 SLOAD SWAP1 POP DUP2 LT ISZERO PUSH2 0x383 JUMPI PUSH0 DUP1 DUP3 DUP2 SLOAD DUP2 LT PUSH2 0x309 JUMPI PUSH2 0x308 PUSH2 0x85C JUMP JUMPDEST JUMPDEST SWAP1 PUSH0 MSTORE PUSH1 0x20 PUSH0 KECCAK256 ADD PUSH0 SWAP1 SLOAD SWAP1 PUSH2 0x100 EXP SWAP1 DIV PUSH20 0xFFFFFFFFFFFFFFFFFFFFFFFFFFFFFFFFFFFFFFFF AND SWAP1 POP PUSH0 PUSH1 0x1 PUSH0 DUP4 PUSH20 0xFFFFFFFFFFFFFFFFFFFFFFFFFFFFFFFFFFFFFFFF AND PUSH20 0xFFFFFFFFFFFFFFFFFFFFFFFFFFFFFFFFFFFFFFFF AND DUP2 MSTORE PUSH1 0x20 ADD SWAP1 DUP2 MSTORE PUSH1 0x20 ADD PUSH0 KECCAK256 DUP2 SWAP1 SSTORE POP POP DUP1 DUP1 PUSH1 0x1 ADD SWAP2 POP POP PUSH2 0x2E9 JUMP JUMPDEST POP PUSH0 PUSH8 0xFFFFFFFFFFFFFFFF DUP2 GT ISZERO PUSH2 0x39E JUMPI PUSH2 0x39D PUSH2 0x889 JUMP JUMPDEST JUMPDEST PUSH1 0x40 MLOAD SWAP1 DUP1 DUP3 MSTORE DUP1 PUSH1 0x20 MUL PUSH1 0x20 ADD DUP3 ADD PUSH1 0x40 MSTORE DUP1 ISZERO PUSH2 0x3CC JUMPI DUP2 PUSH1 0x20 ADD PUSH1 0x20 DUP3 MUL DUP1 CALLDATASIZE DUP4 CALLDATACOPY DUP1 DUP3 ADD SWAP2 POP POP SWAP1 POP JUMPDEST POP PUSH0 SWAP1 DUP1 MLOAD SWAP1 PUSH1 0x20 ADD SWAP1 PUSH2 0x3E1 SWAP3 SWAP2 SWAP1 PUSH2 0x5A3 JUMP JUMPDEST POP PUSH0 CALLER PUSH20 0xFFFFFFFFFFFFFFFFFFFFFFFFFFFFFFFFFFFFFFFF AND SELFBALANCE PUSH1 0x40 MLOAD PUSH2 0x407 SWAP1 PUSH2 0x8E3 JUMP JUMPDEST PUSH0 PUSH1 0x40 MLOAD DUP1 DUP4 SUB DUP2 DUP6 DUP8 GAS CALL SWAP3 POP POP POP RETURNDATASIZE DUP1 PUSH0 DUP2 EQ PUSH2 0x441 JUMPI PUSH1 0x40 MLOAD SWAP2 POP PUSH1 0x1F NOT PUSH1 0x3F RETURNDATASIZE ADD AND DUP3 ADD PUSH1 0x40 MSTORE RETURNDATASIZE DUP3 MSTORE RETURNDATASIZE PUSH0 PUSH1 0x20 DUP5 ADD RETURNDATACOPY PUSH2 0x446 JUMP JUMPDEST PUSH1 0x60 SWAP2 POP JUMPDEST POP POP SWAP1 POP DUP1 PUSH2 0x48A JUMPI PUSH1 0x40 MLOAD PUSH32 0x8C379A000000000000000000000000000000000000000000000000000000000 DUP2 MSTORE PUSH1 0x4 ADD PUSH2 0x481 SWAP1 PUSH2 0x941 JUMP JUMPDEST PUSH1 0x40 MLOAD DUP1 SWAP2 SUB SWAP1 REVERT JUMPDEST POP JUMP JUMPDEST PUSH1 0x1 PUSH1 0x20 MSTORE DUP1 PUSH0 MSTORE PUSH1 0x40 PUSH0 KECCAK256 PUSH0 SWAP2 POP SWAP1 POP SLOAD DUP2 JUMP JUMPDEST PUSH32 0x0 DUP2 JUMP JUMPDEST PUSH0 DUP1 PUSH2 0x4D0 PUSH2 0x4FE JUMP JUMPDEST SWAP1 POP PUSH0 PUSH8 0xDE0B6B3A7640000 DUP5 DUP4 PUSH2 0x4E8 SWAP2 SWAP1 PUSH2 0x98C JUMP JUMPDEST PUSH2 0x4F2 SWAP2 SWAP1 PUSH2 0x9FA JUMP JUMPDEST SWAP1 POP DUP1 SWAP3 POP POP POP SWAP2 SWAP1 POP JUMP JUMPDEST PUSH0 DUP1 PUSH20 0x694AA1769357215DE4FAC081BF1F309ADC325306 SWAP1 POP PUSH0 DUP2 PUSH20 0xFFFFFFFFFFFFFFFFFFFFFFFFFFFFFFFFFFFFFFFF AND PUSH4 0xFEAF968C PUSH1 0x40 MLOAD DUP2 PUSH4 0xFFFFFFFF AND PUSH1 0xE0 SHL DUP2 MSTORE PUSH1 0x4 ADD PUSH1 0xA0 PUSH1 0x40 MLOAD DUP1 DUP4 SUB DUP2 DUP7 GAS STATICCALL ISZERO DUP1 ISZERO PUSH2 0x561 JUMPI RETURNDATASIZE PUSH0 DUP1 RETURNDATACOPY RETURNDATASIZE PUSH0 REVERT JUMPDEST POP POP POP POP PUSH1 0x40 MLOAD RETURNDATASIZE PUSH1 0x1F NOT PUSH1 0x1F DUP3 ADD AND DUP3 ADD DUP1 PUSH1 0x40 MSTORE POP DUP2 ADD SWAP1 PUSH2 0x585 SWAP2 SWAP1 PUSH2 0xAB0 JUMP JUMPDEST POP POP POP SWAP2 POP POP PUSH5 0x2540BE400 DUP2 PUSH2 0x59C SWAP2 SWAP1 PUSH2 0xB27 JUMP JUMPDEST SWAP3 POP POP POP SWAP1 JUMP JUMPDEST DUP3 DUP1 SLOAD DUP3 DUP3 SSTORE SWAP1 PUSH0 MSTORE PUSH1 0x20 PUSH0 KECCAK256 SWAP1 DUP2 ADD SWAP3 DUP3 ISZERO PUSH2 0x619 JUMPI SWAP2 PUSH1 0x20 MUL DUP3 ADD JUMPDEST DUP3 DUP2 GT ISZERO PUSH2 0x618 JUMPI DUP3 MLOAD DUP3 PUSH0 PUSH2 0x100 EXP DUP2 SLOAD DUP2 PUSH20 0xFFFFFFFFFFFFFFFFFFFFFFFFFFFFFFFFFFFFFFFF MUL NOT AND SWAP1 DUP4 PUSH20 0xFFFFFFFFFFFFFFFFFFFFFFFFFFFFFFFFFFFFFFFF AND MUL OR SWAP1 SSTORE POP SWAP2 PUSH1 0x20 ADD SWAP2 SWAP1 PUSH1 0x1 ADD SWAP1 PUSH2 0x5C1 JUMP JUMPDEST JUMPDEST POP SWAP1 POP PUSH2 0x626 SWAP2 SWAP1 PUSH2 0x62A JUMP JUMPDEST POP SWAP1 JUMP JUMPDEST JUMPDEST DUP1 DUP3 GT ISZERO PUSH2 0x641 JUMPI PUSH0 DUP2 PUSH0 SWAP1 SSTORE POP PUSH1 0x1 ADD PUSH2 0x62B JUMP JUMPDEST POP SWAP1 JUMP JUMPDEST PUSH0 DUP1 REVERT JUMPDEST PUSH0 DUP2 SWAP1 POP SWAP2 SWAP1 POP JUMP JUMPDEST PUSH2 0x65B DUP2 PUSH2 0x649 JUMP JUMPDEST DUP2 EQ PUSH2 0x665 JUMPI PUSH0 DUP1 REVERT JUMPDEST POP JUMP JUMPDEST PUSH0 DUP2 CALLDATALOAD SWAP1 POP PUSH2 0x676 DUP2 PUSH2 0x652 JUMP JUMPDEST SWAP3 SWAP2 POP POP JUMP JUMPDEST PUSH0 PUSH1 0x20 DUP3 DUP5 SUB SLT ISZERO PUSH2 0x691 JUMPI PUSH2 0x690 PUSH2 0x645 JUMP JUMPDEST JUMPDEST PUSH0 PUSH2 0x69E DUP5 DUP3 DUP6 ADD PUSH2 0x668 JUMP JUMPDEST SWAP2 POP POP SWAP3 SWAP2 POP POP JUMP JUMPDEST PUSH0 PUSH20 0xFFFFFFFFFFFFFFFFFFFFFFFFFFFFFFFFFFFFFFFF DUP3 AND SWAP1 POP SWAP2 SWAP1 POP JUMP JUMPDEST PUSH0 PUSH2 0x6D0 DUP3 PUSH2 0x6A7 JUMP JUMPDEST SWAP1 POP SWAP2 SWAP1 POP JUMP JUMPDEST PUSH2 0x6E0 DUP2 PUSH2 0x6C6 JUMP JUMPDEST DUP3 MSTORE POP POP JUMP JUMPDEST PUSH0 PUSH1 0x20 DUP3 ADD SWAP1 POP PUSH2 0x6F9 PUSH0 DUP4 ADD DUP5 PUSH2 0x6D7 JUMP JUMPDEST SWAP3 SWAP2 POP POP JUMP JUMPDEST PUSH2 0x708 DUP2 PUSH2 0x6C6 JUMP JUMPDEST DUP2 EQ PUSH2 0x712 JUMPI PUSH0 DUP1 REVERT JUMPDEST POP JUMP JUMPDEST PUSH0 DUP2 CALLDATALOAD SWAP1 POP PUSH2 0x723 DUP2 PUSH2 0x6FF JUMP JUMPDEST SWAP3 SWAP2 POP POP JUMP JUMPDEST PUSH0 PUSH1 0x20 DUP3 DUP5 SUB SLT ISZERO PUSH2 0x73E JUMPI PUSH2 0x73D PUSH2 0x645 JUMP JUMPDEST JUMPDEST PUSH0 PUSH2 0x74B DUP5 DUP3 DUP6 ADD PUSH2 0x715 JUMP JUMPDEST SWAP2 POP POP SWAP3 SWAP2 POP POP JUMP JUMPDEST PUSH2 0x75D DUP2 PUSH2 0x649 JUMP JUMPDEST DUP3 MSTORE POP POP JUMP JUMPDEST PUSH0 PUSH1 0x20 DUP3 ADD SWAP1 POP PUSH2 0x776 PUSH0 DUP4 ADD DUP5 PUSH2 0x754 JUMP JUMPDEST SWAP3 SWAP2 POP POP JUMP JUMPDEST PUSH0 DUP3 DUP3 MSTORE PUSH1 0x20 DUP3 ADD SWAP1 POP SWAP3 SWAP2 POP POP JUMP JUMPDEST PUSH32 0x4469646E2774202073656E6420656E6F75746821000000000000000000000000 PUSH0 DUP3 ADD MSTORE POP JUMP JUMPDEST PUSH0 PUSH2 0x7C0 PUSH1 0x14 DUP4 PUSH2 0x77C JUMP JUMPDEST SWAP2 POP PUSH2 0x7CB DUP3 PUSH2 0x78C JUMP JUMPDEST PUSH1 0x20 DUP3 ADD SWAP1 POP SWAP2 SWAP1 POP JUMP JUMPDEST PUSH0 PUSH1 0x20 DUP3 ADD SWAP1 POP DUP2 DUP2 SUB PUSH0 DUP4 ADD MSTORE PUSH2 0x7ED DUP2 PUSH2 0x7B4 JUMP JUMPDEST SWAP1 POP SWAP2 SWAP1 POP JUMP JUMPDEST PUSH32 0x73656E646572206973206E6F74206F776E657200000000000000000000000000 PUSH0 DUP3 ADD MSTORE POP JUMP JUMPDEST PUSH0 PUSH2 0x828 PUSH1 0x13 DUP4 PUSH2 0x77C JUMP JUMPDEST SWAP2 POP PUSH2 0x833 DUP3 PUSH2 0x7F4 JUMP JUMPDEST PUSH1 0x20 DUP3 ADD SWAP1 POP SWAP2 SWAP1 POP JUMP JUMPDEST PUSH0 PUSH1 0x20 DUP3 ADD SWAP1 POP DUP2 DUP2 SUB PUSH0 DUP4 ADD MSTORE PUSH2 0x855 DUP2 PUSH2 0x81C JUMP JUMPDEST SWAP1 POP SWAP2 SWAP1 POP JUMP JUMPDEST PUSH32 0x4E487B7100000000000000000000000000000000000000000000000000000000 PUSH0 MSTORE PUSH1 0x32 PUSH1 0x4 MSTORE PUSH1 0x24 PUSH0 REVERT JUMPDEST PUSH32 0x4E487B7100000000000000000000000000000000000000000000000000000000 PUSH0 MSTORE PUSH1 0x41 PUSH1 0x4 MSTORE PUSH1 0x24 PUSH0 REVERT JUMPDEST PUSH0 DUP2 SWAP1 POP SWAP3 SWAP2 POP POP JUMP JUMPDEST POP JUMP JUMPDEST PUSH0 PUSH2 0x8CE PUSH0 DUP4 PUSH2 0x8B6 JUMP JUMPDEST SWAP2 POP PUSH2 0x8D9 DUP3 PUSH2 0x8C0 JUMP JUMPDEST PUSH0 DUP3 ADD SWAP1 POP SWAP2 SWAP1 POP JUMP JUMPDEST PUSH0 PUSH2 0x8ED DUP3 PUSH2 0x8C3 JUMP JUMPDEST SWAP2 POP DUP2 SWAP1 POP SWAP2 SWAP1 POP JUMP JUMPDEST PUSH32 0x63616C6C206661696C6564000000000000000000000000000000000000000000 PUSH0 DUP3 ADD MSTORE POP JUMP JUMPDEST PUSH0 PUSH2 0x92B PUSH1 0xB DUP4 PUSH2 0x77C JUMP JUMPDEST SWAP2 POP PUSH2 0x936 DUP3 PUSH2 0x8F7 JUMP JUMPDEST PUSH1 0x20 DUP3 ADD SWAP1 POP SWAP2 SWAP1 POP JUMP JUMPDEST PUSH0 PUSH1 0x20 DUP3 ADD SWAP1 POP DUP2 DUP2 SUB PUSH0 DUP4 ADD MSTORE PUSH2 0x958 DUP2 PUSH2 0x91F JUMP JUMPDEST SWAP1 POP SWAP2 SWAP1 POP JUMP JUMPDEST PUSH32 0x4E487B7100000000000000000000000000000000000000000000000000000000 PUSH0 MSTORE PUSH1 0x11 PUSH1 0x4 MSTORE PUSH1 0x24 PUSH0 REVERT JUMPDEST PUSH0 PUSH2 0x996 DUP3 PUSH2 0x649 JUMP JUMPDEST SWAP2 POP PUSH2 0x9A1 DUP4 PUSH2 0x649 JUMP JUMPDEST SWAP3 POP DUP3 DUP3 MUL PUSH2 0x9AF DUP2 PUSH2 0x649 JUMP JUMPDEST SWAP2 POP DUP3 DUP3 DIV DUP5 EQ DUP4 ISZERO OR PUSH2 0x9C6 JUMPI PUSH2 0x9C5 PUSH2 0x95F JUMP JUMPDEST JUMPDEST POP SWAP3 SWAP2 POP POP JUMP JUMPDEST PUSH32 0x4E487B7100000000000000000000000000000000000000000000000000000000 PUSH0 MSTORE PUSH1 0x12 PUSH1 0x4 MSTORE PUSH1 0x24 PUSH0 REVERT JUMPDEST PUSH0 PUSH2 0xA04 DUP3 PUSH2 0x649 JUMP JUMPDEST SWAP2 POP PUSH2 0xA0F DUP4 PUSH2 0x649 JUMP JUMPDEST SWAP3 POP DUP3 PUSH2 0xA1F JUMPI PUSH2 0xA1E PUSH2 0x9CD JUMP JUMPDEST JUMPDEST DUP3 DUP3 DIV SWAP1 POP SWAP3 SWAP2 POP POP JUMP JUMPDEST PUSH0 PUSH10 0xFFFFFFFFFFFFFFFFFFFF DUP3 AND SWAP1 POP SWAP2 SWAP1 POP JUMP JUMPDEST PUSH2 0xA48 DUP2 PUSH2 0xA2A JUMP JUMPDEST DUP2 EQ PUSH2 0xA52 JUMPI PUSH0 DUP1 REVERT JUMPDEST POP JUMP JUMPDEST PUSH0 DUP2 MLOAD SWAP1 POP PUSH2 0xA63 DUP2 PUSH2 0xA3F JUMP JUMPDEST SWAP3 SWAP2 POP POP JUMP JUMPDEST PUSH0 DUP2 SWAP1 POP SWAP2 SWAP1 POP JUMP JUMPDEST PUSH2 0xA7B DUP2 PUSH2 0xA69 JUMP JUMPDEST DUP2 EQ PUSH2 0xA85 JUMPI PUSH0 DUP1 REVERT JUMPDEST POP JUMP JUMPDEST PUSH0 DUP2 MLOAD SWAP1 POP PUSH2 0xA96 DUP2 PUSH2 0xA72 JUMP JUMPDEST SWAP3 SWAP2 POP POP JUMP JUMPDEST PUSH0 DUP2 MLOAD SWAP1 POP PUSH2 0xAAA DUP2 PUSH2 0x652 JUMP JUMPDEST SWAP3 SWAP2 POP POP JUMP JUMPDEST PUSH0 DUP1 PUSH0 DUP1 PUSH0 PUSH1 0xA0 DUP7 DUP9 SUB SLT ISZERO PUSH2 0xAC9 JUMPI PUSH2 0xAC8 PUSH2 0x645 JUMP JUMPDEST JUMPDEST PUSH0 PUSH2 0xAD6 DUP9 DUP3 DUP10 ADD PUSH2 0xA55 JUMP JUMPDEST SWAP6 POP POP PUSH1 0x20 PUSH2 0xAE7 DUP9 DUP3 DUP10 ADD PUSH2 0xA88 JUMP JUMPDEST SWAP5 POP POP PUSH1 0x40 PUSH2 0xAF8 DUP9 DUP3 DUP10 ADD PUSH2 0xA9C JUMP JUMPDEST SWAP4 POP POP PUSH1 0x60 PUSH2 0xB09 DUP9 DUP3 DUP10 ADD PUSH2 0xA9C JUMP JUMPDEST SWAP3 POP POP PUSH1 0x80 PUSH2 0xB1A DUP9 DUP3 DUP10 ADD PUSH2 0xA55 JUMP JUMPDEST SWAP2 POP POP SWAP3 SWAP6 POP SWAP3 SWAP6 SWAP1 SWAP4 POP JUMP JUMPDEST PUSH0 PUSH2 0xB31 DUP3 PUSH2 0xA69 JUMP JUMPDEST SWAP2 POP PUSH2 0xB3C DUP4 PUSH2 0xA69 JUMP JUMPDEST SWAP3 POP DUP3 DUP3 MUL PUSH2 0xB4A DUP2 PUSH2 0xA69 JUMP JUMPDEST SWAP2 POP PUSH32 0x8000000000000000000000000000000000000000000000000000000000000000 DUP5 EQ PUSH0 DUP5 SLT AND ISZERO PUSH2 0xB81 JUMPI PUSH2 0xB80 PUSH2 0x95F JUMP JUMPDEST JUMPDEST DUP3 DUP3 SDIV DUP5 EQ DUP4 ISZERO OR PUSH2 0xB96 JUMPI PUSH2 0xB95 PUSH2 0x95F JUMP JUMPDEST JUMPDEST POP SWAP3 SWAP2 POP POP JUMP INVALID LOG2 PUSH5 0x6970667358 0x22 SLT KECCAK256 DUP16 GASLIMIT PUSH17 0x6FC3D9CFE693704B71722B4230C21F3302 SWAP2 JUMPDEST 0xBF 0xEE EXTCODECOPY 0xC4 SWAP14 0xB7 CALLDATACOPY MLOAD PUSH2 0xE064 PUSH20 0x6F6C634300081600330000000000000000000000 "
				},
				"gasEstimates": {
					"creation": {
						"codeDepositCost": "605400",
						"executionCost": "infinite",
						"totalCost": "infinite"
					},
					"external": {
						"": "infinite",
						"Fund()": "infinite",
						"Withdraw()": "infinite",
						"addprce(address)": "2846",
						"i_owner()": "infinite",
						"users(uint256)": "4921"
					}
				},
				"methodIdentifiers": {
					"Fund()": "6ce1417e",
					"Withdraw()": "57ea89b6",
					"addprce(address)": "db444bac",
					"i_owner()": "dba6335f",
					"users(uint256)": "365b98b2"
				}
			},
			"storageLayout": {
				"storage": [
					{
						"astId": 13,
						"contract": "chinklinkDemo/FundMe.sol:FundMe",
						"label": "users",
						"offset": 0,
						"slot": "0",
						"type": "t_array(t_address)dyn_storage"
					},
					{
						"astId": 28,
						"contract": "chinklinkDemo/FundMe.sol:FundMe",
						"label": "addprce",
						"offset": 0,
						"slot": "1",
						"type": "t_mapping(t_address,t_uint256)"
					}
				],
				"types": {
					"t_address": {
						"encoding": "inplace",
						"label": "address",
						"numberOfBytes": "20"
					},
					"t_array(t_address)dyn_storage": {
						"base": "t_address",
						"encoding": "dynamic_array",
						"label": "address[]",
						"numberOfBytes": "32"
					},
					"t_mapping(t_address,t_uint256)": {
						"encoding": "mapping",
						"key": "t_address",
						"label": "mapping(address => uint256)",
						"numberOfBytes": "32",
						"value": "t_uint256"
					},
					"t_uint256": {
						"encoding": "inplace",
						"label": "uint256",
						"numberOfBytes": "32"
					}
				}
			},
			"userdoc": {
				"kind": "user",
				"methods": {},
				"version": 1
			}
		}
	}
}