{
	"data": {
		"bytecode": {
			"linkReferences": {},
			"object": "608060405234801561000f575f80fd5b506101c18061001d5f395ff3fe608060405234801561000f575f80fd5b506004361061004a575f3560e01c8063200d2ed21461004e5780636d4ce63c1461006c578063d826f88f1461008a578063ea8a1af014610094575b5f80fd5b61005661009e565b6040516100639190610172565b60405180910390f35b6100746100ae565b6040516100819190610172565b60405180910390f35b6100926100c2565b005b61009c6100d4565b005b5f8054906101000a900460ff1681565b5f805f9054906101000a900460ff16905090565b5f806101000a81549060ff0219169055565b60045f806101000a81548160ff021916908360048111156100f8576100f76100ff565b5b0217905550565b7f4e487b71000000000000000000000000000000000000000000000000000000005f52602160045260245ffd5b6005811061013d5761013c6100ff565b5b50565b5f81905061014d8261012c565b919050565b5f61015c82610140565b9050919050565b61016c81610152565b82525050565b5f6020820190506101855f830184610163565b9291505056fea26469706673582212204106d607a69f674c155390c15eea0da9e90522163bec29daa99cae3c422a287a64736f6c63430008160033",
			"opcodes": "PUSH1 0x80 PUSH1 0x40 MSTORE CALLVALUE DUP1 ISZERO PUSH2 0xF JUMPI PUSH0 DUP1 REVERT JUMPDEST POP PUSH2 0x1C1 DUP1 PUSH2 0x1D PUSH0 CODECOPY PUSH0 RETURN INVALID PUSH1 0x80 PUSH1 0x40 MSTORE CALLVALUE DUP1 ISZERO PUSH2 0xF JUMPI PUSH0 DUP1 REVERT JUMPDEST POP PUSH1 0x4 CALLDATASIZE LT PUSH2 0x4A JUMPI PUSH0 CALLDATALOAD PUSH1 0xE0 SHR DUP1 PUSH4 0x200D2ED2 EQ PUSH2 0x4E JUMPI DUP1 PUSH4 0x6D4CE63C EQ PUSH2 0x6C JUMPI DUP1 PUSH4 0xD826F88F EQ PUSH2 0x8A JUMPI DUP1 PUSH4 0xEA8A1AF0 EQ PUSH2 0x94 JUMPI JUMPDEST PUSH0 DUP1 REVERT JUMPDEST PUSH2 0x56 PUSH2 0x9E JUMP JUMPDEST PUSH1 0x40 MLOAD PUSH2 0x63 SWAP2 SWAP1 PUSH2 0x172 JUMP JUMPDEST PUSH1 0x40 MLOAD DUP1 SWAP2 SUB SWAP1 RETURN JUMPDEST PUSH2 0x74 PUSH2 0xAE JUMP JUMPDEST PUSH1 0x40 MLOAD PUSH2 0x81 SWAP2 SWAP1 PUSH2 0x172 JUMP JUMPDEST PUSH1 0x40 MLOAD DUP1 SWAP2 SUB SWAP1 RETURN JUMPDEST PUSH2 0x92 PUSH2 0xC2 JUMP JUMPDEST STOP JUMPDEST PUSH2 0x9C PUSH2 0xD4 JUMP JUMPDEST STOP JUMPDEST PUSH0 DUP1 SLOAD SWAP1 PUSH2 0x100 EXP SWAP1 DIV PUSH1 0xFF AND DUP2 JUMP JUMPDEST PUSH0 DUP1 PUSH0 SWAP1 SLOAD SWAP1 PUSH2 0x100 EXP SWAP1 DIV PUSH1 0xFF AND SWAP1 POP SWAP1 JUMP JUMPDEST PUSH0 DUP1 PUSH2 0x100 EXP DUP2 SLOAD SWAP1 PUSH1 0xFF MUL NOT AND SWAP1 SSTORE JUMP JUMPDEST PUSH1 0x4 PUSH0 DUP1 PUSH2 0x100 EXP DUP2 SLOAD DUP2 PUSH1 0xFF MUL NOT AND SWAP1 DUP4 PUSH1 0x4 DUP2 GT ISZERO PUSH2 0xF8 JUMPI PUSH2 0xF7 PUSH2 0xFF JUMP JUMPDEST JUMPDEST MUL OR SWAP1 SSTORE POP JUMP JUMPDEST PUSH32 0x4E487B7100000000000000000000000000000000000000000000000000000000 PUSH0 MSTORE PUSH1 0x21 PUSH1 0x4 MSTORE PUSH1 0x24 PUSH0 REVERT JUMPDEST PUSH1 0x5 DUP2 LT PUSH2 0x13D JUMPI PUSH2 0x13C PUSH2 0xFF JUMP JUMPDEST JUMPDEST POP JUMP JUMPDEST PUSH0 DUP2 SWAP1 POP PUSH2 0x14D DUP3 PUSH2 0x12C JUMP JUMPDEST SWAP2 SWAP1 POP JUMP JUMPDEST PUSH0 PUSH2 0x15C DUP3 PUSH2 0x140 JUMP JUMPDEST SWAP1 POP SWAP2 SWAP1 POP JUMP JUMPDEST PUSH2 0x16C DUP2 PUSH2 0x152 JUMP JUMPDEST DUP3 MSTORE POP POP JUMP JUMPDEST PUSH0 PUSH1 0x20 DUP3 ADD SWAP1 POP PUSH2 0x185 PUSH0 DUP4 ADD DUP5 PUSH2 0x163 JUMP JUMPDEST SWAP3 SWAP2 POP POP JUMP INVALID LOG2 PUSH5 0x6970667358 0x22 SLT KECCAK256 COINBASE MOD 0xD6 SMOD 0xA6 SWAP16 PUSH8 0x4C155390C15EEA0D 0xA9 0xE9 SDIV 0x22 AND EXTCODESIZE 0xEC 0x29 0xDA 0xA9 SWAP13 0xAE EXTCODECOPY TIMESTAMP 0x2A 0x28 PUSH27 0x64736F6C6343000816003300000000000000000000000000000000 "
		},
		"gasEstimates": {
			"creation": {
				"codeDepositCost": "89800",
				"executionCost": "139",
				"totalCost": "89939"
			},
			"external": {
				"cancel()": "24473",
				"get()": "2561",
				"reset()": "24406",
				"status()": "2529"
			}
		},
		"methodIdentifiers": {
			"cancel()": "ea8a1af0",
			"get()": "6d4ce63c",
			"reset()": "d826f88f",
			"status()": "200d2ed2"
		}
	},
	"abi": [
		{
			"inputs": [],
			"name": "cancel",
			"outputs": [],
			"stateMutability": "nonpayable",
			"type": "function"
		},
		{
			"inputs": [],
			"name": "get",
			"outputs": [
				{
					"internalType": "enum Enum.Status",
					"name": "",
					"type": "uint8"
				}
			],
			"stateMutability": "view",
			"type": "function"
		},
		{
			"inputs": [],
			"name": "reset",
			"outputs": [],
			"stateMutability": "nonpayable",
			"type": "function"
		},
		{
			"inputs": [],
			"name": "status",
			"outputs": [
				{
					"internalType": "enum Enum.Status",
					"name": "",
					"type": "uint8"
				}
			],
			"stateMutability": "view",
			"type": "function"
		}
	]
}